{
  "_format": "hh-sol-artifact-1",
  "contractName": "BattleHelper",
  "sourceName": "contracts/battleHelper.sol",
  "abi": [
    {
      "inputs": [
        {
          "internalType": "address",
          "name": "sender",
          "type": "address"
        },
        {
          "internalType": "uint256",
          "name": "balance",
          "type": "uint256"
        },
        {
          "internalType": "uint256",
          "name": "needed",
          "type": "uint256"
        },
        {
          "internalType": "uint256",
          "name": "tokenId",
          "type": "uint256"
        }
      ],
      "name": "ERC1155InsufficientBalance",
      "type": "error"
    },
    {
      "inputs": [
        {
          "internalType": "address",
          "name": "approver",
          "type": "address"
        }
      ],
      "name": "ERC1155InvalidApprover",
      "type": "error"
    },
    {
      "inputs": [
        {
          "internalType": "uint256",
          "name": "idsLength",
          "type": "uint256"
        },
        {
          "internalType": "uint256",
          "name": "valuesLength",
          "type": "uint256"
        }
      ],
      "name": "ERC1155InvalidArrayLength",
      "type": "error"
    },
    {
      "inputs": [
        {
          "internalType": "address",
          "name": "operator",
          "type": "address"
        }
      ],
      "name": "ERC1155InvalidOperator",
      "type": "error"
    },
    {
      "inputs": [
        {
          "internalType": "address",
          "name": "receiver",
          "type": "address"
        }
      ],
      "name": "ERC1155InvalidReceiver",
      "type": "error"
    },
    {
      "inputs": [
        {
          "internalType": "address",
          "name": "sender",
          "type": "address"
        }
      ],
      "name": "ERC1155InvalidSender",
      "type": "error"
    },
    {
      "inputs": [
        {
          "internalType": "address",
          "name": "operator",
          "type": "address"
        },
        {
          "internalType": "address",
          "name": "owner",
          "type": "address"
        }
      ],
      "name": "ERC1155MissingApprovalForAll",
      "type": "error"
    },
    {
      "inputs": [
        {
          "internalType": "address",
          "name": "owner",
          "type": "address"
        }
      ],
      "name": "OwnableInvalidOwner",
      "type": "error"
    },
    {
      "inputs": [
        {
          "internalType": "address",
          "name": "account",
          "type": "address"
        }
      ],
      "name": "OwnableUnauthorizedAccount",
      "type": "error"
    },
    {
      "anonymous": false,
      "inputs": [
        {
          "indexed": true,
          "internalType": "address",
          "name": "account",
          "type": "address"
        },
        {
          "indexed": true,
          "internalType": "address",
          "name": "operator",
          "type": "address"
        },
        {
          "indexed": false,
          "internalType": "bool",
          "name": "approved",
          "type": "bool"
        }
      ],
      "name": "ApprovalForAll",
      "type": "event"
    },
    {
      "anonymous": false,
      "inputs": [
        {
          "indexed": false,
          "internalType": "address",
          "name": "_winner",
          "type": "address"
        },
        {
          "indexed": false,
          "internalType": "address",
          "name": "_loser",
          "type": "address"
        },
        {
          "indexed": true,
          "internalType": "uint256",
          "name": "_battleId",
          "type": "uint256"
        },
        {
          "indexed": false,
          "internalType": "bool",
          "name": "_res",
          "type": "bool"
        }
      ],
      "name": "BattleDone",
      "type": "event"
    },
    {
      "anonymous": false,
      "inputs": [
        {
          "indexed": true,
          "internalType": "uint256",
          "name": "_battleId",
          "type": "uint256"
        },
        {
          "indexed": false,
          "internalType": "bool",
          "name": "_res",
          "type": "bool"
        }
      ],
      "name": "BattleDoneDraw",
      "type": "event"
    },
    {
      "anonymous": false,
      "inputs": [
        {
          "indexed": true,
          "internalType": "address",
          "name": "_from",
          "type": "address"
        },
        {
          "indexed": true,
          "internalType": "uint256",
          "name": "_cardId",
          "type": "uint256"
        },
        {
          "indexed": true,
          "internalType": "uint256",
          "name": "_battleId",
          "type": "uint256"
        }
      ],
      "name": "BattleInitiated",
      "type": "event"
    },
    {
      "anonymous": false,
      "inputs": [
        {
          "indexed": true,
          "internalType": "address",
          "name": "_from",
          "type": "address"
        },
        {
          "indexed": true,
          "internalType": "uint256",
          "name": "_cardId",
          "type": "uint256"
        },
        {
          "indexed": true,
          "internalType": "uint256",
          "name": "_battleId",
          "type": "uint256"
        },
        {
          "indexed": false,
          "internalType": "bool",
          "name": "_res",
          "type": "bool"
        }
      ],
      "name": "BattleSelected",
      "type": "event"
    },
    {
      "anonymous": false,
      "inputs": [
        {
          "indexed": false,
          "internalType": "uint256",
          "name": "newCardIdMax",
          "type": "uint256"
        }
      ],
      "name": "CardIdMaxChanged",
      "type": "event"
    },
    {
      "anonymous": false,
      "inputs": [
        {
          "indexed": true,
          "internalType": "address",
          "name": "previousOwner",
          "type": "address"
        },
        {
          "indexed": true,
          "internalType": "address",
          "name": "newOwner",
          "type": "address"
        }
      ],
      "name": "OwnershipTransferred",
      "type": "event"
    },
    {
      "anonymous": false,
      "inputs": [
        {
          "indexed": true,
          "internalType": "address",
          "name": "operator",
          "type": "address"
        },
        {
          "indexed": true,
          "internalType": "address",
          "name": "from",
          "type": "address"
        },
        {
          "indexed": true,
          "internalType": "address",
          "name": "to",
          "type": "address"
        },
        {
          "indexed": false,
          "internalType": "uint256[]",
          "name": "ids",
          "type": "uint256[]"
        },
        {
          "indexed": false,
          "internalType": "uint256[]",
          "name": "values",
          "type": "uint256[]"
        }
      ],
      "name": "TransferBatch",
      "type": "event"
    },
    {
      "anonymous": false,
      "inputs": [
        {
          "indexed": true,
          "internalType": "address",
          "name": "operator",
          "type": "address"
        },
        {
          "indexed": true,
          "internalType": "address",
          "name": "from",
          "type": "address"
        },
        {
          "indexed": true,
          "internalType": "address",
          "name": "to",
          "type": "address"
        },
        {
          "indexed": false,
          "internalType": "uint256",
          "name": "id",
          "type": "uint256"
        },
        {
          "indexed": false,
          "internalType": "uint256",
          "name": "value",
          "type": "uint256"
        }
      ],
      "name": "TransferSingle",
      "type": "event"
    },
    {
      "anonymous": false,
      "inputs": [
        {
          "indexed": false,
          "internalType": "string",
          "name": "value",
          "type": "string"
        },
        {
          "indexed": true,
          "internalType": "uint256",
          "name": "id",
          "type": "uint256"
        }
      ],
      "name": "URI",
      "type": "event"
    },
    {
      "inputs": [
        {
          "internalType": "address",
          "name": "",
          "type": "address"
        },
        {
          "internalType": "uint256",
          "name": "",
          "type": "uint256"
        }
      ],
      "name": "addressToCardInBattle",
      "outputs": [
        {
          "internalType": "uint256",
          "name": "",
          "type": "uint256"
        }
      ],
      "stateMutability": "view",
      "type": "function"
    },
    {
      "inputs": [
        {
          "internalType": "address",
          "name": "account",
          "type": "address"
        },
        {
          "internalType": "uint256",
          "name": "id",
          "type": "uint256"
        }
      ],
      "name": "balanceOf",
      "outputs": [
        {
          "internalType": "uint256",
          "name": "",
          "type": "uint256"
        }
      ],
      "stateMutability": "view",
      "type": "function"
    },
    {
      "inputs": [
        {
          "internalType": "address[]",
          "name": "accounts",
          "type": "address[]"
        },
        {
          "internalType": "uint256[]",
          "name": "ids",
          "type": "uint256[]"
        }
      ],
      "name": "balanceOfBatch",
      "outputs": [
        {
          "internalType": "uint256[]",
          "name": "",
          "type": "uint256[]"
        }
      ],
      "stateMutability": "view",
      "type": "function"
    },
    {
      "inputs": [
        {
          "internalType": "uint256",
          "name": "",
          "type": "uint256"
        }
      ],
      "name": "battles",
      "outputs": [
        {
          "internalType": "uint256",
          "name": "battleId",
          "type": "uint256"
        },
        {
          "internalType": "address",
          "name": "player1",
          "type": "address"
        },
        {
          "internalType": "address",
          "name": "player2",
          "type": "address"
        },
        {
          "internalType": "uint256",
          "name": "cardIdPlayer1",
          "type": "uint256"
        },
        {
          "internalType": "uint256",
          "name": "cardIdPlayer2",
          "type": "uint256"
        },
        {
          "internalType": "uint256",
          "name": "amountPlayer1",
          "type": "uint256"
        },
        {
          "internalType": "uint256",
          "name": "amountPlayer2",
          "type": "uint256"
        },
        {
          "internalType": "address",
          "name": "winner",
          "type": "address"
        },
        {
          "internalType": "address",
          "name": "loser",
          "type": "address"
        },
        {
          "internalType": "bool",
          "name": "draw",
          "type": "bool"
        },
        {
          "internalType": "string",
          "name": "status",
          "type": "string"
        }
      ],
      "stateMutability": "view",
      "type": "function"
    },
    {
      "inputs": [
        {
          "internalType": "address",
          "name": "_from",
          "type": "address"
        },
        {
          "internalType": "uint256",
          "name": "_id",
          "type": "uint256"
        },
        {
          "internalType": "uint256",
          "name": "_value",
          "type": "uint256"
        }
      ],
      "name": "burn",
      "outputs": [],
      "stateMutability": "nonpayable",
      "type": "function"
    },
    {
      "inputs": [
        {
          "internalType": "uint256",
          "name": "_battleId",
          "type": "uint256"
        }
      ],
      "name": "cancelBattle",
      "outputs": [],
      "stateMutability": "nonpayable",
      "type": "function"
    },
    {
      "inputs": [],
      "name": "cardIdMax",
      "outputs": [
        {
          "internalType": "uint256",
          "name": "",
          "type": "uint256"
        }
      ],
      "stateMutability": "view",
      "type": "function"
    },
    {
      "inputs": [
        {
          "internalType": "uint256",
          "name": "",
          "type": "uint256"
        },
        {
          "internalType": "address",
          "name": "",
          "type": "address"
        }
      ],
      "name": "cardIdToOwnerToAmount",
      "outputs": [
        {
          "internalType": "uint256",
          "name": "",
          "type": "uint256"
        }
      ],
      "stateMutability": "view",
      "type": "function"
    },
    {
      "inputs": [
        {
          "internalType": "uint256",
          "name": "",
          "type": "uint256"
        },
        {
          "internalType": "uint256",
          "name": "",
          "type": "uint256"
        }
      ],
      "name": "cardIdToOwners",
      "outputs": [
        {
          "internalType": "address",
          "name": "",
          "type": "address"
        }
      ],
      "stateMutability": "view",
      "type": "function"
    },
    {
      "inputs": [
        {
          "internalType": "uint256",
          "name": "_cardIdMax",
          "type": "uint256"
        }
      ],
      "name": "changeCardIdMax",
      "outputs": [],
      "stateMutability": "nonpayable",
      "type": "function"
    },
    {
      "inputs": [
        {
          "internalType": "uint256",
          "name": "_battleId",
          "type": "uint256"
        },
        {
          "internalType": "uint256[]",
          "name": "_stats",
          "type": "uint256[]"
        }
      ],
      "name": "confirmBattle",
      "outputs": [],
      "stateMutability": "nonpayable",
      "type": "function"
    },
    {
      "inputs": [
        {
          "internalType": "uint256",
          "name": "id",
          "type": "uint256"
        }
      ],
      "name": "exists",
      "outputs": [
        {
          "internalType": "bool",
          "name": "",
          "type": "bool"
        }
      ],
      "stateMutability": "view",
      "type": "function"
    },
    {
      "inputs": [
        {
          "internalType": "address",
          "name": "_from",
          "type": "address"
        }
      ],
      "name": "getAllBalance",
      "outputs": [
        {
          "internalType": "uint256[]",
          "name": "",
          "type": "uint256[]"
        }
      ],
      "stateMutability": "view",
      "type": "function"
    },
    {
      "inputs": [],
      "name": "getAllBattle",
      "outputs": [
        {
          "components": [
            {
              "internalType": "uint256",
              "name": "battleId",
              "type": "uint256"
            },
            {
              "internalType": "address",
              "name": "player1",
              "type": "address"
            },
            {
              "internalType": "address",
              "name": "player2",
              "type": "address"
            },
            {
              "internalType": "uint256",
              "name": "cardIdPlayer1",
              "type": "uint256"
            },
            {
              "internalType": "uint256",
              "name": "cardIdPlayer2",
              "type": "uint256"
            },
            {
              "internalType": "uint256",
              "name": "amountPlayer1",
              "type": "uint256"
            },
            {
              "internalType": "uint256",
              "name": "amountPlayer2",
              "type": "uint256"
            },
            {
              "internalType": "uint256[]",
              "name": "statsPlayer1",
              "type": "uint256[]"
            },
            {
              "internalType": "uint256[]",
              "name": "statsPlayer2",
              "type": "uint256[]"
            },
            {
              "internalType": "address",
              "name": "winner",
              "type": "address"
            },
            {
              "internalType": "address",
              "name": "loser",
              "type": "address"
            },
            {
              "internalType": "bool",
              "name": "draw",
              "type": "bool"
            },
            {
              "internalType": "string",
              "name": "status",
              "type": "string"
            }
          ],
          "internalType": "struct Battle.BattleData[]",
          "name": "",
          "type": "tuple[]"
        }
      ],
      "stateMutability": "view",
      "type": "function"
    },
    {
      "inputs": [],
      "name": "getAllBattleUser",
      "outputs": [
        {
          "components": [
            {
              "internalType": "uint256",
              "name": "battleId",
              "type": "uint256"
            },
            {
              "internalType": "address",
              "name": "player1",
              "type": "address"
            },
            {
              "internalType": "address",
              "name": "player2",
              "type": "address"
            },
            {
              "internalType": "uint256",
              "name": "cardIdPlayer1",
              "type": "uint256"
            },
            {
              "internalType": "uint256",
              "name": "cardIdPlayer2",
              "type": "uint256"
            },
            {
              "internalType": "uint256",
              "name": "amountPlayer1",
              "type": "uint256"
            },
            {
              "internalType": "uint256",
              "name": "amountPlayer2",
              "type": "uint256"
            },
            {
              "internalType": "uint256[]",
              "name": "statsPlayer1",
              "type": "uint256[]"
            },
            {
              "internalType": "uint256[]",
              "name": "statsPlayer2",
              "type": "uint256[]"
            },
            {
              "internalType": "address",
              "name": "winner",
              "type": "address"
            },
            {
              "internalType": "address",
              "name": "loser",
              "type": "address"
            },
            {
              "internalType": "bool",
              "name": "draw",
              "type": "bool"
            },
            {
              "internalType": "string",
              "name": "status",
              "type": "string"
            }
          ],
          "internalType": "struct Battle.BattleData[]",
          "name": "",
          "type": "tuple[]"
        }
      ],
      "stateMutability": "view",
      "type": "function"
    },
    {
      "inputs": [
        {
          "internalType": "uint256",
          "name": "_id",
          "type": "uint256"
        },
        {
          "internalType": "address",
          "name": "_from",
          "type": "address"
        }
      ],
      "name": "getBalanceOf",
      "outputs": [
        {
          "internalType": "uint256",
          "name": "",
          "type": "uint256"
        }
      ],
      "stateMutability": "view",
      "type": "function"
    },
    {
      "inputs": [
        {
          "internalType": "uint256",
          "name": "_battleId",
          "type": "uint256"
        }
      ],
      "name": "getBattle",
      "outputs": [
        {
          "components": [
            {
              "internalType": "uint256",
              "name": "battleId",
              "type": "uint256"
            },
            {
              "internalType": "address",
              "name": "player1",
              "type": "address"
            },
            {
              "internalType": "address",
              "name": "player2",
              "type": "address"
            },
            {
              "internalType": "uint256",
              "name": "cardIdPlayer1",
              "type": "uint256"
            },
            {
              "internalType": "uint256",
              "name": "cardIdPlayer2",
              "type": "uint256"
            },
            {
              "internalType": "uint256",
              "name": "amountPlayer1",
              "type": "uint256"
            },
            {
              "internalType": "uint256",
              "name": "amountPlayer2",
              "type": "uint256"
            },
            {
              "internalType": "uint256[]",
              "name": "statsPlayer1",
              "type": "uint256[]"
            },
            {
              "internalType": "uint256[]",
              "name": "statsPlayer2",
              "type": "uint256[]"
            },
            {
              "internalType": "address",
              "name": "winner",
              "type": "address"
            },
            {
              "internalType": "address",
              "name": "loser",
              "type": "address"
            },
            {
              "internalType": "bool",
              "name": "draw",
              "type": "bool"
            },
            {
              "internalType": "string",
              "name": "status",
              "type": "string"
            }
          ],
          "internalType": "struct Battle.BattleData",
          "name": "",
          "type": "tuple"
        }
      ],
      "stateMutability": "view",
      "type": "function"
    },
    {
      "inputs": [],
      "name": "getCardIdMax",
      "outputs": [
        {
          "internalType": "uint256",
          "name": "",
          "type": "uint256"
        }
      ],
      "stateMutability": "view",
      "type": "function"
    },
    {
      "inputs": [
        {
          "internalType": "uint256",
          "name": "_cardId",
          "type": "uint256"
        }
      ],
      "name": "initBattle",
      "outputs": [],
      "stateMutability": "payable",
      "type": "function"
    },
    {
      "inputs": [
        {
          "internalType": "address",
          "name": "account",
          "type": "address"
        },
        {
          "internalType": "address",
          "name": "operator",
          "type": "address"
        }
      ],
      "name": "isApprovedForAll",
      "outputs": [
        {
          "internalType": "bool",
          "name": "",
          "type": "bool"
        }
      ],
      "stateMutability": "view",
      "type": "function"
    },
    {
      "inputs": [
        {
          "internalType": "address",
          "name": "_account",
          "type": "address"
        },
        {
          "internalType": "uint256",
          "name": "_id",
          "type": "uint256"
        },
        {
          "internalType": "uint256",
          "name": "_amount",
          "type": "uint256"
        },
        {
          "internalType": "bytes",
          "name": "_data",
          "type": "bytes"
        }
      ],
      "name": "mint",
      "outputs": [],
      "stateMutability": "nonpayable",
      "type": "function"
    },
    {
      "inputs": [
        {
          "internalType": "address",
          "name": "_to",
          "type": "address"
        },
        {
          "internalType": "uint256[]",
          "name": "_ids",
          "type": "uint256[]"
        },
        {
          "internalType": "uint256[]",
          "name": "_amounts",
          "type": "uint256[]"
        },
        {
          "internalType": "bytes",
          "name": "_data",
          "type": "bytes"
        }
      ],
      "name": "mintBatch",
      "outputs": [],
      "stateMutability": "nonpayable",
      "type": "function"
    },
    {
      "inputs": [],
      "name": "nonce",
      "outputs": [
        {
          "internalType": "uint256",
          "name": "",
          "type": "uint256"
        }
      ],
      "stateMutability": "view",
      "type": "function"
    },
    {
      "inputs": [],
      "name": "openPack",
      "outputs": [],
      "stateMutability": "payable",
      "type": "function"
    },
    {
      "inputs": [],
      "name": "owner",
      "outputs": [
        {
          "internalType": "address",
          "name": "",
          "type": "address"
        }
      ],
      "stateMutability": "view",
      "type": "function"
    },
    {
      "inputs": [],
      "name": "renounceOwnership",
      "outputs": [],
      "stateMutability": "nonpayable",
      "type": "function"
    },
    {
      "inputs": [
        {
          "internalType": "address",
          "name": "from",
          "type": "address"
        },
        {
          "internalType": "address",
          "name": "to",
          "type": "address"
        },
        {
          "internalType": "uint256[]",
          "name": "ids",
          "type": "uint256[]"
        },
        {
          "internalType": "uint256[]",
          "name": "values",
          "type": "uint256[]"
        },
        {
          "internalType": "bytes",
          "name": "data",
          "type": "bytes"
        }
      ],
      "name": "safeBatchTransferFrom",
      "outputs": [],
      "stateMutability": "nonpayable",
      "type": "function"
    },
    {
      "inputs": [
        {
          "internalType": "address",
          "name": "from",
          "type": "address"
        },
        {
          "internalType": "address",
          "name": "to",
          "type": "address"
        },
        {
          "internalType": "uint256",
          "name": "id",
          "type": "uint256"
        },
        {
          "internalType": "uint256",
          "name": "value",
          "type": "uint256"
        },
        {
          "internalType": "bytes",
          "name": "data",
          "type": "bytes"
        }
      ],
      "name": "safeTransferFrom",
      "outputs": [],
      "stateMutability": "nonpayable",
      "type": "function"
    },
    {
      "inputs": [
        {
          "internalType": "uint256",
          "name": "_cardId",
          "type": "uint256"
        },
        {
          "internalType": "uint256",
          "name": "_battleId",
          "type": "uint256"
        },
        {
          "internalType": "uint256[]",
          "name": "_stats",
          "type": "uint256[]"
        }
      ],
      "name": "selectBattle",
      "outputs": [],
      "stateMutability": "payable",
      "type": "function"
    },
    {
      "inputs": [
        {
          "internalType": "address",
          "name": "operator",
          "type": "address"
        },
        {
          "internalType": "bool",
          "name": "approved",
          "type": "bool"
        }
      ],
      "name": "setApprovalForAll",
      "outputs": [],
      "stateMutability": "nonpayable",
      "type": "function"
    },
    {
      "inputs": [
        {
          "internalType": "string",
          "name": "_newuri",
          "type": "string"
        }
      ],
      "name": "setURI",
      "outputs": [],
      "stateMutability": "nonpayable",
      "type": "function"
    },
    {
      "inputs": [
        {
          "internalType": "bytes4",
          "name": "interfaceId",
          "type": "bytes4"
        }
      ],
      "name": "supportsInterface",
      "outputs": [
        {
          "internalType": "bool",
          "name": "",
          "type": "bool"
        }
      ],
      "stateMutability": "view",
      "type": "function"
    },
    {
      "inputs": [],
      "name": "testConnect",
      "outputs": [
        {
          "internalType": "bool",
          "name": "",
          "type": "bool"
        }
      ],
      "stateMutability": "pure",
      "type": "function"
    },
    {
      "inputs": [
        {
          "internalType": "uint256",
          "name": "_tokenId",
          "type": "uint256"
        }
      ],
      "name": "tokenURI",
      "outputs": [
        {
          "internalType": "string",
          "name": "",
          "type": "string"
        }
      ],
      "stateMutability": "pure",
      "type": "function"
    },
    {
      "inputs": [],
      "name": "totalSupply",
      "outputs": [
        {
          "internalType": "uint256",
          "name": "",
          "type": "uint256"
        }
      ],
      "stateMutability": "view",
      "type": "function"
    },
    {
      "inputs": [
        {
          "internalType": "uint256",
          "name": "id",
          "type": "uint256"
        }
      ],
      "name": "totalSupply",
      "outputs": [
        {
          "internalType": "uint256",
          "name": "",
          "type": "uint256"
        }
      ],
      "stateMutability": "view",
      "type": "function"
    },
    {
      "inputs": [
        {
          "internalType": "address",
          "name": "newOwner",
          "type": "address"
        }
      ],
      "name": "transferOwnership",
      "outputs": [],
      "stateMutability": "nonpayable",
      "type": "function"
    },
    {
      "inputs": [
        {
          "internalType": "uint256",
          "name": "",
          "type": "uint256"
        }
      ],
      "name": "uri",
      "outputs": [
        {
          "internalType": "string",
          "name": "",
          "type": "string"
        }
      ],
      "stateMutability": "view",
      "type": "function"
    }
  ],
  "bytecode": "0x6080604052600960065560006007553480156200001b57600080fd5b50336040518060600160405280602981526020016200624560299139620000428162000084565b506001600160a01b0381166200007257604051631e4fbdf760e01b81526000600482015260240160405180910390fd5b6200007d8162000096565b5062000259565b60026200009282826200018d565b5050565b600580546001600160a01b038381166001600160a01b0319831681179093556040519116919082907f8be0079c531659141344cd1fd0a4f28419497f9722a3daafe3b4186f6b6457e090600090a35050565b634e487b7160e01b600052604160045260246000fd5b600181811c908216806200011357607f821691505b6020821081036200013457634e487b7160e01b600052602260045260246000fd5b50919050565b601f8211156200018857600081815260208120601f850160051c81016020861015620001635750805b601f850160051c820191505b8181101562000184578281556001016200016f565b5050505b505050565b81516001600160401b03811115620001a957620001a9620000e8565b620001c181620001ba8454620000fe565b846200013a565b602080601f831160018114620001f95760008415620001e05750858301515b600019600386901b1c1916600185901b17855562000184565b600085815260208120601f198616915b828110156200022a5788860151825594840194600190910190840162000209565b5085821015620002495787850151600019600388901b60f8161c191681555b5050505050600190811b01905550565b615fdc80620002696000396000f3fe6080604052600436106102835760003560e01c8063715018a611610153578063bd85b039116100cb578063efefb0dd1161007f578063f242432a11610064578063f242432a1461075a578063f2fde38b1461077a578063f5298aca1461079a57600080fd5b8063efefb0dd1461070f578063f1632cd11461074757600080fd5b8063c87b56dd116100b0578063c87b56dd1461066e578063e985e9c51461068e578063e9994267146106d757600080fd5b8063bd85b03914610621578063bfa0af6d1461064e57600080fd5b80638da7722a11610122578063a22cb46511610107578063a22cb465146105d6578063affed0e0146105f6578063b24a97c31461060c57600080fd5b80638da7722a146105a05780639347fb3d146105b657600080fd5b8063715018a614610539578063731133e91461054e5780638a8a31a01461056e5780638da5cb5b1461058257600080fd5b806334303187116102015780634f1b92fb116101b5578063606d2e961161019a578063606d2e96146104c257806365a41521146104f95780636dd0ce7a1461050c57600080fd5b80634f1b92fb146104715780634f558e791461049357600080fd5b80634673f332116101e65780634673f3321461040f5780634c4c447e146104245780634e1273f41461044457600080fd5b806334303187146103cf5780633c4ea3851461040757600080fd5b80630e89341c116102585780631f7fdffa1161023d5780631f7fdffa1461036f578063273431901461038f5780632eb2c2d6146103af57600080fd5b80630e89341c1461032d57806318160ddd1461035a57600080fd5b806266fd0d14610288578062fdd58e146102aa57806301ffc9a7146102dd57806302fe53051461030d575b600080fd5b34801561029457600080fd5b506102a86102a33660046152b8565b6107ba565b005b3480156102b657600080fd5b506102ca6102c53660046152e8565b6107fd565b6040519081526020015b60405180910390f35b3480156102e957600080fd5b506102fd6102f8366004615328565b610825565b60405190151581526020016102d4565b34801561031957600080fd5b506102a86103283660046153e4565b6108c0565b34801561033957600080fd5b5061034d6103483660046152b8565b6108d4565b6040516102d4919061547d565b34801561036657600080fd5b506004546102ca565b34801561037b57600080fd5b506102a861038a36600461553f565b610968565b34801561039b57600080fd5b506102a86103aa3660046155d8565b610982565b3480156103bb57600080fd5b506102a86103ca36600461561f565b610c41565b3480156103db57600080fd5b506103ef6103ea3660046156c9565b610cc7565b6040516001600160a01b0390911681526020016102d4565b6102a8610cff565b34801561041b57600080fd5b506006546102ca565b34801561043057600080fd5b506102a861043f3660046152b8565b610d09565b34801561045057600080fd5b5061046461045f3660046156eb565b610ff0565b6040516102d491906157dc565b34801561047d57600080fd5b506104866110c5565b6040516102d491906158ec565b34801561049f57600080fd5b506102fd6104ae3660046152b8565b600090815260036020526040902054151590565b3480156104ce57600080fd5b506104e26104dd3660046152b8565b6110d4565b6040516102d49b9a9998979695949392919061594e565b6102a86105073660046159c6565b6111e0565b34801561051857600080fd5b5061052c6105273660046152b8565b611551565b6040516102d49190615a16565b34801561054557600080fd5b506102a8611844565b34801561055a57600080fd5b506102a8610569366004615a29565b611856565b34801561057a57600080fd5b5060016102fd565b34801561058e57600080fd5b506005546001600160a01b03166103ef565b3480156105ac57600080fd5b506102ca60065481565b3480156105c257600080fd5b506104646105d1366004615a7e565b61186a565b3480156105e257600080fd5b506102a86105f1366004615a99565b61191f565b34801561060257600080fd5b506102ca60075481565b34801561061857600080fd5b5061048661192a565b34801561062d57600080fd5b506102ca61063c3660046152b8565b60009081526003602052604090205490565b34801561065a57600080fd5b506102ca610669366004615ad5565b611b4d565b34801561067a57600080fd5b5061034d6106893660046152b8565b611b60565b34801561069a57600080fd5b506102fd6106a9366004615b01565b6001600160a01b03918216600090815260016020908152604080832093909416825291909152205460ff1690565b3480156106e357600080fd5b506102ca6106f2366004615ad5565b600860209081526000928352604080842090915290825290205481565b34801561071b57600080fd5b506102ca61072a3660046152e8565b600a60209081526000928352604080842090915290825290205481565b6102a86107553660046152b8565b611b91565b34801561076657600080fd5b506102a8610775366004615b2b565b611cd1565b34801561078657600080fd5b506102a8610795366004615a7e565b611d4f565b3480156107a657600080fd5b506102a86107b5366004615b90565b611da3565b6107c2611dae565b60068190556040518181527f2ca7491c41b198f60823c9da02ca440dca6bfb5d6cd4ae0df705cc35de252fb39060200160405180910390a150565b6000818152602081815260408083206001600160a01b03861684529091529020545b92915050565b60006001600160e01b031982167fd9b67a2600000000000000000000000000000000000000000000000000000000148061088857506001600160e01b031982167f0e89341c00000000000000000000000000000000000000000000000000000000145b8061081f57507f01ffc9a7000000000000000000000000000000000000000000000000000000006001600160e01b031983161461081f565b6108c8611dae565b6108d181611df4565b50565b6060600280546108e390615bc3565b80601f016020809104026020016040519081016040528092919081815260200182805461090f90615bc3565b801561095c5780601f106109315761010080835404028352916020019161095c565b820191906000526020600020905b81548152906001019060200180831161093f57829003601f168201915b50505050509050919050565b610970611dae565b61097c84848484611e00565b50505050565b6000821180156109945750600b548211155b6109e55760405162461bcd60e51b815260206004820152601960248201527f5468697320626174746c6520646f65736e27742065786973740000000000000060448201526064015b60405180910390fd5b33600b6109f3600185615c13565b81548110610a0357610a03615c26565b600091825260209091206001600c9092020101546001600160a01b031614610a6d5760405162461bcd60e51b815260206004820152601f60248201527f596f7520617265206e6f742070617274206f66207468697320626174746c650060448201526064016109dc565b6040516577616974503160d01b602082015260260160405160208183030381529060405280519060200120600b600184610aa79190615c13565b81548110610ab757610ab7615c26565b90600052602060002090600c0201600b01604051602001610ad89190615c3c565b6040516020818303038152906040528051906020012014610b615760405162461bcd60e51b815260206004820152602960248201527f5468697320626174746c65206973206e6f742077616974696e6720666f72206160448201527f20706c617965722031000000000000000000000000000000000000000000000060648201526084016109dc565b8051600314610bb25760405162461bcd60e51b815260206004820152601860248201527f596f75206e65656420746f2073656e642033207374617473000000000000000060448201526064016109dc565b6000610bbe8383611e38565b905080610c335760405162461bcd60e51b815260206004820152603360248201527f536f6d657468696e672077656e742077726f6e6720647572696e67207468652060448201527f626174746c6520636f6e6669726d6174696f6e0000000000000000000000000060648201526084016109dc565b610c3c836121b1565b505050565b336001600160a01b0386168114801590610c8157506001600160a01b0380871660009081526001602090815260408083209385168352929052205460ff16155b15610cb25760405163711bec9160e11b81526001600160a01b038083166004830152871660248201526044016109dc565b610cbf868686868661270f565b505050505050565b60096020528160005260406000208181548110610ce357600080fd5b6000918252602090912001546001600160a01b03169150829050565b610d07612776565b565b600081118015610d1b5750600b548111155b610d675760405162461bcd60e51b815260206004820152601960248201527f5468697320626174746c6520646f65736e27742065786973740000000000000060448201526064016109dc565b33600b610d75600184615c13565b81548110610d8557610d85615c26565b600091825260209091206001600c9092020101546001600160a01b031614610def5760405162461bcd60e51b815260206004820152601f60248201527f596f7520617265206e6f742070617274206f66207468697320626174746c650060448201526064016109dc565b6040516577616974503160d01b602082015260260160405160208183030381529060405280519060200120600b600183610e299190615c13565b81548110610e3957610e39615c26565b90600052602060002090600c0201600b01604051602001610e5a9190615c3c565b604051602081830303815290604052805190602001201480610efa5750604051653bb0b4ba281960d11b602082015260260160405160208183030381529060405280519060200120600b600183610eb19190615c13565b81548110610ec157610ec1615c26565b90600052602060002090600c0201600b01604051602001610ee29190615c3c565b60405160208183030381529060405280519060200120145b610f6c5760405162461bcd60e51b815260206004820152603560248201527f43616e742063616e63656c206120626174746c652074686174206973206e6f7460448201527f2077616974696e6720666f72206120706c61796572000000000000000000000060648201526084016109dc565b6000610f7782612839565b905080610fec5760405162461bcd60e51b815260206004820152603360248201527f536f6d657468696e672077656e742077726f6e6720647572696e67207468652060448201527f626174746c652063616e63656c6c6174696f6e0000000000000000000000000060648201526084016109dc565b5050565b606081518351146110215781518351604051635b05999160e01b8152600481019290925260248201526044016109dc565b6000835167ffffffffffffffff81111561103d5761103d615345565b604051908082528060200260200182016040528015611066578160200160208202803683370190505b50905060005b84518110156110bd57602080820286010151611090906020808402870101516107fd565b8282815181106110a2576110a2615c26565b60209081029190910101526110b681615cb2565b905061106c565b509392505050565b60606110cf612cfb565b905090565b600b81815481106110e457600080fd5b60009182526020909120600c9091020180546001820154600283015460038401546004850154600586015460068701546009880154600a890154600b8a018054999b506001600160a01b039889169a9789169996989597949693959283169492821693600160a01b90920460ff16929161115d90615bc3565b80601f016020809104026020016040519081016040528092919081815260200182805461118990615bc3565b80156111d65780601f106111ab576101008083540402835291602001916111d6565b820191906000526020600020905b8154815290600101906020018083116111b957829003601f168201915b505050505090508b565b600034116112305760405162461bcd60e51b815260206004820152601660248201527f596f75206e65656420746f2073656e642065746865720000000000000000000060448201526064016109dc565b60008311801561124257506006548311155b61124b57600080fd5b336000818152600a60209081526040808320878452909152812054909161127290866107fd565b61127c9190615c13565b116112df5760405162461bcd60e51b815260206004820152602d60248201527f596f7520646f6e2774206861766520656e6f75677468206f662074686973206360448201526c61726420617661696c61626c6560981b60648201526084016109dc565b6000821180156112f15750600b548211155b61133d5760405162461bcd60e51b815260206004820152601960248201527f5468697320626174746c6520646f65736e27742065786973740000000000000060448201526064016109dc565b604051653bb0b4ba281960d11b602082015260260160405160208183030381529060405280519060200120600b6001846113779190615c13565b8154811061138757611387615c26565b90600052602060002090600c0201600b016040516020016113a89190615c3c565b60405160208183030381529060405280519060200120146114315760405162461bcd60e51b815260206004820152602960248201527f5468697320626174746c65206973206e6f742077616974696e6720666f72206160448201527f20706c617965722032000000000000000000000000000000000000000000000060648201526084016109dc565b80516003146114825760405162461bcd60e51b815260206004820152601860248201527f596f75206e65656420746f2073656e642033207374617473000000000000000060448201526064016109dc565b600061148f8484846130aa565b9050806115045760405162461bcd60e51b815260206004820152603060248201527f536f6d657468696e672077656e742077726f6e6720647572696e67207468652060448201527f626174746c652073656c656374696f6e0000000000000000000000000000000060648201526084016109dc565b8284336001600160a01b03167fc559b3ccc5ecb04f988f93dc34629f418006013c2e2d95352ea77e50c3f21f7684604051611543911515815260200190565b60405180910390a450505050565b6115e2604051806101a001604052806000815260200160006001600160a01b0316815260200160006001600160a01b0316815260200160008152602001600081526020016000815260200160008152602001606081526020016060815260200160006001600160a01b0316815260200160006001600160a01b03168152602001600015158152602001606081525090565b6000821180156115f45750600b548211155b6116405760405162461bcd60e51b815260206004820152601960248201527f5468697320626174746c6520646f65736e27742065786973740000000000000060448201526064016109dc565b600b61164d600184615c13565b8154811061165d5761165d615c26565b6000918252602091829020604080516101a081018252600c9093029091018054835260018101546001600160a01b0390811684860152600282015416838301526003810154606084015260048101546080840152600581015460a0840152600681015460c08401526007810180548351818702810187019094528084529394919360e08601939283018282801561171357602002820191906000526020600020905b8154815260200190600101908083116116ff575b505050505081526020016008820180548060200260200160405190810160405280929190818152602001828054801561176b57602002820191906000526020600020905b815481526020019060010190808311611757575b505050918352505060098201546001600160a01b039081166020830152600a8301549081166040830152600160a01b900460ff1615156060820152600b820180546080909201916117bb90615bc3565b80601f01602080910402602001604051908101604052809291908181526020018280546117e790615bc3565b80156118345780601f1061180957610100808354040283529160200191611834565b820191906000526020600020905b81548152906001019060200180831161181757829003601f168201915b5050505050815250509050919050565b61184c611dae565b610d076000613478565b61185e611dae565b61097c848484846134ca565b6060600060065467ffffffffffffffff81111561188957611889615345565b6040519080825280602002602001820160405280156118b2578160200160208202803683370190505b50905060015b60065481116119185760006118cd85836107fd565b1115611906576118dd84826107fd565b826118e9600184615c13565b815181106118f9576118f9615c26565b6020026020010181815250505b8061191081615cb2565b9150506118b8565b5092915050565b610fec338383613527565b6060600b805480602002602001604051908101604052809291908181526020016000905b82821015611b44576000848152602090819020604080516101a081018252600c86029092018054835260018101546001600160a01b0390811684860152600282015416838301526003810154606084015260048101546080840152600581015460a0840152600681015460c08401526007810180548351818702810187019094528084529394919360e086019392830182828015611a0b57602002820191906000526020600020905b8154815260200190600101908083116119f7575b5050505050815260200160088201805480602002602001604051908101604052809291908181526020018280548015611a6357602002820191906000526020600020905b815481526020019060010190808311611a4f575b505050918352505060098201546001600160a01b039081166020830152600a8301549081166040830152600160a01b900460ff1615156060820152600b82018054608090920191611ab390615bc3565b80601f0160208091040260200160405190810160405280929190818152602001828054611adf90615bc3565b8015611b2c5780601f10611b0157610100808354040283529160200191611b2c565b820191906000526020600020905b815481529060010190602001808311611b0f57829003601f168201915b5050505050815250508152602001906001019061194e565b50505050905090565b6000611b5982846107fd565b9392505050565b6060611b6b826135d7565b604051602001611b7b9190615ccb565b6040516020818303038152906040529050919050565b60003411611be15760405162461bcd60e51b815260206004820152601660248201527f596f75206e65656420746f2073656e642065746865720000000000000000000060448201526064016109dc565b600081118015611bf357506006548111155b611bfc57600080fd5b336000818152600a602090815260408083208584529091528120549091611c2390846107fd565b611c2d9190615c13565b11611c905760405162461bcd60e51b815260206004820152602d60248201527f596f7520646f6e2774206861766520656e6f75677468206f662074686973206360448201526c61726420617661696c61626c6560981b60648201526084016109dc565b6000611c9b82613677565b6040519091508190839033907f7d449fa6e54154e0708080fd25570c187f5f5a38662c42a2324d966ec07b926f90600090a45050565b336001600160a01b0386168114801590611d1157506001600160a01b0380871660009081526001602090815260408083209385168352929052205460ff16155b15611d425760405163711bec9160e11b81526001600160a01b038083166004830152871660248201526044016109dc565b610cbf868686868661398d565b611d57611dae565b6001600160a01b038116611d9a576040517f1e4fbdf7000000000000000000000000000000000000000000000000000000008152600060048201526024016109dc565b6108d181613478565b610c3c838383613a1b565b6005546001600160a01b03163314610d07576040517f118cdaa70000000000000000000000000000000000000000000000000000000081523360048201526024016109dc565b6002610fec8282615d7c565b6001600160a01b038416611e2a57604051632bfa23e760e11b8152600060048201526024016109dc565b61097c600085858585613a26565b600080600b611e48600186615c13565b81548110611e5857611e58615c26565b6000918252602091829020604080516101a081018252600c9093029091018054835260018101546001600160a01b0390811684860152600282015416838301526003810154606084015260048101546080840152600581015460a0840152600681015460c08401526007810180548351818702810187019094528084529394919360e086019392830182828015611f0e57602002820191906000526020600020905b815481526020019060010190808311611efa575b5050505050815260200160088201805480602002602001604051908101604052809291908181526020018280548015611f6657602002820191906000526020600020905b815481526020019060010190808311611f52575b505050918352505060098201546001600160a01b039081166020830152600a8301549081166040830152600160a01b900460ff1615156060820152600b82018054608090920191611fb690615bc3565b80601f0160208091040260200160405190810160405280929190818152602001828054611fe290615bc3565b801561202f5780601f106120045761010080835404028352916020019161202f565b820191906000526020600020905b81548152906001019060200180831161201257829003601f168201915b5050509190925250505060e0810184905260408051808201909152600981526818dbdb999a5c9b595960ba1b6020820152610180820152905080600b612076600187615c13565b8154811061208657612086615c26565b60009182526020918290208351600c90920201908155828201516001820180546001600160a01b039283166001600160a01b0319918216179091556040850151600284018054919093169116179055606083015160038201556080830151600482015560a0830151600582015560c0830151600682015560e08301518051919261211892600785019290910190615258565b506101008201518051612135916008840191602090910190615258565b506101208201516009820180546001600160a01b0319166001600160a01b03928316179055610140830151600a83018054610160860151929093166001600160a81b031990931692909217600160a01b91151591909102179055610180820151600b8201906121a49082615d7c565b5060019695505050505050565b6000811180156121c35750600b548111155b61220f5760405162461bcd60e51b815260206004820152601960248201527f5468697320626174746c6520646f65736e27742065786973740000000000000060448201526064016109dc565b33600b61221d600184615c13565b8154811061222d5761222d615c26565b600091825260209091206001600c9092020101546001600160a01b0316146122975760405162461bcd60e51b815260206004820152601f60248201527f596f7520617265206e6f742070617274206f66207468697320626174746c650060448201526064016109dc565b6040516818dbdb999a5c9b595960ba1b602082015260290160405160208183030381529060405280519060200120600b6001836122d49190615c13565b815481106122e4576122e4615c26565b90600052602060002090600c0201600b016040516020016123059190615c3c565b60405160208183030381529060405280519060200120146123685760405162461bcd60e51b815260206004820152601c60248201527f5468697320626174746c65206973206e6f7420636f6e6669726d65640000000060448201526064016109dc565b600061237382613a79565b9050806123e85760405162461bcd60e51b815260206004820152602660248201527f536f6d657468696e672077656e742077726f6e6720647572696e67207468652060448201527f626174746c65000000000000000000000000000000000000000000000000000060648201526084016109dc565b6000600b6123f7600185615c13565b8154811061240757612407615c26565b6000918252602091829020604080516101a081018252600c9093029091018054835260018101546001600160a01b0390811684860152600282015416838301526003810154606084015260048101546080840152600581015460a0840152600681015460c08401526007810180548351818702810187019094528084529394919360e0860193928301828280156124bd57602002820191906000526020600020905b8154815260200190600101908083116124a9575b505050505081526020016008820180548060200260200160405190810160405280929190818152602001828054801561251557602002820191906000526020600020905b815481526020019060010190808311612501575b505050918352505060098201546001600160a01b039081166020830152600a8301549081166040830152600160a01b900460ff1615156060820152600b8201805460809092019161256590615bc3565b80601f016020809104026020016040519081016040528092919081815260200182805461259190615bc3565b80156125de5780601f106125b3576101008083540402835291602001916125de565b820191906000526020600020905b8154815290600101906020018083116125c157829003601f168201915b50505050508152505090508061016001511561263557827f89aca0360a8e6579f9b4a53b0406d026b2f7a9e5b0bc133d2c1013f220d696f883604051612628911515815260200190565b60405180910390a2505050565b6101208101516001600160a01b03166126b65760405162461bcd60e51b815260206004820152603f60248201527f536f6d657468696e672077656e742077726f6e6720647572696e67207468652060448201527f626174746c6520286e6f74206472617720616e64206e6f2077696e6e6572290060648201526084016109dc565b610120810151610140820151604080516001600160a01b0393841681529290911660208301528315159082015283907f73b75fe4a38b6c1172654d3174302c242d6b3d69c0d892d7f27a7934d6d9794a90606001612628565b6001600160a01b03841661273957604051632bfa23e760e11b8152600060048201526024016109dc565b6001600160a01b03851661276257604051626a0d4560e21b8152600060048201526024016109dc565b61276f8585858585613a26565b5050505050565b3464e8d4a51000146127f05760405162461bcd60e51b815260206004820152602d60248201527f596f75206e65656420746f2070617920302e303030303031206574686572207460448201527f6f206f70656e2061207061636b0000000000000000000000000000000000000060648201526084016109dc565b60006127fa61436d565b90506000612807826143be565b90506000612813614403565b9050600061282082614453565b9050600061282e8483615e3c565b905061276f81614490565b600080600b612849600185615c13565b8154811061285957612859615c26565b6000918252602091829020604080516101a081018252600c9093029091018054835260018101546001600160a01b0390811684860152600282015416838301526003810154606084015260048101546080840152600581015460a0840152600681015460c08401526007810180548351818702810187019094528084529394919360e08601939283018282801561290f57602002820191906000526020600020905b8154815260200190600101908083116128fb575b505050505081526020016008820180548060200260200160405190810160405280929190818152602001828054801561296757602002820191906000526020600020905b815481526020019060010190808311612953575b505050918352505060098201546001600160a01b039081166020830152600a8301549081166040830152600160a01b900460ff1615156060820152600b820180546080909201916129b790615bc3565b80601f01602080910402602001604051908101604052809291908181526020018280546129e390615bc3565b8015612a305780601f10612a0557610100808354040283529160200191612a30565b820191906000526020600020905b815481529060010190602001808311612a1357829003601f168201915b505050505081525050905080602001516001600160a01b03166108fc8260a001519081150290604051600060405180830381858888f19350505050158015612a7c573d6000803e3d6000fd5b506020808201516001600160a01b03166000908152600a82526040808220606085015183529092522054612ab1906001614589565b6020808301516001600160a01b039081166000908152600a8352604080822060608701518352909352828120939093558184015160c0850151925191169282156108fc02929190818181858888f19350505050158015612b15573d6000803e3d6000fd5b506040808201516001600160a01b03166000908152600a60209081528282206080850151835290522054612b4a906001614589565b6040808301516001600160a01b03166000908152600a602090815282822060808601518352815290829020929092558051808201909152600881527f63616e63656c65640000000000000000000000000000000000000000000000009181019190915261018082015280600b612bc1600186615c13565b81548110612bd157612bd1615c26565b60009182526020918290208351600c90920201908155828201516001820180546001600160a01b039283166001600160a01b0319918216179091556040850151600284018054919093169116179055606083015160038201556080830151600482015560a0830151600582015560c0830151600682015560e083015180519192612c6392600785019290910190615258565b506101008201518051612c80916008840191602090910190615258565b506101208201516009820180546001600160a01b0319166001600160a01b03928316179055610140830151600a83018054610160860151929093166001600160a81b031990931692909217600160a01b91151591909102179055610180820151600b820190612cef9082615d7c565b50600195945050505050565b600b5460609060009067ffffffffffffffff811115612d1c57612d1c615345565b604051908082528060200260200182016040528015612dde57816020015b612dcb604051806101a001604052806000815260200160006001600160a01b0316815260200160006001600160a01b0316815260200160008152602001600081526020016000815260200160008152602001606081526020016060815260200160006001600160a01b0316815260200160006001600160a01b03168152602001600015158152602001606081525090565b815260200190600190039081612d3a5790505b5090506000805b600b548110156130a257336001600160a01b0316600b8281548110612e0c57612e0c615c26565b600091825260209091206001600c9092020101546001600160a01b03161480612e6c5750336001600160a01b0316600b8281548110612e4d57612e4d615c26565b600091825260209091206002600c9092020101546001600160a01b0316145b1561309057600b8181548110612e8457612e84615c26565b6000918252602091829020604080516101a081018252600c9093029091018054835260018101546001600160a01b0390811684860152600282015416838301526003810154606084015260048101546080840152600581015460a0840152600681015460c08401526007810180548351818702810187019094528084529394919360e086019392830182828015612f3a57602002820191906000526020600020905b815481526020019060010190808311612f26575b5050505050815260200160088201805480602002602001604051908101604052809291908181526020018280548015612f9257602002820191906000526020600020905b815481526020019060010190808311612f7e575b505050918352505060098201546001600160a01b039081166020830152600a8301549081166040830152600160a01b900460ff1615156060820152600b82018054608090920191612fe290615bc3565b80601f016020809104026020016040519081016040528092919081815260200182805461300e90615bc3565b801561305b5780601f106130305761010080835404028352916020019161305b565b820191906000526020600020905b81548152906001019060200180831161303e57829003601f168201915b50505050508152505083838151811061307657613076615c26565b6020026020010181905250818061308c90615cb2565b9250505b8061309a81615cb2565b915050612de5565b509092915050565b336000908152600a602090815260408083208684529091528120546130d09060016145a5565b336000908152600a60209081526040808320888452909152812091909155600b6130fb600186615c13565b8154811061310b5761310b615c26565b6000918252602091829020604080516101a081018252600c9093029091018054835260018101546001600160a01b0390811684860152600282015416838301526003810154606084015260048101546080840152600581015460a0840152600681015460c08401526007810180548351818702810187019094528084529394919360e0860193928301828280156131c157602002820191906000526020600020905b8154815260200190600101908083116131ad575b505050505081526020016008820180548060200260200160405190810160405280929190818152602001828054801561321957602002820191906000526020600020905b815481526020019060010190808311613205575b505050918352505060098201546001600160a01b039081166020830152600a8301549081166040830152600160a01b900460ff1615156060820152600b8201805460809092019161326990615bc3565b80601f016020809104026020016040519081016040528092919081815260200182805461329590615bc3565b80156132e25780601f106132b7576101008083540402835291602001916132e2565b820191906000526020600020905b8154815290600101906020018083116132c557829003601f168201915b50505091909252505033604080840191909152608083018890523460c084015261010083018690528051808201909152600681526577616974503160d01b602082015261018083015250905080600b61333c600187615c13565b8154811061334c5761334c615c26565b60009182526020918290208351600c90920201908155828201516001820180546001600160a01b039283166001600160a01b0319918216179091556040850151600284018054919093169116179055606083015160038201556080830151600482015560a0830151600582015560c0830151600682015560e0830151805191926133de92600785019290910190615258565b5061010082015180516133fb916008840191602090910190615258565b506101208201516009820180546001600160a01b0319166001600160a01b03928316179055610140830151600a83018054610160860151929093166001600160a81b031990931692909217600160a01b91151591909102179055610180820151600b82019061346a9082615d7c565b506001979650505050505050565b600580546001600160a01b038381166001600160a01b0319831681179093556040519116919082907f8be0079c531659141344cd1fd0a4f28419497f9722a3daafe3b4186f6b6457e090600090a35050565b6001600160a01b0384166134f457604051632bfa23e760e11b8152600060048201526024016109dc565b60408051600180825260208201869052818301908152606082018590526080820190925290610cbf600087848487613a26565b6001600160a01b03821661356a576040517fced3e100000000000000000000000000000000000000000000000000000000008152600060048201526024016109dc565b6001600160a01b03838116600081815260016020908152604080832094871680845294825291829020805460ff191686151590811790915591519182527f17307eab39ab6107e8899845ad3d59bd9653f200f220920489ca2b5937696c31910160405180910390a3505050565b606060006135e4836145c4565b600101905060008167ffffffffffffffff81111561360457613604615345565b6040519080825280601f01601f19166020018201604052801561362e576020820181803683370190505b5090508181016020015b600019017f3031323334353637383961626364656600000000000000000000000000000000600a86061a8153600a850494508461363857509392505050565b336000908152600a6020908152604080832084845290915281205461369d9060016145a5565b336000908152600a602090815260408083208684529091528082209290925581516101a08101909252600b5490919081906136d9906001615e3c565b8152336020808301919091526000604080840182905260608401889052608084018290523460a085015260c084018290528051828152808401825260e0850152805182815292830190526101009092019150815260006020808301829052604080840183905260608085018490528151808301835260068152653bb0b4ba281960d11b81850152608095860152600b8054600181018255945285517f0175b7a638427703f0dbe7bb9bbf987a2551717b34e79f33b5b1008d1fa01db9600c909502948501908155868401517f0175b7a638427703f0dbe7bb9bbf987a2551717b34e79f33b5b1008d1fa01dba860180546001600160a01b03199081166001600160a01b0393841617909155938801517f0175b7a638427703f0dbe7bb9bbf987a2551717b34e79f33b5b1008d1fa01dbb870180549095169116179092558501517f0175b7a638427703f0dbe7bb9bbf987a2551717b34e79f33b5b1008d1fa01dbc840155928401517f0175b7a638427703f0dbe7bb9bbf987a2551717b34e79f33b5b1008d1fa01dbd83015560a08401517f0175b7a638427703f0dbe7bb9bbf987a2551717b34e79f33b5b1008d1fa01dbe83015560c08401517f0175b7a638427703f0dbe7bb9bbf987a2551717b34e79f33b5b1008d1fa01dbf83015560e0840151805194955085946138f4937f0175b7a638427703f0dbe7bb9bbf987a2551717b34e79f33b5b1008d1fa01dc001929190910190615258565b506101008201518051613911916008840191602090910190615258565b506101208201516009820180546001600160a01b0319166001600160a01b03928316179055610140830151600a83018054610160860151929093166001600160a81b031990931692909217600160a01b91151591909102179055610180820151600b8201906139809082615d7c565b5050600b54949350505050565b6001600160a01b0384166139b757604051632bfa23e760e11b8152600060048201526024016109dc565b6001600160a01b0385166139e057604051626a0d4560e21b8152600060048201526024016109dc565b60408051600180825260208201869052818301908152606082018590526080820190925290613a128787848487613a26565b50505050505050565b610c3c8383836146a6565b613a328585858561470e565b6001600160a01b0384161561276f5782513390600103613a6b5760208481015190840151613a6483898985858961471a565b5050610cbf565b610cbf81878787878761483e565b600080600b613a89600185615c13565b81548110613a9957613a99615c26565b6000918252602091829020604080516101a081018252600c9093029091018054835260018101546001600160a01b0390811684860152600282015416838301526003810154606084015260048101546080840152600581015460a0840152600681015460c08401526007810180548351818702810187019094528084529394919360e086019392830182828015613b4f57602002820191906000526020600020905b815481526020019060010190808311613b3b575b5050505050815260200160088201805480602002602001604051908101604052809291908181526020018280548015613ba757602002820191906000526020600020905b815481526020019060010190808311613b93575b505050918352505060098201546001600160a01b039081166020830152600a8301549081166040830152600160a01b900460ff1615156060820152600b82018054608090920191613bf790615bc3565b80601f0160208091040260200160405190810160405280929190818152602001828054613c2390615bc3565b8015613c705780601f10613c4557610100808354040283529160200191613c70565b820191906000526020600020905b815481529060010190602001808311613c5357829003601f168201915b5050509190925250505060e08101516101008201516060830151608084015160a085015160c086015195965093949293919290919060008080805b6003811015613d5a57888181518110613cc657613cc6615c26565b60200260200101518a8281518110613ce057613ce0615c26565b60200260200101511115613d005783613cf881615cb2565b945050613d48565b888181518110613d1257613d12615c26565b60200260200101518a8281518110613d2c57613d2c615c26565b60200260200101511015613d485782613d4481615cb2565b9350505b80613d5281615cb2565b915050613cab565b5081831115613d8c575060208901516001600160a01b039081166101208b015260408a0151166101408a0152856140d6565b81831015613dbd575060408901516001600160a01b039081166101208b015260208a0151166101408a0152846140d6565b60006101208b018190526101408b0181905260016101608c0152604080518082018252600481527f64726177000000000000000000000000000000000000000000000000000000006020808301919091526101808e01919091528c015190516001600160a01b03909116916108fc881502918891818181858888f19350505050158015613e4e573d6000803e3d6000fd5b5089604001516001600160a01b03166108fc859081150290604051600060405180830381858888f19350505050158015613e8c573d6000803e3d6000fd5b5089600b613e9b60018f615c13565b81548110613eab57613eab615c26565b60009182526020918290208351600c90920201908155828201516001820180546001600160a01b039283166001600160a01b0319918216179091556040850151600284018054919093169116179055606083015160038201556080830151600482015560a0830151600582015560c0830151600682015560e083015180519192613f3d92600785019290910190615258565b506101008201518051613f5a916008840191602090910190615258565b506101208201516009820180546001600160a01b0319166001600160a01b03928316179055610140830151600a83018054610160860151929093166001600160a81b031990931692909217600160a01b91151591909102179055610180820151600b820190613fc99082615d7c565b5050506020808b01516001600160a01b03166000908152600a8252604080822060608e015183529092522054614000906001614589565b600a60008c602001516001600160a01b03166001600160a01b0316815260200190815260200160002060008c606001518152602001908152602001600020819055506140946001600a60008d604001516001600160a01b03166001600160a01b0316815260200190815260200160002060008d6080015181526020019081526020016000205461458990919063ffffffff16565b6040808c01516001600160a01b03166000908152600a60209081528282206080909e015182529c909c52909a20999099555060019a9950505050505050505050565b60408051808201909152600481527f646f6e650000000000000000000000000000000000000000000000000000000060208201526101808b015289600b61411e60018f615c13565b8154811061412e5761412e615c26565b60009182526020918290208351600c90920201908155828201516001820180546001600160a01b039283166001600160a01b0319918216179091556040850151600284018054919093169116179055606083015160038201556080830151600482015560a0830151600582015560c0830151600682015560e0830151805191926141c092600785019290910190615258565b5061010082015180516141dd916008840191602090910190615258565b506101208201516009820180546001600160a01b0319166001600160a01b03928316179055610140830151600a83018054610160860151929093166001600160a81b031990931692909217600160a01b91151591909102179055610180820151600b82019061424c9082615d7c565b5050506020808b01516001600160a01b03166000908152600a8252604080822060608e015183529092522054614283906001614589565b600a60008c602001516001600160a01b03166001600160a01b0316815260200190815260200160002060008c606001518152602001908152602001600020819055506143176001600a60008d604001516001600160a01b03166001600160a01b0316815260200190815260200160002060008d6080015181526020019081526020016000205461458990919063ffffffff16565b6040808c01516001600160a01b03166000908152600a602090815282822060808f0151835290529081209190915561434f86866145a5565b905061435c8d8284614927565b9d9c50505050505050505050505050565b604080514260208201526bffffffffffffffffffffffff193360601b169181019190915244605482015260009081906074015b60408051601f19818403018152919052805160209091012092915050565b600060146143cd606484615e65565b10156143db57506002919050565b60326143e8606484615e65565b10156143f657506001919050565b506000919050565b919050565b600780546000918261441483615cb2565b9091555050600754604080514260208201526bffffffffffffffffffffffff193360601b169181019190915260548101919091526000906074016143a0565b6000600260036006546144669190615e79565b6144709084615e65565b61447b906001615e3c565b614486906003615e8d565b61081f9190615c13565b6144ac33826001604051806020016040528060008152506134ca565b60008181526008602090815260408083203384529091529020546144d19060016145a5565b60008281526008602090815260408083203384529091528120919091555b60008281526009602052604090205481101561455857600082815260096020526040902080543391908390811061452857614528615c26565b6000918252602090912001546001600160a01b031603614546575050565b8061455081615cb2565b9150506144ef565b5060009081526009602090815260408220805460018101825590835291200180546001600160a01b03191633179055565b60008282111561459b5761459b615ea4565b611b598284615c13565b6000806145b28385615e3c565b905083811015611b5957611b59615ea4565b6000807a184f03e93ff9f4daa797ed6e38ed64bf6a1f010000000000000000831061460d577a184f03e93ff9f4daa797ed6e38ed64bf6a1f010000000000000000830492506040015b6d04ee2d6d415b85acef81000000008310614639576d04ee2d6d415b85acef8100000000830492506020015b662386f26fc10000831061465757662386f26fc10000830492506010015b6305f5e100831061466f576305f5e100830492506008015b612710831061468357612710830492506004015b60648310614695576064830492506002015b600a831061081f5760010192915050565b6001600160a01b0383166146cf57604051626a0d4560e21b8152600060048201526024016109dc565b604080516001808252602082018590528183019081526060820184905260a0820190925260006080820181815291929161276f91879185908590613a26565b61097c84848484614e7b565b6001600160a01b0384163b15610cbf5760405163f23a6e6160e01b81526001600160a01b0385169063f23a6e619061475e9089908990889088908890600401615eba565b6020604051808303816000875af1925050508015614799575060408051601f3d908101601f1916820190925261479691810190615efd565b60015b614802573d8080156147c7576040519150601f19603f3d011682016040523d82523d6000602084013e6147cc565b606091505b5080516000036147fa57604051632bfa23e760e11b81526001600160a01b03861660048201526024016109dc565b805181602001fd5b6001600160e01b0319811663f23a6e6160e01b14613a1257604051632bfa23e760e11b81526001600160a01b03861660048201526024016109dc565b6001600160a01b0384163b15610cbf5760405163bc197c8160e01b81526001600160a01b0385169063bc197c81906148829089908990889088908890600401615f1a565b6020604051808303816000875af19250505080156148bd575060408051601f3d908101601f191682019092526148ba91810190615efd565b60015b6148eb573d8080156147c7576040519150601f19603f3d011682016040523d82523d6000602084013e6147cc565b6001600160e01b0319811663bc197c8160e01b14613a1257604051632bfa23e760e11b81526001600160a01b03861660048201526024016109dc565b600080600b614937600187615c13565b8154811061494757614947615c26565b6000918252602091829020604080516101a081018252600c9093029091018054835260018101546001600160a01b0390811684860152600282015416838301526003810154606084015260048101546080840152600581015460a0840152600681015460c08401526007810180548351818702810187019094528084529394919360e0860193928301828280156149fd57602002820191906000526020600020905b8154815260200190600101908083116149e9575b5050505050815260200160088201805480602002602001604051908101604052809291908181526020018280548015614a5557602002820191906000526020600020905b815481526020019060010190808311614a41575b505050918352505060098201546001600160a01b039081166020830152600a8301549081166040830152600160a01b900460ff1615156060820152600b82018054608090920191614aa590615bc3565b80601f0160208091040260200160405190810160405280929190818152602001828054614ad190615bc3565b8015614b1e5780601f10614af357610100808354040283529160200191614b1e565b820191906000526020600020905b815481529060010190602001808311614b0157829003601f168201915b50505050508152505090506000614b4a6064614b44600a88614fd590919063ffffffff16565b9061500d565b90506000805b600086815260096020526040902054811015614bda57600086815260086020908152604080832060099092528220805483919085908110614b9357614b93615c26565b60009182526020808320909101546001600160a01b031683528201929092526040019020549050614bc483826145a5565b9250508080614bd290615cb2565b915050614b50565b508015614ce3576000614bed838361500d565b905060005b600087815260096020526040902054811015614ce057600087815260086020908152604080832060099092528220805483919085908110614c3557614c35615c26565b60009182526020808320909101546001600160a01b031683528201929092526040018120549150614c668483614fd5565b60008a815260096020526040902080549192509084908110614c8a57614c8a615c26565b60009182526020822001546040516001600160a01b039091169183156108fc02918491818181858888f19350505050158015614cca573d6000803e3d6000fd5b5050508080614cd890615cb2565b915050614bf2565b50505b6000614cef8784614589565b6101208501516040519192506001600160a01b03169082156108fc029083906000818181858888f19350505050158015614d2d573d6000803e3d6000fd5b5083600b614d3c60018b615c13565b81548110614d4c57614d4c615c26565b60009182526020918290208351600c90920201908155828201516001820180546001600160a01b039283166001600160a01b0319918216179091556040850151600284018054919093169116179055606083015160038201556080830151600482015560a0830151600582015560c0830151600682015560e083015180519192614dde92600785019290910190615258565b506101008201518051614dfb916008840191602090910190615258565b506101208201516009820180546001600160a01b0319166001600160a01b03928316179055610140830151600a83018054610160860151929093166001600160a81b031990931692909217600160a01b91151591909102179055610180820151600b820190614e6a9082615d7c565b5060019a9950505050505050505050565b614e8784848484615022565b6001600160a01b038416614f3a576000805b8351811015614f20576000838281518110614eb657614eb6615c26565b602002602001015190508060036000878581518110614ed757614ed7615c26565b602002602001015181526020019081526020016000206000828254614efc9190615e3c565b90915550614f0c90508184615e3c565b92505080614f1990615cb2565b9050614e99565b508060046000828254614f339190615e3c565b9091555050505b6001600160a01b03831661097c576000805b8351811015614fc4576000838281518110614f6957614f69615c26565b602002602001015190508060036000878581518110614f8a57614f8a615c26565b602002602001015181526020019081526020016000206000828254039250508190555080830192505080614fbd90615cb2565b9050614f4c565b506004805491909103905550505050565b600082600003614fe75750600061081f565b6000614ff38385615e8d565b9050826150008583615e79565b14611b5957611b59615ea4565b60008061501a8385615e79565b949350505050565b80518251146150515781518151604051635b05999160e01b8152600481019290925260248201526044016109dc565b3360005b8351811015615179576020818102858101820151908501909101516001600160a01b03881615615121576000828152602081815260408083206001600160a01b038c168452909152902054818110156150fa576040517f03dee4c50000000000000000000000000000000000000000000000000000000081526001600160a01b038a1660048201526024810182905260448101839052606481018490526084016109dc565b6000838152602081815260408083206001600160a01b038d16845290915290209082900390555b6001600160a01b03871615615166576000828152602081815260408083206001600160a01b038b16845290915281208054839290615160908490615e3c565b90915550505b50508061517290615cb2565b9050615055565b5082516001036151fa5760208301516000906020840151909150856001600160a01b0316876001600160a01b0316846001600160a01b03167fc3d58168c5ae7397731d063d5bbf3d657854427343f4c083240f7aacaa2d0f6285856040516151eb929190918252602082015260400190565b60405180910390a4505061276f565b836001600160a01b0316856001600160a01b0316826001600160a01b03167f4a39dc06d4c0dbc64b70af90fd698a233a518aa5d07e595d983b8c0526c8f7fb8686604051615249929190615f78565b60405180910390a45050505050565b828054828255906000526020600020908101928215615293579160200282015b82811115615293578251825591602001919060010190615278565b5061529f9291506152a3565b5090565b5b8082111561529f57600081556001016152a4565b6000602082840312156152ca57600080fd5b5035919050565b80356001600160a01b03811681146143fe57600080fd5b600080604083850312156152fb57600080fd5b615304836152d1565b946020939093013593505050565b6001600160e01b0319811681146108d157600080fd5b60006020828403121561533a57600080fd5b8135611b5981615312565b634e487b7160e01b600052604160045260246000fd5b604051601f8201601f1916810167ffffffffffffffff8111828210171561538457615384615345565b604052919050565b600067ffffffffffffffff8311156153a6576153a6615345565b6153b9601f8401601f191660200161535b565b90508281528383830111156153cd57600080fd5b828260208301376000602084830101529392505050565b6000602082840312156153f657600080fd5b813567ffffffffffffffff81111561540d57600080fd5b8201601f8101841361541e57600080fd5b61501a8482356020840161538c565b60005b83811015615448578181015183820152602001615430565b50506000910152565b6000815180845261546981602086016020860161542d565b601f01601f19169290920160200192915050565b602081526000611b596020830184615451565b600067ffffffffffffffff8211156154aa576154aa615345565b5060051b60200190565b600082601f8301126154c557600080fd5b813560206154da6154d583615490565b61535b565b82815260059290921b840181019181810190868411156154f957600080fd5b8286015b8481101561551457803583529183019183016154fd565b509695505050505050565b600082601f83011261553057600080fd5b611b598383356020850161538c565b6000806000806080858703121561555557600080fd5b61555e856152d1565b9350602085013567ffffffffffffffff8082111561557b57600080fd5b615587888389016154b4565b9450604087013591508082111561559d57600080fd5b6155a9888389016154b4565b935060608701359150808211156155bf57600080fd5b506155cc8782880161551f565b91505092959194509250565b600080604083850312156155eb57600080fd5b82359150602083013567ffffffffffffffff81111561560957600080fd5b615615858286016154b4565b9150509250929050565b600080600080600060a0868803121561563757600080fd5b615640866152d1565b945061564e602087016152d1565b9350604086013567ffffffffffffffff8082111561566b57600080fd5b61567789838a016154b4565b9450606088013591508082111561568d57600080fd5b61569989838a016154b4565b935060808801359150808211156156af57600080fd5b506156bc8882890161551f565b9150509295509295909350565b600080604083850312156156dc57600080fd5b50508035926020909101359150565b600080604083850312156156fe57600080fd5b823567ffffffffffffffff8082111561571657600080fd5b818501915085601f83011261572a57600080fd5b8135602061573a6154d583615490565b82815260059290921b8401810191818101908984111561575957600080fd5b948201945b8386101561577e5761576f866152d1565b8252948201949082019061575e565b9650508601359250508082111561579457600080fd5b50615615858286016154b4565b600081518084526020808501945080840160005b838110156157d1578151875295820195908201906001016157b5565b509495945050505050565b602081526000611b5960208301846157a1565b60006101a082518452602083015161581260208601826001600160a01b03169052565b50604083015161582d60408601826001600160a01b03169052565b50606083015160608501526080830151608085015260a083015160a085015260c083015160c085015260e08301518160e086015261586d828601826157a1565b915050610100808401518583038287015261588883826157a1565b92505050610120808401516158a7828701826001600160a01b03169052565b5050610140838101516001600160a01b0316908501526101608084015115159085015261018080840151858303828701526158e28382615451565b9695505050505050565b6000602080830181845280855180835260408601915060408160051b870101925083870160005b8281101561594157603f1988860301845261592f8583516157ef565b94509285019290850190600101615913565b5092979650505050505050565b60006101608d83526001600160a01b03808e166020850152808d1660408501528b60608501528a60808501528960a08501528860c085015280881660e085015280871661010085015250841515610120840152806101408401526159b481840185615451565b9e9d5050505050505050505050505050565b6000806000606084860312156159db57600080fd5b8335925060208401359150604084013567ffffffffffffffff811115615a0057600080fd5b615a0c868287016154b4565b9150509250925092565b602081526000611b5960208301846157ef565b60008060008060808587031215615a3f57600080fd5b615a48856152d1565b93506020850135925060408501359150606085013567ffffffffffffffff811115615a7257600080fd5b6155cc8782880161551f565b600060208284031215615a9057600080fd5b611b59826152d1565b60008060408385031215615aac57600080fd5b615ab5836152d1565b915060208301358015158114615aca57600080fd5b809150509250929050565b60008060408385031215615ae857600080fd5b82359150615af8602084016152d1565b90509250929050565b60008060408385031215615b1457600080fd5b615b1d836152d1565b9150615af8602084016152d1565b600080600080600060a08688031215615b4357600080fd5b615b4c866152d1565b9450615b5a602087016152d1565b93506040860135925060608601359150608086013567ffffffffffffffff811115615b8457600080fd5b6156bc8882890161551f565b600080600060608486031215615ba557600080fd5b615bae846152d1565b95602085013595506040909401359392505050565b600181811c90821680615bd757607f821691505b602082108103615bf757634e487b7160e01b600052602260045260246000fd5b50919050565b634e487b7160e01b600052601160045260246000fd5b8181038181111561081f5761081f615bfd565b634e487b7160e01b600052603260045260246000fd5b6000808354615c4a81615bc3565b60018281168015615c625760018114615c7757615ca6565b60ff1984168752821515830287019450615ca6565b8760005260208060002060005b85811015615c9d5781548a820152908401908201615c84565b50505082870194505b50929695505050505050565b600060018201615cc457615cc4615bfd565b5060010190565b7f687474703a2f2f35312e33382e3139302e3133343a313135362f6170692f636181527f7264732f00000000000000000000000000000000000000000000000000000000602082015260008251615d2981602485016020870161542d565b9190910160240192915050565b601f821115610c3c57600081815260208120601f850160051c81016020861015615d5d5750805b601f850160051c820191505b81811015610cbf57828155600101615d69565b815167ffffffffffffffff811115615d9657615d96615345565b615daa81615da48454615bc3565b84615d36565b602080601f831160018114615ddf5760008415615dc75750858301515b600019600386901b1c1916600185901b178555610cbf565b600085815260208120601f198616915b82811015615e0e57888601518255948401946001909101908401615def565b5085821015615e2c5787850151600019600388901b60f8161c191681555b5050505050600190811b01905550565b8082018082111561081f5761081f615bfd565b634e487b7160e01b600052601260045260246000fd5b600082615e7457615e74615e4f565b500690565b600082615e8857615e88615e4f565b500490565b808202811582820484141761081f5761081f615bfd565b634e487b7160e01b600052600160045260246000fd5b60006001600160a01b03808816835280871660208401525084604083015283606083015260a06080830152615ef260a0830184615451565b979650505050505050565b600060208284031215615f0f57600080fd5b8151611b5981615312565b60006001600160a01b03808816835280871660208401525060a06040830152615f4660a08301866157a1565b8281036060840152615f5881866157a1565b90508281036080840152615f6c8185615451565b98975050505050505050565b604081526000615f8b60408301856157a1565b8281036020840152615f9d81856157a1565b9594505050505056fea2646970667358221220afdcd443afaef068a3c4c4e1ec64418cabd853e4c1b52c79af4a4d5c2fb7506264736f6c63430008140033687474703a2f2f35312e33382e3139302e3133343a313135352f63617264732f7b69647d2e6a736f6e",
  "linkReferences": {},
  "deployedLinkReferences": {}
}