{
  "_format": "hh-sol-artifact-1",
  "contractName": "CardHelper",
  "sourceName": "contracts/cardhelper.sol",
  "abi": [
    {
      "inputs": [
        {
          "internalType": "address",
          "name": "sender",
          "type": "address"
        },
        {
          "internalType": "uint256",
          "name": "balance",
          "type": "uint256"
        },
        {
          "internalType": "uint256",
          "name": "needed",
          "type": "uint256"
        },
        {
          "internalType": "uint256",
          "name": "tokenId",
          "type": "uint256"
        }
      ],
      "name": "ERC1155InsufficientBalance",
      "type": "error"
    },
    {
      "inputs": [
        {
          "internalType": "address",
          "name": "approver",
          "type": "address"
        }
      ],
      "name": "ERC1155InvalidApprover",
      "type": "error"
    },
    {
      "inputs": [
        {
          "internalType": "uint256",
          "name": "idsLength",
          "type": "uint256"
        },
        {
          "internalType": "uint256",
          "name": "valuesLength",
          "type": "uint256"
        }
      ],
      "name": "ERC1155InvalidArrayLength",
      "type": "error"
    },
    {
      "inputs": [
        {
          "internalType": "address",
          "name": "operator",
          "type": "address"
        }
      ],
      "name": "ERC1155InvalidOperator",
      "type": "error"
    },
    {
      "inputs": [
        {
          "internalType": "address",
          "name": "receiver",
          "type": "address"
        }
      ],
      "name": "ERC1155InvalidReceiver",
      "type": "error"
    },
    {
      "inputs": [
        {
          "internalType": "address",
          "name": "sender",
          "type": "address"
        }
      ],
      "name": "ERC1155InvalidSender",
      "type": "error"
    },
    {
      "inputs": [
        {
          "internalType": "address",
          "name": "operator",
          "type": "address"
        },
        {
          "internalType": "address",
          "name": "owner",
          "type": "address"
        }
      ],
      "name": "ERC1155MissingApprovalForAll",
      "type": "error"
    },
    {
      "inputs": [
        {
          "internalType": "address",
          "name": "owner",
          "type": "address"
        }
      ],
      "name": "OwnableInvalidOwner",
      "type": "error"
    },
    {
      "inputs": [
        {
          "internalType": "address",
          "name": "account",
          "type": "address"
        }
      ],
      "name": "OwnableUnauthorizedAccount",
      "type": "error"
    },
    {
      "anonymous": false,
      "inputs": [
        {
          "indexed": true,
          "internalType": "address",
          "name": "account",
          "type": "address"
        },
        {
          "indexed": true,
          "internalType": "address",
          "name": "operator",
          "type": "address"
        },
        {
          "indexed": false,
          "internalType": "bool",
          "name": "approved",
          "type": "bool"
        }
      ],
      "name": "ApprovalForAll",
      "type": "event"
    },
    {
      "anonymous": false,
      "inputs": [
        {
          "indexed": false,
          "internalType": "uint256",
          "name": "newCardIdMax",
          "type": "uint256"
        }
      ],
      "name": "CardIdMaxChanged",
      "type": "event"
    },
    {
      "anonymous": false,
      "inputs": [
        {
          "indexed": false,
          "internalType": "uint256",
          "name": "cardId",
          "type": "uint256"
        },
        {
          "indexed": false,
          "internalType": "address",
          "name": "owner",
          "type": "address"
        }
      ],
      "name": "CardOpened",
      "type": "event"
    },
    {
      "anonymous": false,
      "inputs": [
        {
          "indexed": true,
          "internalType": "address",
          "name": "previousOwner",
          "type": "address"
        },
        {
          "indexed": true,
          "internalType": "address",
          "name": "newOwner",
          "type": "address"
        }
      ],
      "name": "OwnershipTransferred",
      "type": "event"
    },
    {
      "anonymous": false,
      "inputs": [
        {
          "indexed": true,
          "internalType": "address",
          "name": "operator",
          "type": "address"
        },
        {
          "indexed": true,
          "internalType": "address",
          "name": "from",
          "type": "address"
        },
        {
          "indexed": true,
          "internalType": "address",
          "name": "to",
          "type": "address"
        },
        {
          "indexed": false,
          "internalType": "uint256[]",
          "name": "ids",
          "type": "uint256[]"
        },
        {
          "indexed": false,
          "internalType": "uint256[]",
          "name": "values",
          "type": "uint256[]"
        }
      ],
      "name": "TransferBatch",
      "type": "event"
    },
    {
      "anonymous": false,
      "inputs": [
        {
          "indexed": true,
          "internalType": "address",
          "name": "operator",
          "type": "address"
        },
        {
          "indexed": true,
          "internalType": "address",
          "name": "from",
          "type": "address"
        },
        {
          "indexed": true,
          "internalType": "address",
          "name": "to",
          "type": "address"
        },
        {
          "indexed": false,
          "internalType": "uint256",
          "name": "id",
          "type": "uint256"
        },
        {
          "indexed": false,
          "internalType": "uint256",
          "name": "value",
          "type": "uint256"
        }
      ],
      "name": "TransferSingle",
      "type": "event"
    },
    {
      "anonymous": false,
      "inputs": [
        {
          "indexed": false,
          "internalType": "string",
          "name": "value",
          "type": "string"
        },
        {
          "indexed": true,
          "internalType": "uint256",
          "name": "id",
          "type": "uint256"
        }
      ],
      "name": "URI",
      "type": "event"
    },
    {
      "inputs": [
        {
          "internalType": "address",
          "name": "account",
          "type": "address"
        },
        {
          "internalType": "uint256",
          "name": "id",
          "type": "uint256"
        }
      ],
      "name": "balanceOf",
      "outputs": [
        {
          "internalType": "uint256",
          "name": "",
          "type": "uint256"
        }
      ],
      "stateMutability": "view",
      "type": "function"
    },
    {
      "inputs": [
        {
          "internalType": "address[]",
          "name": "accounts",
          "type": "address[]"
        },
        {
          "internalType": "uint256[]",
          "name": "ids",
          "type": "uint256[]"
        }
      ],
      "name": "balanceOfBatch",
      "outputs": [
        {
          "internalType": "uint256[]",
          "name": "",
          "type": "uint256[]"
        }
      ],
      "stateMutability": "view",
      "type": "function"
    },
    {
      "inputs": [
        {
          "internalType": "address",
          "name": "from",
          "type": "address"
        },
        {
          "internalType": "uint256",
          "name": "id",
          "type": "uint256"
        },
        {
          "internalType": "uint256",
          "name": "value",
          "type": "uint256"
        }
      ],
      "name": "burn",
      "outputs": [],
      "stateMutability": "nonpayable",
      "type": "function"
    },
    {
      "inputs": [],
      "name": "cardIdMax",
      "outputs": [
        {
          "internalType": "uint256",
          "name": "",
          "type": "uint256"
        }
      ],
      "stateMutability": "view",
      "type": "function"
    },
    {
      "inputs": [
        {
          "internalType": "uint256",
          "name": "_cardIdMax",
          "type": "uint256"
        }
      ],
      "name": "changeCardIdMax",
      "outputs": [],
      "stateMutability": "nonpayable",
      "type": "function"
    },
    {
      "inputs": [
        {
          "internalType": "uint256",
          "name": "id",
          "type": "uint256"
        }
      ],
      "name": "exists",
      "outputs": [
        {
          "internalType": "bool",
          "name": "",
          "type": "bool"
        }
      ],
      "stateMutability": "view",
      "type": "function"
    },
    {
      "inputs": [
        {
          "internalType": "address",
          "name": "_from",
          "type": "address"
        }
      ],
      "name": "getAllBalance",
      "outputs": [
        {
          "internalType": "uint256[]",
          "name": "",
          "type": "uint256[]"
        }
      ],
      "stateMutability": "view",
      "type": "function"
    },
    {
      "inputs": [
        {
          "internalType": "uint256",
          "name": "_id",
          "type": "uint256"
        },
        {
          "internalType": "address",
          "name": "_from",
          "type": "address"
        }
      ],
      "name": "getBalanceOf",
      "outputs": [
        {
          "internalType": "uint256",
          "name": "",
          "type": "uint256"
        }
      ],
      "stateMutability": "view",
      "type": "function"
    },
    {
      "inputs": [],
      "name": "getCardIdMax",
      "outputs": [
        {
          "internalType": "uint256",
          "name": "",
          "type": "uint256"
        }
      ],
      "stateMutability": "view",
      "type": "function"
    },
    {
      "inputs": [],
      "name": "getNewOpenedCards",
      "outputs": [
        {
          "internalType": "uint256",
          "name": "",
          "type": "uint256"
        }
      ],
      "stateMutability": "view",
      "type": "function"
    },
    {
      "inputs": [
        {
          "internalType": "address",
          "name": "account",
          "type": "address"
        },
        {
          "internalType": "address",
          "name": "operator",
          "type": "address"
        }
      ],
      "name": "isApprovedForAll",
      "outputs": [
        {
          "internalType": "bool",
          "name": "",
          "type": "bool"
        }
      ],
      "stateMutability": "view",
      "type": "function"
    },
    {
      "inputs": [
        {
          "internalType": "address",
          "name": "account",
          "type": "address"
        },
        {
          "internalType": "uint256",
          "name": "id",
          "type": "uint256"
        },
        {
          "internalType": "uint256",
          "name": "amount",
          "type": "uint256"
        },
        {
          "internalType": "bytes",
          "name": "data",
          "type": "bytes"
        }
      ],
      "name": "mint",
      "outputs": [],
      "stateMutability": "nonpayable",
      "type": "function"
    },
    {
      "inputs": [
        {
          "internalType": "address",
          "name": "to",
          "type": "address"
        },
        {
          "internalType": "uint256[]",
          "name": "ids",
          "type": "uint256[]"
        },
        {
          "internalType": "uint256[]",
          "name": "amounts",
          "type": "uint256[]"
        },
        {
          "internalType": "bytes",
          "name": "data",
          "type": "bytes"
        }
      ],
      "name": "mintBatch",
      "outputs": [],
      "stateMutability": "nonpayable",
      "type": "function"
    },
    {
      "inputs": [
        {
          "internalType": "address",
          "name": "",
          "type": "address"
        }
      ],
      "name": "newOpenedCards",
      "outputs": [
        {
          "internalType": "uint256",
          "name": "",
          "type": "uint256"
        }
      ],
      "stateMutability": "view",
      "type": "function"
    },
    {
      "inputs": [],
      "name": "nonce",
      "outputs": [
        {
          "internalType": "uint256",
          "name": "",
          "type": "uint256"
        }
      ],
      "stateMutability": "view",
      "type": "function"
    },
    {
      "inputs": [],
      "name": "openPack",
      "outputs": [],
      "stateMutability": "payable",
      "type": "function"
    },
    {
      "inputs": [],
      "name": "owner",
      "outputs": [
        {
          "internalType": "address",
          "name": "",
          "type": "address"
        }
      ],
      "stateMutability": "view",
      "type": "function"
    },
    {
      "inputs": [],
      "name": "renounceOwnership",
      "outputs": [],
      "stateMutability": "nonpayable",
      "type": "function"
    },
    {
      "inputs": [
        {
          "internalType": "address",
          "name": "from",
          "type": "address"
        },
        {
          "internalType": "address",
          "name": "to",
          "type": "address"
        },
        {
          "internalType": "uint256[]",
          "name": "ids",
          "type": "uint256[]"
        },
        {
          "internalType": "uint256[]",
          "name": "values",
          "type": "uint256[]"
        },
        {
          "internalType": "bytes",
          "name": "data",
          "type": "bytes"
        }
      ],
      "name": "safeBatchTransferFrom",
      "outputs": [],
      "stateMutability": "nonpayable",
      "type": "function"
    },
    {
      "inputs": [
        {
          "internalType": "address",
          "name": "from",
          "type": "address"
        },
        {
          "internalType": "address",
          "name": "to",
          "type": "address"
        },
        {
          "internalType": "uint256",
          "name": "id",
          "type": "uint256"
        },
        {
          "internalType": "uint256",
          "name": "value",
          "type": "uint256"
        },
        {
          "internalType": "bytes",
          "name": "data",
          "type": "bytes"
        }
      ],
      "name": "safeTransferFrom",
      "outputs": [],
      "stateMutability": "nonpayable",
      "type": "function"
    },
    {
      "inputs": [
        {
          "internalType": "address",
          "name": "operator",
          "type": "address"
        },
        {
          "internalType": "bool",
          "name": "approved",
          "type": "bool"
        }
      ],
      "name": "setApprovalForAll",
      "outputs": [],
      "stateMutability": "nonpayable",
      "type": "function"
    },
    {
      "inputs": [
        {
          "internalType": "string",
          "name": "newuri",
          "type": "string"
        }
      ],
      "name": "setURI",
      "outputs": [],
      "stateMutability": "nonpayable",
      "type": "function"
    },
    {
      "inputs": [
        {
          "internalType": "bytes4",
          "name": "interfaceId",
          "type": "bytes4"
        }
      ],
      "name": "supportsInterface",
      "outputs": [
        {
          "internalType": "bool",
          "name": "",
          "type": "bool"
        }
      ],
      "stateMutability": "view",
      "type": "function"
    },
    {
      "inputs": [],
      "name": "totalSupply",
      "outputs": [
        {
          "internalType": "uint256",
          "name": "",
          "type": "uint256"
        }
      ],
      "stateMutability": "view",
      "type": "function"
    },
    {
      "inputs": [
        {
          "internalType": "uint256",
          "name": "id",
          "type": "uint256"
        }
      ],
      "name": "totalSupply",
      "outputs": [
        {
          "internalType": "uint256",
          "name": "",
          "type": "uint256"
        }
      ],
      "stateMutability": "view",
      "type": "function"
    },
    {
      "inputs": [
        {
          "internalType": "address",
          "name": "newOwner",
          "type": "address"
        }
      ],
      "name": "transferOwnership",
      "outputs": [],
      "stateMutability": "nonpayable",
      "type": "function"
    },
    {
      "inputs": [
        {
          "internalType": "uint256",
          "name": "",
          "type": "uint256"
        }
      ],
      "name": "uri",
      "outputs": [
        {
          "internalType": "string",
          "name": "",
          "type": "string"
        }
      ],
      "stateMutability": "view",
      "type": "function"
    }
  ],
  "bytecode": "0x6080604052600360065560006007553480156200001b57600080fd5b503360405180606001604052806024815260200162003b49602491396200004881620000d660201b60201c565b50600073ffffffffffffffffffffffffffffffffffffffff168173ffffffffffffffffffffffffffffffffffffffff1603620000be5760006040517f1e4fbdf7000000000000000000000000000000000000000000000000000000008152600401620000b59190620001f6565b60405180910390fd5b620000cf81620000eb60201b60201c565b5062000574565b8060029081620000e791906200048d565b5050565b6000600560009054906101000a900473ffffffffffffffffffffffffffffffffffffffff16905081600560006101000a81548173ffffffffffffffffffffffffffffffffffffffff021916908373ffffffffffffffffffffffffffffffffffffffff1602179055508173ffffffffffffffffffffffffffffffffffffffff168173ffffffffffffffffffffffffffffffffffffffff167f8be0079c531659141344cd1fd0a4f28419497f9722a3daafe3b4186f6b6457e060405160405180910390a35050565b600073ffffffffffffffffffffffffffffffffffffffff82169050919050565b6000620001de82620001b1565b9050919050565b620001f081620001d1565b82525050565b60006020820190506200020d6000830184620001e5565b92915050565b600081519050919050565b7f4e487b7100000000000000000000000000000000000000000000000000000000600052604160045260246000fd5b7f4e487b7100000000000000000000000000000000000000000000000000000000600052602260045260246000fd5b600060028204905060018216806200029557607f821691505b602082108103620002ab57620002aa6200024d565b5b50919050565b60008190508160005260206000209050919050565b60006020601f8301049050919050565b600082821b905092915050565b600060088302620003157fffffffffffffffffffffffffffffffffffffffffffffffffffffffffffffffff82620002d6565b620003218683620002d6565b95508019841693508086168417925050509392505050565b6000819050919050565b6000819050919050565b60006200036e62000368620003628462000339565b62000343565b62000339565b9050919050565b6000819050919050565b6200038a836200034d565b620003a2620003998262000375565b848454620002e3565b825550505050565b600090565b620003b9620003aa565b620003c68184846200037f565b505050565b5b81811015620003ee57620003e2600082620003af565b600181019050620003cc565b5050565b601f8211156200043d576200040781620002b1565b6200041284620002c6565b8101602085101562000422578190505b6200043a6200043185620002c6565b830182620003cb565b50505b505050565b600082821c905092915050565b6000620004626000198460080262000442565b1980831691505092915050565b60006200047d83836200044f565b9150826002028217905092915050565b620004988262000213565b67ffffffffffffffff811115620004b457620004b36200021e565b5b620004c082546200027c565b620004cd828285620003f2565b600060209050601f831160018114620005055760008415620004f0578287015190505b620004fc85826200046f565b8655506200056c565b601f1984166200051586620002b1565b60005b828110156200053f5784890151825560018201915060208501945060208101905062000518565b868310156200055f57848901516200055b601f8916826200044f565b8355505b6001600288020188555050505b505050505050565b6135c580620005846000396000f3fe60806040526004361061019a5760003560e01c8063731133e9116100ec578063bfa0af6d1161008a578063f242432a11610064578063f242432a146105dd578063f2fde38b14610606578063f5298aca1461062f578063f9ae5115146106585761019a565b8063bfa0af6d14610538578063ddad87ef14610575578063e985e9c5146105a05761019a565b80639347fb3d116100c65780639347fb3d1461046a578063a22cb465146104a7578063affed0e0146104d0578063bd85b039146104fb5761019a565b8063731133e9146103eb5780638da5cb5b146104145780638da7722a1461043f5761019a565b80631f7fdffa116101595780634673f332116101335780634673f3321461032f5780634e1273f41461035a5780634f558e7914610397578063715018a6146103d45761019a565b80631f7fdffa146102d35780632eb2c2d6146102fc5780633c4ea385146103255761019a565b806266fd0d1461019f578062fdd58e146101c857806301ffc9a71461020557806302fe5305146102425780630e89341c1461026b57806318160ddd146102a8575b600080fd5b3480156101ab57600080fd5b506101c660048036038101906101c191906121aa565b610695565b005b3480156101d457600080fd5b506101ef60048036038101906101ea9190612235565b6106de565b6040516101fc9190612284565b60405180910390f35b34801561021157600080fd5b5061022c600480360381019061022791906122f7565b610738565b604051610239919061233f565b60405180910390f35b34801561024e57600080fd5b50610269600480360381019061026491906124a0565b61081a565b005b34801561027757600080fd5b50610292600480360381019061028d91906121aa565b61082e565b60405161029f9190612568565b60405180910390f35b3480156102b457600080fd5b506102bd6108c2565b6040516102ca9190612284565b60405180910390f35b3480156102df57600080fd5b506102fa60048036038101906102f591906126f3565b6108cc565b005b34801561030857600080fd5b50610323600480360381019061031e91906127ae565b6108e6565b005b61032d61098e565b005b34801561033b57600080fd5b50610344610a60565b6040516103519190612284565b60405180910390f35b34801561036657600080fd5b50610381600480360381019061037c9190612940565b610a6a565b60405161038e9190612a76565b60405180910390f35b3480156103a357600080fd5b506103be60048036038101906103b991906121aa565b610b79565b6040516103cb919061233f565b60405180910390f35b3480156103e057600080fd5b506103e9610b8d565b005b3480156103f757600080fd5b50610412600480360381019061040d9190612a98565b610ba1565b005b34801561042057600080fd5b50610429610bbb565b6040516104369190612b2a565b60405180910390f35b34801561044b57600080fd5b50610454610be5565b6040516104619190612284565b60405180910390f35b34801561047657600080fd5b50610491600480360381019061048c9190612b45565b610beb565b60405161049e9190612a76565b60405180910390f35b3480156104b357600080fd5b506104ce60048036038101906104c99190612b9e565b610cb1565b005b3480156104dc57600080fd5b506104e5610cc7565b6040516104f29190612284565b60405180910390f35b34801561050757600080fd5b50610522600480360381019061051d91906121aa565b610ccd565b60405161052f9190612284565b60405180910390f35b34801561054457600080fd5b5061055f600480360381019061055a9190612bde565b610cea565b60405161056c9190612284565b60405180910390f35b34801561058157600080fd5b5061058a610cfe565b6040516105979190612284565b60405180910390f35b3480156105ac57600080fd5b506105c760048036038101906105c29190612c1e565b610d45565b6040516105d4919061233f565b60405180910390f35b3480156105e957600080fd5b5061060460048036038101906105ff9190612c5e565b610dd9565b005b34801561061257600080fd5b5061062d60048036038101906106289190612b45565b610e81565b005b34801561063b57600080fd5b5061065660048036038101906106519190612cf5565b610f07565b005b34801561066457600080fd5b5061067f600480360381019061067a9190612b45565b610f17565b60405161068c9190612284565b60405180910390f35b61069d610f2f565b806006819055507f2ca7491c41b198f60823c9da02ca440dca6bfb5d6cd4ae0df705cc35de252fb3816040516106d39190612284565b60405180910390a150565b600080600083815260200190815260200160002060008473ffffffffffffffffffffffffffffffffffffffff1673ffffffffffffffffffffffffffffffffffffffff16815260200190815260200160002054905092915050565b60007fd9b67a26000000000000000000000000000000000000000000000000000000007bffffffffffffffffffffffffffffffffffffffffffffffffffffffff1916827bffffffffffffffffffffffffffffffffffffffffffffffffffffffff1916148061080357507f0e89341c000000000000000000000000000000000000000000000000000000007bffffffffffffffffffffffffffffffffffffffffffffffffffffffff1916827bffffffffffffffffffffffffffffffffffffffffffffffffffffffff1916145b80610813575061081282610fb6565b5b9050919050565b610822610f2f565b61082b81611020565b50565b60606002805461083d90612d77565b80601f016020809104026020016040519081016040528092919081815260200182805461086990612d77565b80156108b65780601f1061088b576101008083540402835291602001916108b6565b820191906000526020600020905b81548152906001019060200180831161089957829003601f168201915b50505050509050919050565b6000600454905090565b6108d4610f2f565b6108e084848484611033565b50505050565b60006108f06110b9565b90508073ffffffffffffffffffffffffffffffffffffffff168673ffffffffffffffffffffffffffffffffffffffff161415801561093557506109338682610d45565b155b156109795780866040517fe237d922000000000000000000000000000000000000000000000000000000008152600401610970929190612da8565b60405180910390fd5b61098686868686866110c1565b505050505050565b64e8d4a5100034146109d5576040517f08c379a00000000000000000000000000000000000000000000000000000000081526004016109cc90612e43565b60405180910390fd5b60006109df6111b9565b905060006109ec826111f3565b905060006109f861123b565b90506000610a0582611290565b905060008382610a159190612e92565b9050610a20816112d7565b7f0119f10948439a326f3487128ca38801f97abfce95da3807c72ed5731577864d8133604051610a51929190612ec6565b60405180910390a15050505050565b6000600654905090565b60608151835114610ab657815183516040517f5b059991000000000000000000000000000000000000000000000000000000008152600401610aad929190612eef565b60405180910390fd5b6000835167ffffffffffffffff811115610ad357610ad2612375565b5b604051908082528060200260200182016040528015610b015781602001602082028036833780820191505090505b50905060005b8451811015610b6e57610b3e610b2682876112f690919063ffffffff16565b610b39838761130a90919063ffffffff16565b6106de565b828281518110610b5157610b50612f18565b5b60200260200101818152505080610b6790612f47565b9050610b07565b508091505092915050565b600080610b8583610ccd565b119050919050565b610b95610f2f565b610b9f600061131e565b565b610ba9610f2f565b610bb5848484846113e4565b50505050565b6000600560009054906101000a900473ffffffffffffffffffffffffffffffffffffffff16905090565b60065481565b6060600060065467ffffffffffffffff811115610c0b57610c0a612375565b5b604051908082528060200260200182016040528015610c395781602001602082028036833780820191505090505b5090506000600190505b6006548111610ca7576000610c5885836106de565b1115610c9457610c6884826106de565b82600183610c769190612f8f565b81518110610c8757610c86612f18565b5b6020026020010181815250505b8080610c9f90612f47565b915050610c43565b5080915050919050565b610cc3610cbc6110b9565b838361147d565b5050565b60075481565b600060036000838152602001908152602001600020549050919050565b6000610cf682846106de565b905092915050565b6000600860003373ffffffffffffffffffffffffffffffffffffffff1673ffffffffffffffffffffffffffffffffffffffff16815260200190815260200160002054905090565b6000600160008473ffffffffffffffffffffffffffffffffffffffff1673ffffffffffffffffffffffffffffffffffffffff16815260200190815260200160002060008373ffffffffffffffffffffffffffffffffffffffff1673ffffffffffffffffffffffffffffffffffffffff16815260200190815260200160002060009054906101000a900460ff16905092915050565b6000610de36110b9565b90508073ffffffffffffffffffffffffffffffffffffffff168673ffffffffffffffffffffffffffffffffffffffff1614158015610e285750610e268682610d45565b155b15610e6c5780866040517fe237d922000000000000000000000000000000000000000000000000000000008152600401610e63929190612da8565b60405180910390fd5b610e7986868686866115ed565b505050505050565b610e89610f2f565b600073ffffffffffffffffffffffffffffffffffffffff168173ffffffffffffffffffffffffffffffffffffffff1603610efb5760006040517f1e4fbdf7000000000000000000000000000000000000000000000000000000008152600401610ef29190612b2a565b60405180910390fd5b610f048161131e565b50565b610f128383836116f8565b505050565b60086020528060005260406000206000915090505481565b610f376110b9565b73ffffffffffffffffffffffffffffffffffffffff16610f55610bbb565b73ffffffffffffffffffffffffffffffffffffffff1614610fb457610f786110b9565b6040517f118cdaa7000000000000000000000000000000000000000000000000000000008152600401610fab9190612b2a565b60405180910390fd5b565b60007f01ffc9a7000000000000000000000000000000000000000000000000000000007bffffffffffffffffffffffffffffffffffffffffffffffffffffffff1916827bffffffffffffffffffffffffffffffffffffffffffffffffffffffff1916149050919050565b806002908161102f919061316f565b5050565b600073ffffffffffffffffffffffffffffffffffffffff168473ffffffffffffffffffffffffffffffffffffffff16036110a55760006040517f57f447ce00000000000000000000000000000000000000000000000000000000815260040161109c9190612b2a565b60405180910390fd5b6110b360008585858561179f565b50505050565b600033905090565b600073ffffffffffffffffffffffffffffffffffffffff168473ffffffffffffffffffffffffffffffffffffffff16036111335760006040517f57f447ce00000000000000000000000000000000000000000000000000000000815260040161112a9190612b2a565b60405180910390fd5b600073ffffffffffffffffffffffffffffffffffffffff168573ffffffffffffffffffffffffffffffffffffffff16036111a55760006040517f01a8351400000000000000000000000000000000000000000000000000000000815260040161119c9190612b2a565b60405180910390fd5b6111b2858585858561179f565b5050505050565b6000804233446040516020016111d1939291906132aa565b6040516020818303038152906040528051906020012060001c90508091505090565b600060146064836112049190613316565b10156112135760029050611236565b60326064836112229190613316565b10156112315760019050611236565b600090505b919050565b60006007600081548092919061125090612f47565b91905055506000423360075460405160200161126e939291906132aa565b6040516020818303038152906040528051906020012060001c90508091505090565b600060026003600160036006546112a79190613347565b856112b29190613316565b6112bc9190612e92565b6112c69190613378565b6112d09190612f8f565b9050919050565b6112f333826001604051806020016040528060008152506113e4565b50565b600060208202602084010151905092915050565b600060208202602084010151905092915050565b6000600560009054906101000a900473ffffffffffffffffffffffffffffffffffffffff16905081600560006101000a81548173ffffffffffffffffffffffffffffffffffffffff021916908373ffffffffffffffffffffffffffffffffffffffff1602179055508173ffffffffffffffffffffffffffffffffffffffff168173ffffffffffffffffffffffffffffffffffffffff167f8be0079c531659141344cd1fd0a4f28419497f9722a3daafe3b4186f6b6457e060405160405180910390a35050565b600073ffffffffffffffffffffffffffffffffffffffff168473ffffffffffffffffffffffffffffffffffffffff16036114565760006040517f57f447ce00000000000000000000000000000000000000000000000000000000815260040161144d9190612b2a565b60405180910390fd5b6000806114638585611851565b9150915061147560008784848761179f565b505050505050565b600073ffffffffffffffffffffffffffffffffffffffff168273ffffffffffffffffffffffffffffffffffffffff16036114ef5760006040517fced3e1000000000000000000000000000000000000000000000000000000000081526004016114e69190612b2a565b60405180910390fd5b80600160008573ffffffffffffffffffffffffffffffffffffffff1673ffffffffffffffffffffffffffffffffffffffff16815260200190815260200160002060008473ffffffffffffffffffffffffffffffffffffffff1673ffffffffffffffffffffffffffffffffffffffff16815260200190815260200160002060006101000a81548160ff0219169083151502179055508173ffffffffffffffffffffffffffffffffffffffff168373ffffffffffffffffffffffffffffffffffffffff167f17307eab39ab6107e8899845ad3d59bd9653f200f220920489ca2b5937696c31836040516115e0919061233f565b60405180910390a3505050565b600073ffffffffffffffffffffffffffffffffffffffff168473ffffffffffffffffffffffffffffffffffffffff160361165f5760006040517f57f447ce0000000000000000000000000000000000000000000000000000000081526004016116569190612b2a565b60405180910390fd5b600073ffffffffffffffffffffffffffffffffffffffff168573ffffffffffffffffffffffffffffffffffffffff16036116d15760006040517f01a835140000000000000000000000000000000000000000000000000000000081526004016116c89190612b2a565b60405180910390fd5b6000806116de8585611851565b915091506116ef878784848761179f565b50505050505050565b600073ffffffffffffffffffffffffffffffffffffffff168373ffffffffffffffffffffffffffffffffffffffff160361176a5760006040517f01a835140000000000000000000000000000000000000000000000000000000081526004016117619190612b2a565b60405180910390fd5b6000806117778484611851565b9150915061179885600084846040518060200160405280600081525061179f565b5050505050565b6117ab85858585611881565b600073ffffffffffffffffffffffffffffffffffffffff168473ffffffffffffffffffffffffffffffffffffffff161461184a5760006117e96110b9565b9050600184510361183957600061180a60008661130a90919063ffffffff16565b9050600061182260008661130a90919063ffffffff16565b9050611832838989858589611893565b5050611848565b611847818787878787611a47565b5b505b5050505050565b60608060405191506001825283602083015260408201905060018152826020820152604081016040529250929050565b61188d84848484611bfb565b50505050565b60008473ffffffffffffffffffffffffffffffffffffffff163b1115611a3f578373ffffffffffffffffffffffffffffffffffffffff1663f23a6e6187878686866040518663ffffffff1660e01b81526004016118f495949392919061340f565b6020604051808303816000875af192505050801561193057506040513d601f19601f8201168201806040525081019061192d919061347e565b60015b6119b4573d8060008114611960576040519150601f19603f3d011682016040523d82523d6000602084013e611965565b606091505b5060008151036119ac57846040517f57f447ce0000000000000000000000000000000000000000000000000000000081526004016119a39190612b2a565b60405180910390fd5b805181602001fd5b63f23a6e6160e01b7bffffffffffffffffffffffffffffffffffffffffffffffffffffffff1916817bffffffffffffffffffffffffffffffffffffffffffffffffffffffff191614611a3d57846040517f57f447ce000000000000000000000000000000000000000000000000000000008152600401611a349190612b2a565b60405180910390fd5b505b505050505050565b60008473ffffffffffffffffffffffffffffffffffffffff163b1115611bf3578373ffffffffffffffffffffffffffffffffffffffff1663bc197c8187878686866040518663ffffffff1660e01b8152600401611aa89594939291906134ab565b6020604051808303816000875af1925050508015611ae457506040513d601f19601f82011682018060405250810190611ae1919061347e565b60015b611b68573d8060008114611b14576040519150601f19603f3d011682016040523d82523d6000602084013e611b19565b606091505b506000815103611b6057846040517f57f447ce000000000000000000000000000000000000000000000000000000008152600401611b579190612b2a565b60405180910390fd5b805181602001fd5b63bc197c8160e01b7bffffffffffffffffffffffffffffffffffffffffffffffffffffffff1916817bffffffffffffffffffffffffffffffffffffffffffffffffffffffff191614611bf157846040517f57f447ce000000000000000000000000000000000000000000000000000000008152600401611be89190612b2a565b60405180910390fd5b505b505050505050565b611c0784848484611db2565b600073ffffffffffffffffffffffffffffffffffffffff168473ffffffffffffffffffffffffffffffffffffffff1603611ce7576000805b8351811015611ccb576000838281518110611c5d57611c5c612f18565b5b602002602001015190508060036000878581518110611c7f57611c7e612f18565b5b602002602001015181526020019081526020016000206000828254611ca49190612e92565b925050819055508083611cb79190612e92565b92505080611cc490612f47565b9050611c3f565b508060046000828254611cde9190612e92565b92505081905550505b600073ffffffffffffffffffffffffffffffffffffffff168373ffffffffffffffffffffffffffffffffffffffff1603611dac576000805b8351811015611d99576000838281518110611d3d57611d3c612f18565b5b602002602001015190508060036000878581518110611d5f57611d5e612f18565b5b602002602001015181526020019081526020016000206000828254039250508190555080830192505080611d9290612f47565b9050611d1f565b5080600460008282540392505081905550505b50505050565b8051825114611dfc57815181516040517f5b059991000000000000000000000000000000000000000000000000000000008152600401611df3929190612eef565b60405180910390fd5b6000611e066110b9565b905060005b835181101561201b576000611e29828661130a90919063ffffffff16565b90506000611e40838661130a90919063ffffffff16565b9050600073ffffffffffffffffffffffffffffffffffffffff168873ffffffffffffffffffffffffffffffffffffffff1614611f6d57600080600084815260200190815260200160002060008a73ffffffffffffffffffffffffffffffffffffffff1673ffffffffffffffffffffffffffffffffffffffff16815260200190815260200160002054905081811015611f1557888183856040517f03dee4c5000000000000000000000000000000000000000000000000000000008152600401611f0c9493929190613513565b60405180910390fd5b81810360008085815260200190815260200160002060008b73ffffffffffffffffffffffffffffffffffffffff1673ffffffffffffffffffffffffffffffffffffffff16815260200190815260200160002081905550505b600073ffffffffffffffffffffffffffffffffffffffff168773ffffffffffffffffffffffffffffffffffffffff1614612008578060008084815260200190815260200160002060008973ffffffffffffffffffffffffffffffffffffffff1673ffffffffffffffffffffffffffffffffffffffff16815260200190815260200160002060008282546120009190612e92565b925050819055505b50508061201490612f47565b9050611e0b565b5060018351036120da57600061203b60008561130a90919063ffffffff16565b9050600061205360008561130a90919063ffffffff16565b90508573ffffffffffffffffffffffffffffffffffffffff168773ffffffffffffffffffffffffffffffffffffffff168473ffffffffffffffffffffffffffffffffffffffff167fc3d58168c5ae7397731d063d5bbf3d657854427343f4c083240f7aacaa2d0f6285856040516120cb929190612eef565b60405180910390a45050612159565b8373ffffffffffffffffffffffffffffffffffffffff168573ffffffffffffffffffffffffffffffffffffffff168273ffffffffffffffffffffffffffffffffffffffff167f4a39dc06d4c0dbc64b70af90fd698a233a518aa5d07e595d983b8c0526c8f7fb8686604051612150929190613558565b60405180910390a45b5050505050565b6000604051905090565b600080fd5b600080fd5b6000819050919050565b61218781612174565b811461219257600080fd5b50565b6000813590506121a48161217e565b92915050565b6000602082840312156121c0576121bf61216a565b5b60006121ce84828501612195565b91505092915050565b600073ffffffffffffffffffffffffffffffffffffffff82169050919050565b6000612202826121d7565b9050919050565b612212816121f7565b811461221d57600080fd5b50565b60008135905061222f81612209565b92915050565b6000806040838503121561224c5761224b61216a565b5b600061225a85828601612220565b925050602061226b85828601612195565b9150509250929050565b61227e81612174565b82525050565b60006020820190506122996000830184612275565b92915050565b60007fffffffff0000000000000000000000000000000000000000000000000000000082169050919050565b6122d48161229f565b81146122df57600080fd5b50565b6000813590506122f1816122cb565b92915050565b60006020828403121561230d5761230c61216a565b5b600061231b848285016122e2565b91505092915050565b60008115159050919050565b61233981612324565b82525050565b60006020820190506123546000830184612330565b92915050565b600080fd5b600080fd5b6000601f19601f8301169050919050565b7f4e487b7100000000000000000000000000000000000000000000000000000000600052604160045260246000fd5b6123ad82612364565b810181811067ffffffffffffffff821117156123cc576123cb612375565b5b80604052505050565b60006123df612160565b90506123eb82826123a4565b919050565b600067ffffffffffffffff82111561240b5761240a612375565b5b61241482612364565b9050602081019050919050565b82818337600083830152505050565b600061244361243e846123f0565b6123d5565b90508281526020810184848401111561245f5761245e61235f565b5b61246a848285612421565b509392505050565b600082601f8301126124875761248661235a565b5b8135612497848260208601612430565b91505092915050565b6000602082840312156124b6576124b561216a565b5b600082013567ffffffffffffffff8111156124d4576124d361216f565b5b6124e084828501612472565b91505092915050565b600081519050919050565b600082825260208201905092915050565b60005b83811015612523578082015181840152602081019050612508565b60008484015250505050565b600061253a826124e9565b61254481856124f4565b9350612554818560208601612505565b61255d81612364565b840191505092915050565b60006020820190508181036000830152612582818461252f565b905092915050565b600067ffffffffffffffff8211156125a5576125a4612375565b5b602082029050602081019050919050565b600080fd5b60006125ce6125c98461258a565b6123d5565b905080838252602082019050602084028301858111156125f1576125f06125b6565b5b835b8181101561261a57806126068882612195565b8452602084019350506020810190506125f3565b5050509392505050565b600082601f8301126126395761263861235a565b5b81356126498482602086016125bb565b91505092915050565b600067ffffffffffffffff82111561266d5761266c612375565b5b61267682612364565b9050602081019050919050565b600061269661269184612652565b6123d5565b9050828152602081018484840111156126b2576126b161235f565b5b6126bd848285612421565b509392505050565b600082601f8301126126da576126d961235a565b5b81356126ea848260208601612683565b91505092915050565b6000806000806080858703121561270d5761270c61216a565b5b600061271b87828801612220565b945050602085013567ffffffffffffffff81111561273c5761273b61216f565b5b61274887828801612624565b935050604085013567ffffffffffffffff8111156127695761276861216f565b5b61277587828801612624565b925050606085013567ffffffffffffffff8111156127965761279561216f565b5b6127a2878288016126c5565b91505092959194509250565b600080600080600060a086880312156127ca576127c961216a565b5b60006127d888828901612220565b95505060206127e988828901612220565b945050604086013567ffffffffffffffff81111561280a5761280961216f565b5b61281688828901612624565b935050606086013567ffffffffffffffff8111156128375761283661216f565b5b61284388828901612624565b925050608086013567ffffffffffffffff8111156128645761286361216f565b5b612870888289016126c5565b9150509295509295909350565b600067ffffffffffffffff82111561289857612897612375565b5b602082029050602081019050919050565b60006128bc6128b78461287d565b6123d5565b905080838252602082019050602084028301858111156128df576128de6125b6565b5b835b8181101561290857806128f48882612220565b8452602084019350506020810190506128e1565b5050509392505050565b600082601f8301126129275761292661235a565b5b81356129378482602086016128a9565b91505092915050565b600080604083850312156129575761295661216a565b5b600083013567ffffffffffffffff8111156129755761297461216f565b5b61298185828601612912565b925050602083013567ffffffffffffffff8111156129a2576129a161216f565b5b6129ae85828601612624565b9150509250929050565b600081519050919050565b600082825260208201905092915050565b6000819050602082019050919050565b6129ed81612174565b82525050565b60006129ff83836129e4565b60208301905092915050565b6000602082019050919050565b6000612a23826129b8565b612a2d81856129c3565b9350612a38836129d4565b8060005b83811015612a69578151612a5088826129f3565b9750612a5b83612a0b565b925050600181019050612a3c565b5085935050505092915050565b60006020820190508181036000830152612a908184612a18565b905092915050565b60008060008060808587031215612ab257612ab161216a565b5b6000612ac087828801612220565b9450506020612ad187828801612195565b9350506040612ae287828801612195565b925050606085013567ffffffffffffffff811115612b0357612b0261216f565b5b612b0f878288016126c5565b91505092959194509250565b612b24816121f7565b82525050565b6000602082019050612b3f6000830184612b1b565b92915050565b600060208284031215612b5b57612b5a61216a565b5b6000612b6984828501612220565b91505092915050565b612b7b81612324565b8114612b8657600080fd5b50565b600081359050612b9881612b72565b92915050565b60008060408385031215612bb557612bb461216a565b5b6000612bc385828601612220565b9250506020612bd485828601612b89565b9150509250929050565b60008060408385031215612bf557612bf461216a565b5b6000612c0385828601612195565b9250506020612c1485828601612220565b9150509250929050565b60008060408385031215612c3557612c3461216a565b5b6000612c4385828601612220565b9250506020612c5485828601612220565b9150509250929050565b600080600080600060a08688031215612c7a57612c7961216a565b5b6000612c8888828901612220565b9550506020612c9988828901612220565b9450506040612caa88828901612195565b9350506060612cbb88828901612195565b925050608086013567ffffffffffffffff811115612cdc57612cdb61216f565b5b612ce8888289016126c5565b9150509295509295909350565b600080600060608486031215612d0e57612d0d61216a565b5b6000612d1c86828701612220565b9350506020612d2d86828701612195565b9250506040612d3e86828701612195565b9150509250925092565b7f4e487b7100000000000000000000000000000000000000000000000000000000600052602260045260246000fd5b60006002820490506001821680612d8f57607f821691505b602082108103612da257612da1612d48565b5b50919050565b6000604082019050612dbd6000830185612b1b565b612dca6020830184612b1b565b9392505050565b7f596f75206e65656420746f2070617920302e303030303031206574686572207460008201527f6f206f70656e2061207061636b00000000000000000000000000000000000000602082015250565b6000612e2d602d836124f4565b9150612e3882612dd1565b604082019050919050565b60006020820190508181036000830152612e5c81612e20565b9050919050565b7f4e487b7100000000000000000000000000000000000000000000000000000000600052601160045260246000fd5b6000612e9d82612174565b9150612ea883612174565b9250828201905080821115612ec057612ebf612e63565b5b92915050565b6000604082019050612edb6000830185612275565b612ee86020830184612b1b565b9392505050565b6000604082019050612f046000830185612275565b612f116020830184612275565b9392505050565b7f4e487b7100000000000000000000000000000000000000000000000000000000600052603260045260246000fd5b6000612f5282612174565b91507fffffffffffffffffffffffffffffffffffffffffffffffffffffffffffffffff8203612f8457612f83612e63565b5b600182019050919050565b6000612f9a82612174565b9150612fa583612174565b9250828203905081811115612fbd57612fbc612e63565b5b92915050565b60008190508160005260206000209050919050565b60006020601f8301049050919050565b600082821b905092915050565b6000600883026130257fffffffffffffffffffffffffffffffffffffffffffffffffffffffffffffffff82612fe8565b61302f8683612fe8565b95508019841693508086168417925050509392505050565b6000819050919050565b600061306c61306761306284612174565b613047565b612174565b9050919050565b6000819050919050565b61308683613051565b61309a61309282613073565b848454612ff5565b825550505050565b600090565b6130af6130a2565b6130ba81848461307d565b505050565b5b818110156130de576130d36000826130a7565b6001810190506130c0565b5050565b601f821115613123576130f481612fc3565b6130fd84612fd8565b8101602085101561310c578190505b61312061311885612fd8565b8301826130bf565b50505b505050565b600082821c905092915050565b600061314660001984600802613128565b1980831691505092915050565b600061315f8383613135565b9150826002028217905092915050565b613178826124e9565b67ffffffffffffffff81111561319157613190612375565b5b61319b8254612d77565b6131a68282856130e2565b600060209050601f8311600181146131d957600084156131c7578287015190505b6131d18582613153565b865550613239565b601f1984166131e786612fc3565b60005b8281101561320f578489015182556001820191506020850194506020810190506131ea565b8683101561322c5784890151613228601f891682613135565b8355505b6001600288020188555050505b505050505050565b6000819050919050565b61325c61325782612174565b613241565b82525050565b60008160601b9050919050565b600061327a82613262565b9050919050565b600061328c8261326f565b9050919050565b6132a461329f826121f7565b613281565b82525050565b60006132b6828661324b565b6020820191506132c68285613293565b6014820191506132d6828461324b565b602082019150819050949350505050565b7f4e487b7100000000000000000000000000000000000000000000000000000000600052601260045260246000fd5b600061332182612174565b915061332c83612174565b92508261333c5761333b6132e7565b5b828206905092915050565b600061335282612174565b915061335d83612174565b92508261336d5761336c6132e7565b5b828204905092915050565b600061338382612174565b915061338e83612174565b925082820261339c81612174565b915082820484148315176133b3576133b2612e63565b5b5092915050565b600081519050919050565b600082825260208201905092915050565b60006133e1826133ba565b6133eb81856133c5565b93506133fb818560208601612505565b61340481612364565b840191505092915050565b600060a0820190506134246000830188612b1b565b6134316020830187612b1b565b61343e6040830186612275565b61344b6060830185612275565b818103608083015261345d81846133d6565b90509695505050505050565b600081519050613478816122cb565b92915050565b6000602082840312156134945761349361216a565b5b60006134a284828501613469565b91505092915050565b600060a0820190506134c06000830188612b1b565b6134cd6020830187612b1b565b81810360408301526134df8186612a18565b905081810360608301526134f38185612a18565b9050818103608083015261350781846133d6565b90509695505050505050565b60006080820190506135286000830187612b1b565b6135356020830186612275565b6135426040830185612275565b61354f6060830184612275565b95945050505050565b600060408201905081810360008301526135728185612a18565b905081810360208301526135868184612a18565b9050939250505056fea2646970667358221220f9af86a51d40ec10ebda68cf6a7244d3fa1cdb6e7a5c6e7fa4bb2faadce7a93c64736f6c63430008140033687474703a2f2f35312e33382e3139302e3133342f63617264732f7b69647d2e6a736f6e",
  "linkReferences": {},
  "deployedLinkReferences": {}
}