{
    "_format": "hh-sol-artifact-1",
    "contractName": "CardHelper",
    "sourceName": "contracts/cardhelper.sol",
    "abi": [
        {
            "inputs": [
                {
                    "internalType": "address",
                    "name": "sender",
                    "type": "address"
                },
                {
                    "internalType": "uint256",
                    "name": "balance",
                    "type": "uint256"
                },
                {
                    "internalType": "uint256",
                    "name": "needed",
                    "type": "uint256"
                },
                {
                    "internalType": "uint256",
                    "name": "tokenId",
                    "type": "uint256"
                }
            ],
            "name": "ERC1155InsufficientBalance",
            "type": "error"
        },
        {
            "inputs": [
                {
                    "internalType": "address",
                    "name": "approver",
                    "type": "address"
                }
            ],
            "name": "ERC1155InvalidApprover",
            "type": "error"
        },
        {
            "inputs": [
                {
                    "internalType": "uint256",
                    "name": "idsLength",
                    "type": "uint256"
                },
                {
                    "internalType": "uint256",
                    "name": "valuesLength",
                    "type": "uint256"
                }
            ],
            "name": "ERC1155InvalidArrayLength",
            "type": "error"
        },
        {
            "inputs": [
                {
                    "internalType": "address",
                    "name": "operator",
                    "type": "address"
                }
            ],
            "name": "ERC1155InvalidOperator",
            "type": "error"
        },
        {
            "inputs": [
                {
                    "internalType": "address",
                    "name": "receiver",
                    "type": "address"
                }
            ],
            "name": "ERC1155InvalidReceiver",
            "type": "error"
        },
        {
            "inputs": [
                {
                    "internalType": "address",
                    "name": "sender",
                    "type": "address"
                }
            ],
            "name": "ERC1155InvalidSender",
            "type": "error"
        },
        {
            "inputs": [
                {
                    "internalType": "address",
                    "name": "operator",
                    "type": "address"
                },
                {
                    "internalType": "address",
                    "name": "owner",
                    "type": "address"
                }
            ],
            "name": "ERC1155MissingApprovalForAll",
            "type": "error"
        },
        {
            "inputs": [
                {
                    "internalType": "address",
                    "name": "owner",
                    "type": "address"
                }
            ],
            "name": "OwnableInvalidOwner",
            "type": "error"
        },
        {
            "inputs": [
                {
                    "internalType": "address",
                    "name": "account",
                    "type": "address"
                }
            ],
            "name": "OwnableUnauthorizedAccount",
            "type": "error"
        },
        {
            "anonymous": false,
            "inputs": [
                {
                    "indexed": true,
                    "internalType": "address",
                    "name": "account",
                    "type": "address"
                },
                {
                    "indexed": true,
                    "internalType": "address",
                    "name": "operator",
                    "type": "address"
                },
                {
                    "indexed": false,
                    "internalType": "bool",
                    "name": "approved",
                    "type": "bool"
                }
            ],
            "name": "ApprovalForAll",
            "type": "event"
        },
        {
            "anonymous": false,
            "inputs": [
                {
                    "indexed": true,
                    "internalType": "address",
                    "name": "previousOwner",
                    "type": "address"
                },
                {
                    "indexed": true,
                    "internalType": "address",
                    "name": "newOwner",
                    "type": "address"
                }
            ],
            "name": "OwnershipTransferred",
            "type": "event"
        },
        {
            "anonymous": false,
            "inputs": [
                {
                    "indexed": true,
                    "internalType": "address",
                    "name": "operator",
                    "type": "address"
                },
                {
                    "indexed": true,
                    "internalType": "address",
                    "name": "from",
                    "type": "address"
                },
                {
                    "indexed": true,
                    "internalType": "address",
                    "name": "to",
                    "type": "address"
                },
                {
                    "indexed": false,
                    "internalType": "uint256[]",
                    "name": "ids",
                    "type": "uint256[]"
                },
                {
                    "indexed": false,
                    "internalType": "uint256[]",
                    "name": "values",
                    "type": "uint256[]"
                }
            ],
            "name": "TransferBatch",
            "type": "event"
        },
        {
            "anonymous": false,
            "inputs": [
                {
                    "indexed": true,
                    "internalType": "address",
                    "name": "operator",
                    "type": "address"
                },
                {
                    "indexed": true,
                    "internalType": "address",
                    "name": "from",
                    "type": "address"
                },
                {
                    "indexed": true,
                    "internalType": "address",
                    "name": "to",
                    "type": "address"
                },
                {
                    "indexed": false,
                    "internalType": "uint256",
                    "name": "id",
                    "type": "uint256"
                },
                {
                    "indexed": false,
                    "internalType": "uint256",
                    "name": "value",
                    "type": "uint256"
                }
            ],
            "name": "TransferSingle",
            "type": "event"
        },
        {
            "anonymous": false,
            "inputs": [
                {
                    "indexed": false,
                    "internalType": "string",
                    "name": "value",
                    "type": "string"
                },
                {
                    "indexed": true,
                    "internalType": "uint256",
                    "name": "id",
                    "type": "uint256"
                }
            ],
            "name": "URI",
            "type": "event"
        },
        {
            "inputs": [
                {
                    "internalType": "address",
                    "name": "account",
                    "type": "address"
                },
                {
                    "internalType": "uint256",
                    "name": "id",
                    "type": "uint256"
                }
            ],
            "name": "balanceOf",
            "outputs": [
                {
                    "internalType": "uint256",
                    "name": "",
                    "type": "uint256"
                }
            ],
            "stateMutability": "view",
            "type": "function"
        },
        {
            "inputs": [
                {
                    "internalType": "address[]",
                    "name": "accounts",
                    "type": "address[]"
                },
                {
                    "internalType": "uint256[]",
                    "name": "ids",
                    "type": "uint256[]"
                }
            ],
            "name": "balanceOfBatch",
            "outputs": [
                {
                    "internalType": "uint256[]",
                    "name": "",
                    "type": "uint256[]"
                }
            ],
            "stateMutability": "view",
            "type": "function"
        },
        {
            "inputs": [
                {
                    "internalType": "address",
                    "name": "from",
                    "type": "address"
                },
                {
                    "internalType": "uint256",
                    "name": "id",
                    "type": "uint256"
                },
                {
                    "internalType": "uint256",
                    "name": "value",
                    "type": "uint256"
                }
            ],
            "name": "burn",
            "outputs": [],
            "stateMutability": "nonpayable",
            "type": "function"
        },
        {
            "inputs": [
                {
                    "internalType": "uint256",
                    "name": "_cardIdMax",
                    "type": "uint256"
                }
            ],
            "name": "changeCardIdMax",
            "outputs": [],
            "stateMutability": "nonpayable",
            "type": "function"
        },
        {
            "inputs": [
                {
                    "internalType": "uint256",
                    "name": "id",
                    "type": "uint256"
                }
            ],
            "name": "exists",
            "outputs": [
                {
                    "internalType": "bool",
                    "name": "",
                    "type": "bool"
                }
            ],
            "stateMutability": "view",
            "type": "function"
        },
        {
            "inputs": [
                {
                    "internalType": "address",
                    "name": "_from",
                    "type": "address"
                }
            ],
            "name": "getAllBalance",
            "outputs": [
                {
                    "internalType": "uint256[]",
                    "name": "",
                    "type": "uint256[]"
                }
            ],
            "stateMutability": "view",
            "type": "function"
        },
        {
            "inputs": [
                {
                    "internalType": "uint256",
                    "name": "_id",
                    "type": "uint256"
                }
            ],
            "name": "getBalanceOf",
            "outputs": [
                {
                    "internalType": "uint256",
                    "name": "",
                    "type": "uint256"
                }
            ],
            "stateMutability": "view",
            "type": "function"
        },
        {
            "inputs": [],
            "name": "getNewOpenedCards",
            "outputs": [
                {
                    "internalType": "uint256",
                    "name": "",
                    "type": "uint256"
                }
            ],
            "stateMutability": "view",
            "type": "function"
        },
        {
            "inputs": [
                {
                    "internalType": "address",
                    "name": "account",
                    "type": "address"
                },
                {
                    "internalType": "address",
                    "name": "operator",
                    "type": "address"
                }
            ],
            "name": "isApprovedForAll",
            "outputs": [
                {
                    "internalType": "bool",
                    "name": "",
                    "type": "bool"
                }
            ],
            "stateMutability": "view",
            "type": "function"
        },
        {
            "inputs": [
                {
                    "internalType": "address",
                    "name": "account",
                    "type": "address"
                },
                {
                    "internalType": "uint256",
                    "name": "id",
                    "type": "uint256"
                },
                {
                    "internalType": "uint256",
                    "name": "amount",
                    "type": "uint256"
                },
                {
                    "internalType": "bytes",
                    "name": "data",
                    "type": "bytes"
                }
            ],
            "name": "mint",
            "outputs": [],
            "stateMutability": "nonpayable",
            "type": "function"
        },
        {
            "inputs": [
                {
                    "internalType": "address",
                    "name": "to",
                    "type": "address"
                },
                {
                    "internalType": "uint256[]",
                    "name": "ids",
                    "type": "uint256[]"
                },
                {
                    "internalType": "uint256[]",
                    "name": "amounts",
                    "type": "uint256[]"
                },
                {
                    "internalType": "bytes",
                    "name": "data",
                    "type": "bytes"
                }
            ],
            "name": "mintBatch",
            "outputs": [],
            "stateMutability": "nonpayable",
            "type": "function"
        },
        {
            "inputs": [
                {
                    "internalType": "address",
                    "name": "",
                    "type": "address"
                }
            ],
            "name": "newOpenedCards",
            "outputs": [
                {
                    "internalType": "uint256",
                    "name": "",
                    "type": "uint256"
                }
            ],
            "stateMutability": "view",
            "type": "function"
        },
        {
            "inputs": [],
            "name": "openPack",
            "outputs": [],
            "stateMutability": "payable",
            "type": "function"
        },
        {
            "inputs": [],
            "name": "owner",
            "outputs": [
                {
                    "internalType": "address",
                    "name": "",
                    "type": "address"
                }
            ],
            "stateMutability": "view",
            "type": "function"
        },
        {
            "inputs": [],
            "name": "renounceOwnership",
            "outputs": [],
            "stateMutability": "nonpayable",
            "type": "function"
        },
        {
            "inputs": [
                {
                    "internalType": "address",
                    "name": "from",
                    "type": "address"
                },
                {
                    "internalType": "address",
                    "name": "to",
                    "type": "address"
                },
                {
                    "internalType": "uint256[]",
                    "name": "ids",
                    "type": "uint256[]"
                },
                {
                    "internalType": "uint256[]",
                    "name": "values",
                    "type": "uint256[]"
                },
                {
                    "internalType": "bytes",
                    "name": "data",
                    "type": "bytes"
                }
            ],
            "name": "safeBatchTransferFrom",
            "outputs": [],
            "stateMutability": "nonpayable",
            "type": "function"
        },
        {
            "inputs": [
                {
                    "internalType": "address",
                    "name": "from",
                    "type": "address"
                },
                {
                    "internalType": "address",
                    "name": "to",
                    "type": "address"
                },
                {
                    "internalType": "uint256",
                    "name": "id",
                    "type": "uint256"
                },
                {
                    "internalType": "uint256",
                    "name": "value",
                    "type": "uint256"
                },
                {
                    "internalType": "bytes",
                    "name": "data",
                    "type": "bytes"
                }
            ],
            "name": "safeTransferFrom",
            "outputs": [],
            "stateMutability": "nonpayable",
            "type": "function"
        },
        {
            "inputs": [
                {
                    "internalType": "address",
                    "name": "operator",
                    "type": "address"
                },
                {
                    "internalType": "bool",
                    "name": "approved",
                    "type": "bool"
                }
            ],
            "name": "setApprovalForAll",
            "outputs": [],
            "stateMutability": "nonpayable",
            "type": "function"
        },
        {
            "inputs": [
                {
                    "internalType": "string",
                    "name": "newuri",
                    "type": "string"
                }
            ],
            "name": "setURI",
            "outputs": [],
            "stateMutability": "nonpayable",
            "type": "function"
        },
        {
            "inputs": [
                {
                    "internalType": "bytes4",
                    "name": "interfaceId",
                    "type": "bytes4"
                }
            ],
            "name": "supportsInterface",
            "outputs": [
                {
                    "internalType": "bool",
                    "name": "",
                    "type": "bool"
                }
            ],
            "stateMutability": "view",
            "type": "function"
        },
        {
            "inputs": [],
            "name": "totalSupply",
            "outputs": [
                {
                    "internalType": "uint256",
                    "name": "",
                    "type": "uint256"
                }
            ],
            "stateMutability": "view",
            "type": "function"
        },
        {
            "inputs": [
                {
                    "internalType": "uint256",
                    "name": "id",
                    "type": "uint256"
                }
            ],
            "name": "totalSupply",
            "outputs": [
                {
                    "internalType": "uint256",
                    "name": "",
                    "type": "uint256"
                }
            ],
            "stateMutability": "view",
            "type": "function"
        },
        {
            "inputs": [
                {
                    "internalType": "address",
                    "name": "newOwner",
                    "type": "address"
                }
            ],
            "name": "transferOwnership",
            "outputs": [],
            "stateMutability": "nonpayable",
            "type": "function"
        },
        {
            "inputs": [
                {
                    "internalType": "uint256",
                    "name": "",
                    "type": "uint256"
                }
            ],
            "name": "uri",
            "outputs": [
                {
                    "internalType": "string",
                    "name": "",
                    "type": "string"
                }
            ],
            "stateMutability": "view",
            "type": "function"
        }
    ],
    "bytecode": "0x6080604052600360065560006007553480156200001b57600080fd5b5033604051806060016040528060248152602001620039db602491396200004881620000d660201b60201c565b50600073ffffffffffffffffffffffffffffffffffffffff168173ffffffffffffffffffffffffffffffffffffffff1603620000be5760006040517f1e4fbdf7000000000000000000000000000000000000000000000000000000008152600401620000b59190620001f6565b60405180910390fd5b620000cf81620000eb60201b60201c565b5062000574565b8060029081620000e791906200048d565b5050565b6000600560009054906101000a900473ffffffffffffffffffffffffffffffffffffffff16905081600560006101000a81548173ffffffffffffffffffffffffffffffffffffffff021916908373ffffffffffffffffffffffffffffffffffffffff1602179055508173ffffffffffffffffffffffffffffffffffffffff168173ffffffffffffffffffffffffffffffffffffffff167f8be0079c531659141344cd1fd0a4f28419497f9722a3daafe3b4186f6b6457e060405160405180910390a35050565b600073ffffffffffffffffffffffffffffffffffffffff82169050919050565b6000620001de82620001b1565b9050919050565b620001f081620001d1565b82525050565b60006020820190506200020d6000830184620001e5565b92915050565b600081519050919050565b7f4e487b7100000000000000000000000000000000000000000000000000000000600052604160045260246000fd5b7f4e487b7100000000000000000000000000000000000000000000000000000000600052602260045260246000fd5b600060028204905060018216806200029557607f821691505b602082108103620002ab57620002aa6200024d565b5b50919050565b60008190508160005260206000209050919050565b60006020601f8301049050919050565b600082821b905092915050565b600060088302620003157fffffffffffffffffffffffffffffffffffffffffffffffffffffffffffffffff82620002d6565b620003218683620002d6565b95508019841693508086168417925050509392505050565b6000819050919050565b6000819050919050565b60006200036e62000368620003628462000339565b62000343565b62000339565b9050919050565b6000819050919050565b6200038a836200034d565b620003a2620003998262000375565b848454620002e3565b825550505050565b600090565b620003b9620003aa565b620003c68184846200037f565b505050565b5b81811015620003ee57620003e2600082620003af565b600181019050620003cc565b5050565b601f8211156200043d576200040781620002b1565b6200041284620002c6565b8101602085101562000422578190505b6200043a6200043185620002c6565b830182620003cb565b50505b505050565b600082821c905092915050565b6000620004626000198460080262000442565b1980831691505092915050565b60006200047d83836200044f565b9150826002028217905092915050565b620004988262000213565b67ffffffffffffffff811115620004b457620004b36200021e565b5b620004c082546200027c565b620004cd828285620003f2565b600060209050601f831160018114620005055760008415620004f0578287015190505b620004fc85826200046f565b8655506200056c565b601f1984166200051586620002b1565b60005b828110156200053f5784890151825560018201915060208501945060208101905062000518565b868310156200055f57848901516200055b601f8916826200044f565b8355505b6001600288020188555050505b505050505050565b61345780620005846000396000f3fe6080604052600436106101495760003560e01c8063731133e9116100b6578063ddad87ef1161006f578063ddad87ef146104a3578063e985e9c5146104ce578063f242432a1461050b578063f2fde38b14610534578063f5298aca1461055d578063f9ae51151461058657610149565b8063731133e91461036f5780638da5cb5b146103985780639347fb3d146103c3578063a22cb46514610400578063b2aae00514610429578063bd85b0391461046657610149565b80631f7fdffa116101085780631f7fdffa146102825780632eb2c2d6146102ab5780633c4ea385146102d45780634e1273f4146102de5780634f558e791461031b578063715018a61461035857610149565b806266fd0d1461014e578062fdd58e1461017757806301ffc9a7146101b457806302fe5305146101f15780630e89341c1461021a57806318160ddd14610257575b600080fd5b34801561015a57600080fd5b50610175600480360381019061017091906120a5565b6105c3565b005b34801561018357600080fd5b5061019e60048036038101906101999190612130565b6105d5565b6040516101ab919061217f565b60405180910390f35b3480156101c057600080fd5b506101db60048036038101906101d691906121f2565b61062f565b6040516101e8919061223a565b60405180910390f35b3480156101fd57600080fd5b506102186004803603810190610213919061239b565b610711565b005b34801561022657600080fd5b50610241600480360381019061023c91906120a5565b610725565b60405161024e9190612463565b60405180910390f35b34801561026357600080fd5b5061026c6107b9565b604051610279919061217f565b60405180910390f35b34801561028e57600080fd5b506102a960048036038101906102a491906125ee565b6107c3565b005b3480156102b757600080fd5b506102d260048036038101906102cd91906126a9565b6107dd565b005b6102dc610885565b005b3480156102ea57600080fd5b506103056004803603810190610300919061283b565b610964565b6040516103129190612971565b60405180910390f35b34801561032757600080fd5b50610342600480360381019061033d91906120a5565b610a73565b60405161034f919061223a565b60405180910390f35b34801561036457600080fd5b5061036d610a87565b005b34801561037b57600080fd5b5061039660048036038101906103919190612993565b610a9b565b005b3480156103a457600080fd5b506103ad610ab5565b6040516103ba9190612a25565b60405180910390f35b3480156103cf57600080fd5b506103ea60048036038101906103e59190612a40565b610adf565b6040516103f79190612971565b60405180910390f35b34801561040c57600080fd5b5061042760048036038101906104229190612a99565b610bad565b005b34801561043557600080fd5b50610450600480360381019061044b91906120a5565b610bc3565b60405161045d919061217f565b60405180910390f35b34801561047257600080fd5b5061048d600480360381019061048891906120a5565b610bde565b60405161049a919061217f565b60405180910390f35b3480156104af57600080fd5b506104b8610bfb565b6040516104c5919061217f565b60405180910390f35b3480156104da57600080fd5b506104f560048036038101906104f09190612ad9565b610c42565b604051610502919061223a565b60405180910390f35b34801561051757600080fd5b50610532600480360381019061052d9190612b19565b610cd6565b005b34801561054057600080fd5b5061055b60048036038101906105569190612a40565b610d7e565b005b34801561056957600080fd5b50610584600480360381019061057f9190612bb0565b610e04565b005b34801561059257600080fd5b506105ad60048036038101906105a89190612a40565b610e14565b6040516105ba919061217f565b60405180910390f35b6105cb610e2c565b8060068190555050565b600080600083815260200190815260200160002060008473ffffffffffffffffffffffffffffffffffffffff1673ffffffffffffffffffffffffffffffffffffffff16815260200190815260200160002054905092915050565b60007fd9b67a26000000000000000000000000000000000000000000000000000000007bffffffffffffffffffffffffffffffffffffffffffffffffffffffff1916827bffffffffffffffffffffffffffffffffffffffffffffffffffffffff191614806106fa57507f0e89341c000000000000000000000000000000000000000000000000000000007bffffffffffffffffffffffffffffffffffffffffffffffffffffffff1916827bffffffffffffffffffffffffffffffffffffffffffffffffffffffff1916145b8061070a575061070982610eb3565b5b9050919050565b610719610e2c565b61072281610f1d565b50565b60606002805461073490612c32565b80601f016020809104026020016040519081016040528092919081815260200182805461076090612c32565b80156107ad5780601f10610782576101008083540402835291602001916107ad565b820191906000526020600020905b81548152906001019060200180831161079057829003601f168201915b50505050509050919050565b6000600454905090565b6107cb610e2c565b6107d784848484610f30565b50505050565b60006107e7610fb6565b90508073ffffffffffffffffffffffffffffffffffffffff168673ffffffffffffffffffffffffffffffffffffffff161415801561082c575061082a8682610c42565b155b156108705780866040517fe237d922000000000000000000000000000000000000000000000000000000008152600401610867929190612c63565b60405180910390fd5b61087d8686868686610fbe565b505050505050565b662386f26fc1000034146108ce576040517f08c379a00000000000000000000000000000000000000000000000000000000081526004016108c590612cfe565b60405180910390fd5b60006108d86110b6565b905060006108e5826110f0565b905060006108f1611136565b905060006108fe8261118b565b90506000838261090e9190612d4d565b9050610919816111d2565b80600860003373ffffffffffffffffffffffffffffffffffffffff1673ffffffffffffffffffffffffffffffffffffffff168152602001908152602001600020819055505050505050565b606081518351146109b057815183516040517f5b0599910000000000000000000000000000000000000000000000000000000081526004016109a7929190612d81565b60405180910390fd5b6000835167ffffffffffffffff8111156109cd576109cc612270565b5b6040519080825280602002602001820160405280156109fb5781602001602082028036833780820191505090505b50905060005b8451811015610a6857610a38610a2082876111f190919063ffffffff16565b610a33838761120590919063ffffffff16565b6105d5565b828281518110610a4b57610a4a612daa565b5b60200260200101818152505080610a6190612dd9565b9050610a01565b508091505092915050565b600080610a7f83610bde565b119050919050565b610a8f610e2c565b610a996000611219565b565b610aa3610e2c565b610aaf848484846112df565b50505050565b6000600560009054906101000a900473ffffffffffffffffffffffffffffffffffffffff16905090565b6060610ae9610e2c565b600060065467ffffffffffffffff811115610b0757610b06612270565b5b604051908082528060200260200182016040528015610b355781602001602082028036833780820191505090505b5090506000600190505b6006548111610ba3576000610b5485836105d5565b1115610b9057610b6484826105d5565b82600183610b729190612e21565b81518110610b8357610b82612daa565b5b6020026020010181815250505b8080610b9b90612dd9565b915050610b3f565b5080915050919050565b610bbf610bb8610fb6565b8383611378565b5050565b6000610bcd610e2c565b610bd733836105d5565b9050919050565b600060036000838152602001908152602001600020549050919050565b6000600860003373ffffffffffffffffffffffffffffffffffffffff1673ffffffffffffffffffffffffffffffffffffffff16815260200190815260200160002054905090565b6000600160008473ffffffffffffffffffffffffffffffffffffffff1673ffffffffffffffffffffffffffffffffffffffff16815260200190815260200160002060008373ffffffffffffffffffffffffffffffffffffffff1673ffffffffffffffffffffffffffffffffffffffff16815260200190815260200160002060009054906101000a900460ff16905092915050565b6000610ce0610fb6565b90508073ffffffffffffffffffffffffffffffffffffffff168673ffffffffffffffffffffffffffffffffffffffff1614158015610d255750610d238682610c42565b155b15610d695780866040517fe237d922000000000000000000000000000000000000000000000000000000008152600401610d60929190612c63565b60405180910390fd5b610d7686868686866114e8565b505050505050565b610d86610e2c565b600073ffffffffffffffffffffffffffffffffffffffff168173ffffffffffffffffffffffffffffffffffffffff1603610df85760006040517f1e4fbdf7000000000000000000000000000000000000000000000000000000008152600401610def9190612a25565b60405180910390fd5b610e0181611219565b50565b610e0f8383836115f3565b505050565b60086020528060005260406000206000915090505481565b610e34610fb6565b73ffffffffffffffffffffffffffffffffffffffff16610e52610ab5565b73ffffffffffffffffffffffffffffffffffffffff1614610eb157610e75610fb6565b6040517f118cdaa7000000000000000000000000000000000000000000000000000000008152600401610ea89190612a25565b60405180910390fd5b565b60007f01ffc9a7000000000000000000000000000000000000000000000000000000007bffffffffffffffffffffffffffffffffffffffffffffffffffffffff1916827bffffffffffffffffffffffffffffffffffffffffffffffffffffffff1916149050919050565b8060029081610f2c9190613001565b5050565b600073ffffffffffffffffffffffffffffffffffffffff168473ffffffffffffffffffffffffffffffffffffffff1603610fa25760006040517f57f447ce000000000000000000000000000000000000000000000000000000008152600401610f999190612a25565b60405180910390fd5b610fb060008585858561169a565b50505050565b600033905090565b600073ffffffffffffffffffffffffffffffffffffffff168473ffffffffffffffffffffffffffffffffffffffff16036110305760006040517f57f447ce0000000000000000000000000000000000000000000000000000000081526004016110279190612a25565b60405180910390fd5b600073ffffffffffffffffffffffffffffffffffffffff168573ffffffffffffffffffffffffffffffffffffffff16036110a25760006040517f01a835140000000000000000000000000000000000000000000000000000000081526004016110999190612a25565b60405180910390fd5b6110af858585858561169a565b5050505050565b6000804233446040516020016110ce9392919061313c565b6040516020818303038152906040528051906020012060001c90508091505090565b6000600160648361110191906131a8565b1161110f5760009050611131565b601560648361111e91906131a8565b1161112c5760019050611131565b600290505b919050565b60006007600081548092919061114b90612dd9565b9190505550600042336007546040516020016111699392919061313c565b6040516020818303038152906040528051906020012060001c90508091505090565b600060026003600160036006546111a291906131d9565b856111ad91906131a8565b6111b79190612d4d565b6111c1919061320a565b6111cb9190612e21565b9050919050565b6111ee33826001604051806020016040528060008152506112df565b50565b600060208202602084010151905092915050565b600060208202602084010151905092915050565b6000600560009054906101000a900473ffffffffffffffffffffffffffffffffffffffff16905081600560006101000a81548173ffffffffffffffffffffffffffffffffffffffff021916908373ffffffffffffffffffffffffffffffffffffffff1602179055508173ffffffffffffffffffffffffffffffffffffffff168173ffffffffffffffffffffffffffffffffffffffff167f8be0079c531659141344cd1fd0a4f28419497f9722a3daafe3b4186f6b6457e060405160405180910390a35050565b600073ffffffffffffffffffffffffffffffffffffffff168473ffffffffffffffffffffffffffffffffffffffff16036113515760006040517f57f447ce0000000000000000000000000000000000000000000000000000000081526004016113489190612a25565b60405180910390fd5b60008061135e858561174c565b9150915061137060008784848761169a565b505050505050565b600073ffffffffffffffffffffffffffffffffffffffff168273ffffffffffffffffffffffffffffffffffffffff16036113ea5760006040517fced3e1000000000000000000000000000000000000000000000000000000000081526004016113e19190612a25565b60405180910390fd5b80600160008573ffffffffffffffffffffffffffffffffffffffff1673ffffffffffffffffffffffffffffffffffffffff16815260200190815260200160002060008473ffffffffffffffffffffffffffffffffffffffff1673ffffffffffffffffffffffffffffffffffffffff16815260200190815260200160002060006101000a81548160ff0219169083151502179055508173ffffffffffffffffffffffffffffffffffffffff168373ffffffffffffffffffffffffffffffffffffffff167f17307eab39ab6107e8899845ad3d59bd9653f200f220920489ca2b5937696c31836040516114db919061223a565b60405180910390a3505050565b600073ffffffffffffffffffffffffffffffffffffffff168473ffffffffffffffffffffffffffffffffffffffff160361155a5760006040517f57f447ce0000000000000000000000000000000000000000000000000000000081526004016115519190612a25565b60405180910390fd5b600073ffffffffffffffffffffffffffffffffffffffff168573ffffffffffffffffffffffffffffffffffffffff16036115cc5760006040517f01a835140000000000000000000000000000000000000000000000000000000081526004016115c39190612a25565b60405180910390fd5b6000806115d9858561174c565b915091506115ea878784848761169a565b50505050505050565b600073ffffffffffffffffffffffffffffffffffffffff168373ffffffffffffffffffffffffffffffffffffffff16036116655760006040517f01a8351400000000000000000000000000000000000000000000000000000000815260040161165c9190612a25565b60405180910390fd5b600080611672848461174c565b9150915061169385600084846040518060200160405280600081525061169a565b5050505050565b6116a68585858561177c565b600073ffffffffffffffffffffffffffffffffffffffff168473ffffffffffffffffffffffffffffffffffffffff16146117455760006116e4610fb6565b9050600184510361173457600061170560008661120590919063ffffffff16565b9050600061171d60008661120590919063ffffffff16565b905061172d83898985858961178e565b5050611743565b611742818787878787611942565b5b505b5050505050565b60608060405191506001825283602083015260408201905060018152826020820152604081016040529250929050565b61178884848484611af6565b50505050565b60008473ffffffffffffffffffffffffffffffffffffffff163b111561193a578373ffffffffffffffffffffffffffffffffffffffff1663f23a6e6187878686866040518663ffffffff1660e01b81526004016117ef9594939291906132a1565b6020604051808303816000875af192505050801561182b57506040513d601f19601f820116820180604052508101906118289190613310565b60015b6118af573d806000811461185b576040519150601f19603f3d011682016040523d82523d6000602084013e611860565b606091505b5060008151036118a757846040517f57f447ce00000000000000000000000000000000000000000000000000000000815260040161189e9190612a25565b60405180910390fd5b805181602001fd5b63f23a6e6160e01b7bffffffffffffffffffffffffffffffffffffffffffffffffffffffff1916817bffffffffffffffffffffffffffffffffffffffffffffffffffffffff19161461193857846040517f57f447ce00000000000000000000000000000000000000000000000000000000815260040161192f9190612a25565b60405180910390fd5b505b505050505050565b60008473ffffffffffffffffffffffffffffffffffffffff163b1115611aee578373ffffffffffffffffffffffffffffffffffffffff1663bc197c8187878686866040518663ffffffff1660e01b81526004016119a395949392919061333d565b6020604051808303816000875af19250505080156119df57506040513d601f19601f820116820180604052508101906119dc9190613310565b60015b611a63573d8060008114611a0f576040519150601f19603f3d011682016040523d82523d6000602084013e611a14565b606091505b506000815103611a5b57846040517f57f447ce000000000000000000000000000000000000000000000000000000008152600401611a529190612a25565b60405180910390fd5b805181602001fd5b63bc197c8160e01b7bffffffffffffffffffffffffffffffffffffffffffffffffffffffff1916817bffffffffffffffffffffffffffffffffffffffffffffffffffffffff191614611aec57846040517f57f447ce000000000000000000000000000000000000000000000000000000008152600401611ae39190612a25565b60405180910390fd5b505b505050505050565b611b0284848484611cad565b600073ffffffffffffffffffffffffffffffffffffffff168473ffffffffffffffffffffffffffffffffffffffff1603611be2576000805b8351811015611bc6576000838281518110611b5857611b57612daa565b5b602002602001015190508060036000878581518110611b7a57611b79612daa565b5b602002602001015181526020019081526020016000206000828254611b9f9190612d4d565b925050819055508083611bb29190612d4d565b92505080611bbf90612dd9565b9050611b3a565b508060046000828254611bd99190612d4d565b92505081905550505b600073ffffffffffffffffffffffffffffffffffffffff168373ffffffffffffffffffffffffffffffffffffffff1603611ca7576000805b8351811015611c94576000838281518110611c3857611c37612daa565b5b602002602001015190508060036000878581518110611c5a57611c59612daa565b5b602002602001015181526020019081526020016000206000828254039250508190555080830192505080611c8d90612dd9565b9050611c1a565b5080600460008282540392505081905550505b50505050565b8051825114611cf757815181516040517f5b059991000000000000000000000000000000000000000000000000000000008152600401611cee929190612d81565b60405180910390fd5b6000611d01610fb6565b905060005b8351811015611f16576000611d24828661120590919063ffffffff16565b90506000611d3b838661120590919063ffffffff16565b9050600073ffffffffffffffffffffffffffffffffffffffff168873ffffffffffffffffffffffffffffffffffffffff1614611e6857600080600084815260200190815260200160002060008a73ffffffffffffffffffffffffffffffffffffffff1673ffffffffffffffffffffffffffffffffffffffff16815260200190815260200160002054905081811015611e1057888183856040517f03dee4c5000000000000000000000000000000000000000000000000000000008152600401611e0794939291906133a5565b60405180910390fd5b81810360008085815260200190815260200160002060008b73ffffffffffffffffffffffffffffffffffffffff1673ffffffffffffffffffffffffffffffffffffffff16815260200190815260200160002081905550505b600073ffffffffffffffffffffffffffffffffffffffff168773ffffffffffffffffffffffffffffffffffffffff1614611f03578060008084815260200190815260200160002060008973ffffffffffffffffffffffffffffffffffffffff1673ffffffffffffffffffffffffffffffffffffffff1681526020019081526020016000206000828254611efb9190612d4d565b925050819055505b505080611f0f90612dd9565b9050611d06565b506001835103611fd5576000611f3660008561120590919063ffffffff16565b90506000611f4e60008561120590919063ffffffff16565b90508573ffffffffffffffffffffffffffffffffffffffff168773ffffffffffffffffffffffffffffffffffffffff168473ffffffffffffffffffffffffffffffffffffffff167fc3d58168c5ae7397731d063d5bbf3d657854427343f4c083240f7aacaa2d0f628585604051611fc6929190612d81565b60405180910390a45050612054565b8373ffffffffffffffffffffffffffffffffffffffff168573ffffffffffffffffffffffffffffffffffffffff168273ffffffffffffffffffffffffffffffffffffffff167f4a39dc06d4c0dbc64b70af90fd698a233a518aa5d07e595d983b8c0526c8f7fb868660405161204b9291906133ea565b60405180910390a45b5050505050565b6000604051905090565b600080fd5b600080fd5b6000819050919050565b6120828161206f565b811461208d57600080fd5b50565b60008135905061209f81612079565b92915050565b6000602082840312156120bb576120ba612065565b5b60006120c984828501612090565b91505092915050565b600073ffffffffffffffffffffffffffffffffffffffff82169050919050565b60006120fd826120d2565b9050919050565b61210d816120f2565b811461211857600080fd5b50565b60008135905061212a81612104565b92915050565b6000806040838503121561214757612146612065565b5b60006121558582860161211b565b925050602061216685828601612090565b9150509250929050565b6121798161206f565b82525050565b60006020820190506121946000830184612170565b92915050565b60007fffffffff0000000000000000000000000000000000000000000000000000000082169050919050565b6121cf8161219a565b81146121da57600080fd5b50565b6000813590506121ec816121c6565b92915050565b60006020828403121561220857612207612065565b5b6000612216848285016121dd565b91505092915050565b60008115159050919050565b6122348161221f565b82525050565b600060208201905061224f600083018461222b565b92915050565b600080fd5b600080fd5b6000601f19601f8301169050919050565b7f4e487b7100000000000000000000000000000000000000000000000000000000600052604160045260246000fd5b6122a88261225f565b810181811067ffffffffffffffff821117156122c7576122c6612270565b5b80604052505050565b60006122da61205b565b90506122e6828261229f565b919050565b600067ffffffffffffffff82111561230657612305612270565b5b61230f8261225f565b9050602081019050919050565b82818337600083830152505050565b600061233e612339846122eb565b6122d0565b90508281526020810184848401111561235a5761235961225a565b5b61236584828561231c565b509392505050565b600082601f83011261238257612381612255565b5b813561239284826020860161232b565b91505092915050565b6000602082840312156123b1576123b0612065565b5b600082013567ffffffffffffffff8111156123cf576123ce61206a565b5b6123db8482850161236d565b91505092915050565b600081519050919050565b600082825260208201905092915050565b60005b8381101561241e578082015181840152602081019050612403565b60008484015250505050565b6000612435826123e4565b61243f81856123ef565b935061244f818560208601612400565b6124588161225f565b840191505092915050565b6000602082019050818103600083015261247d818461242a565b905092915050565b600067ffffffffffffffff8211156124a05761249f612270565b5b602082029050602081019050919050565b600080fd5b60006124c96124c484612485565b6122d0565b905080838252602082019050602084028301858111156124ec576124eb6124b1565b5b835b8181101561251557806125018882612090565b8452602084019350506020810190506124ee565b5050509392505050565b600082601f83011261253457612533612255565b5b81356125448482602086016124b6565b91505092915050565b600067ffffffffffffffff82111561256857612567612270565b5b6125718261225f565b9050602081019050919050565b600061259161258c8461254d565b6122d0565b9050828152602081018484840111156125ad576125ac61225a565b5b6125b884828561231c565b509392505050565b600082601f8301126125d5576125d4612255565b5b81356125e584826020860161257e565b91505092915050565b6000806000806080858703121561260857612607612065565b5b60006126168782880161211b565b945050602085013567ffffffffffffffff8111156126375761263661206a565b5b6126438782880161251f565b935050604085013567ffffffffffffffff8111156126645761266361206a565b5b6126708782880161251f565b925050606085013567ffffffffffffffff8111156126915761269061206a565b5b61269d878288016125c0565b91505092959194509250565b600080600080600060a086880312156126c5576126c4612065565b5b60006126d38882890161211b565b95505060206126e48882890161211b565b945050604086013567ffffffffffffffff8111156127055761270461206a565b5b6127118882890161251f565b935050606086013567ffffffffffffffff8111156127325761273161206a565b5b61273e8882890161251f565b925050608086013567ffffffffffffffff81111561275f5761275e61206a565b5b61276b888289016125c0565b9150509295509295909350565b600067ffffffffffffffff82111561279357612792612270565b5b602082029050602081019050919050565b60006127b76127b284612778565b6122d0565b905080838252602082019050602084028301858111156127da576127d96124b1565b5b835b8181101561280357806127ef888261211b565b8452602084019350506020810190506127dc565b5050509392505050565b600082601f83011261282257612821612255565b5b81356128328482602086016127a4565b91505092915050565b6000806040838503121561285257612851612065565b5b600083013567ffffffffffffffff8111156128705761286f61206a565b5b61287c8582860161280d565b925050602083013567ffffffffffffffff81111561289d5761289c61206a565b5b6128a98582860161251f565b9150509250929050565b600081519050919050565b600082825260208201905092915050565b6000819050602082019050919050565b6128e88161206f565b82525050565b60006128fa83836128df565b60208301905092915050565b6000602082019050919050565b600061291e826128b3565b61292881856128be565b9350612933836128cf565b8060005b8381101561296457815161294b88826128ee565b975061295683612906565b925050600181019050612937565b5085935050505092915050565b6000602082019050818103600083015261298b8184612913565b905092915050565b600080600080608085870312156129ad576129ac612065565b5b60006129bb8782880161211b565b94505060206129cc87828801612090565b93505060406129dd87828801612090565b925050606085013567ffffffffffffffff8111156129fe576129fd61206a565b5b612a0a878288016125c0565b91505092959194509250565b612a1f816120f2565b82525050565b6000602082019050612a3a6000830184612a16565b92915050565b600060208284031215612a5657612a55612065565b5b6000612a648482850161211b565b91505092915050565b612a768161221f565b8114612a8157600080fd5b50565b600081359050612a9381612a6d565b92915050565b60008060408385031215612ab057612aaf612065565b5b6000612abe8582860161211b565b9250506020612acf85828601612a84565b9150509250929050565b60008060408385031215612af057612aef612065565b5b6000612afe8582860161211b565b9250506020612b0f8582860161211b565b9150509250929050565b600080600080600060a08688031215612b3557612b34612065565b5b6000612b438882890161211b565b9550506020612b548882890161211b565b9450506040612b6588828901612090565b9350506060612b7688828901612090565b925050608086013567ffffffffffffffff811115612b9757612b9661206a565b5b612ba3888289016125c0565b9150509295509295909350565b600080600060608486031215612bc957612bc8612065565b5b6000612bd78682870161211b565b9350506020612be886828701612090565b9250506040612bf986828701612090565b9150509250925092565b7f4e487b7100000000000000000000000000000000000000000000000000000000600052602260045260246000fd5b60006002820490506001821680612c4a57607f821691505b602082108103612c5d57612c5c612c03565b5b50919050565b6000604082019050612c786000830185612a16565b612c856020830184612a16565b9392505050565b7f596f75206e65656420746f2070617920302e303120657468657220746f206f7060008201527f656e2061207061636b0000000000000000000000000000000000000000000000602082015250565b6000612ce86029836123ef565b9150612cf382612c8c565b604082019050919050565b60006020820190508181036000830152612d1781612cdb565b9050919050565b7f4e487b7100000000000000000000000000000000000000000000000000000000600052601160045260246000fd5b6000612d588261206f565b9150612d638361206f565b9250828201905080821115612d7b57612d7a612d1e565b5b92915050565b6000604082019050612d966000830185612170565b612da36020830184612170565b9392505050565b7f4e487b7100000000000000000000000000000000000000000000000000000000600052603260045260246000fd5b6000612de48261206f565b91507fffffffffffffffffffffffffffffffffffffffffffffffffffffffffffffffff8203612e1657612e15612d1e565b5b600182019050919050565b6000612e2c8261206f565b9150612e378361206f565b9250828203905081811115612e4f57612e4e612d1e565b5b92915050565b60008190508160005260206000209050919050565b60006020601f8301049050919050565b600082821b905092915050565b600060088302612eb77fffffffffffffffffffffffffffffffffffffffffffffffffffffffffffffffff82612e7a565b612ec18683612e7a565b95508019841693508086168417925050509392505050565b6000819050919050565b6000612efe612ef9612ef48461206f565b612ed9565b61206f565b9050919050565b6000819050919050565b612f1883612ee3565b612f2c612f2482612f05565b848454612e87565b825550505050565b600090565b612f41612f34565b612f4c818484612f0f565b505050565b5b81811015612f7057612f65600082612f39565b600181019050612f52565b5050565b601f821115612fb557612f8681612e55565b612f8f84612e6a565b81016020851015612f9e578190505b612fb2612faa85612e6a565b830182612f51565b50505b505050565b600082821c905092915050565b6000612fd860001984600802612fba565b1980831691505092915050565b6000612ff18383612fc7565b9150826002028217905092915050565b61300a826123e4565b67ffffffffffffffff81111561302357613022612270565b5b61302d8254612c32565b613038828285612f74565b600060209050601f83116001811461306b5760008415613059578287015190505b6130638582612fe5565b8655506130cb565b601f19841661307986612e55565b60005b828110156130a15784890151825560018201915060208501945060208101905061307c565b868310156130be57848901516130ba601f891682612fc7565b8355505b6001600288020188555050505b505050505050565b6000819050919050565b6130ee6130e98261206f565b6130d3565b82525050565b60008160601b9050919050565b600061310c826130f4565b9050919050565b600061311e82613101565b9050919050565b613136613131826120f2565b613113565b82525050565b600061314882866130dd565b6020820191506131588285613125565b60148201915061316882846130dd565b602082019150819050949350505050565b7f4e487b7100000000000000000000000000000000000000000000000000000000600052601260045260246000fd5b60006131b38261206f565b91506131be8361206f565b9250826131ce576131cd613179565b5b828206905092915050565b60006131e48261206f565b91506131ef8361206f565b9250826131ff576131fe613179565b5b828204905092915050565b60006132158261206f565b91506132208361206f565b925082820261322e8161206f565b9150828204841483151761324557613244612d1e565b5b5092915050565b600081519050919050565b600082825260208201905092915050565b60006132738261324c565b61327d8185613257565b935061328d818560208601612400565b6132968161225f565b840191505092915050565b600060a0820190506132b66000830188612a16565b6132c36020830187612a16565b6132d06040830186612170565b6132dd6060830185612170565b81810360808301526132ef8184613268565b90509695505050505050565b60008151905061330a816121c6565b92915050565b60006020828403121561332657613325612065565b5b6000613334848285016132fb565b91505092915050565b600060a0820190506133526000830188612a16565b61335f6020830187612a16565b81810360408301526133718186612913565b905081810360608301526133858185612913565b905081810360808301526133998184613268565b90509695505050505050565b60006080820190506133ba6000830187612a16565b6133c76020830186612170565b6133d46040830185612170565b6133e16060830184612170565b95945050505050565b600060408201905081810360008301526134048185612913565b905081810360208301526134188184612913565b9050939250505056fea264697066735822122059802568732fd26208c2287f83ec3307c266711c494ab24a339936ad8ea9347e64736f6c63430008140033687474703a2f2f35312e33382e3139302e3133342f63617264732f7b69647d2e6a736f6e",
    "linkReferences": {},
    "deployedLinkReferences": {}
}