{
  "_format": "hh-sol-artifact-1",
  "contractName": "BattleHelper",
  "sourceName": "contracts/battleHelper.sol",
  "abi": [
    {
      "inputs": [
        {
          "internalType": "address",
          "name": "sender",
          "type": "address"
        },
        {
          "internalType": "uint256",
          "name": "balance",
          "type": "uint256"
        },
        {
          "internalType": "uint256",
          "name": "needed",
          "type": "uint256"
        },
        {
          "internalType": "uint256",
          "name": "tokenId",
          "type": "uint256"
        }
      ],
      "name": "ERC1155InsufficientBalance",
      "type": "error"
    },
    {
      "inputs": [
        {
          "internalType": "address",
          "name": "approver",
          "type": "address"
        }
      ],
      "name": "ERC1155InvalidApprover",
      "type": "error"
    },
    {
      "inputs": [
        {
          "internalType": "uint256",
          "name": "idsLength",
          "type": "uint256"
        },
        {
          "internalType": "uint256",
          "name": "valuesLength",
          "type": "uint256"
        }
      ],
      "name": "ERC1155InvalidArrayLength",
      "type": "error"
    },
    {
      "inputs": [
        {
          "internalType": "address",
          "name": "operator",
          "type": "address"
        }
      ],
      "name": "ERC1155InvalidOperator",
      "type": "error"
    },
    {
      "inputs": [
        {
          "internalType": "address",
          "name": "receiver",
          "type": "address"
        }
      ],
      "name": "ERC1155InvalidReceiver",
      "type": "error"
    },
    {
      "inputs": [
        {
          "internalType": "address",
          "name": "sender",
          "type": "address"
        }
      ],
      "name": "ERC1155InvalidSender",
      "type": "error"
    },
    {
      "inputs": [
        {
          "internalType": "address",
          "name": "operator",
          "type": "address"
        },
        {
          "internalType": "address",
          "name": "owner",
          "type": "address"
        }
      ],
      "name": "ERC1155MissingApprovalForAll",
      "type": "error"
    },
    {
      "inputs": [
        {
          "internalType": "address",
          "name": "owner",
          "type": "address"
        }
      ],
      "name": "OwnableInvalidOwner",
      "type": "error"
    },
    {
      "inputs": [
        {
          "internalType": "address",
          "name": "account",
          "type": "address"
        }
      ],
      "name": "OwnableUnauthorizedAccount",
      "type": "error"
    },
    {
      "anonymous": false,
      "inputs": [
        {
          "indexed": true,
          "internalType": "address",
          "name": "account",
          "type": "address"
        },
        {
          "indexed": true,
          "internalType": "address",
          "name": "operator",
          "type": "address"
        },
        {
          "indexed": false,
          "internalType": "bool",
          "name": "approved",
          "type": "bool"
        }
      ],
      "name": "ApprovalForAll",
      "type": "event"
    },
    {
      "anonymous": false,
      "inputs": [
        {
          "indexed": false,
          "internalType": "address",
          "name": "_winner",
          "type": "address"
        },
        {
          "indexed": false,
          "internalType": "address",
          "name": "_loser",
          "type": "address"
        },
        {
          "indexed": true,
          "internalType": "uint256",
          "name": "_battleId",
          "type": "uint256"
        },
        {
          "indexed": false,
          "internalType": "bool",
          "name": "_res",
          "type": "bool"
        }
      ],
      "name": "BattleDone",
      "type": "event"
    },
    {
      "anonymous": false,
      "inputs": [
        {
          "indexed": true,
          "internalType": "uint256",
          "name": "_battleId",
          "type": "uint256"
        },
        {
          "indexed": false,
          "internalType": "bool",
          "name": "_res",
          "type": "bool"
        }
      ],
      "name": "BattleDoneDraw",
      "type": "event"
    },
    {
      "anonymous": false,
      "inputs": [
        {
          "indexed": true,
          "internalType": "address",
          "name": "_from",
          "type": "address"
        },
        {
          "indexed": true,
          "internalType": "uint256",
          "name": "_cardId",
          "type": "uint256"
        },
        {
          "indexed": true,
          "internalType": "uint256",
          "name": "_battleId",
          "type": "uint256"
        }
      ],
      "name": "BattleInitiated",
      "type": "event"
    },
    {
      "anonymous": false,
      "inputs": [
        {
          "indexed": true,
          "internalType": "address",
          "name": "_from",
          "type": "address"
        },
        {
          "indexed": true,
          "internalType": "uint256",
          "name": "_cardId",
          "type": "uint256"
        },
        {
          "indexed": true,
          "internalType": "uint256",
          "name": "_battleId",
          "type": "uint256"
        },
        {
          "indexed": false,
          "internalType": "bool",
          "name": "_res",
          "type": "bool"
        }
      ],
      "name": "BattleSelected",
      "type": "event"
    },
    {
      "anonymous": false,
      "inputs": [
        {
          "indexed": false,
          "internalType": "uint256",
          "name": "newCardIdMax",
          "type": "uint256"
        }
      ],
      "name": "CardIdMaxChanged",
      "type": "event"
    },
    {
      "anonymous": false,
      "inputs": [
        {
          "indexed": true,
          "internalType": "address",
          "name": "previousOwner",
          "type": "address"
        },
        {
          "indexed": true,
          "internalType": "address",
          "name": "newOwner",
          "type": "address"
        }
      ],
      "name": "OwnershipTransferred",
      "type": "event"
    },
    {
      "anonymous": false,
      "inputs": [
        {
          "indexed": true,
          "internalType": "address",
          "name": "operator",
          "type": "address"
        },
        {
          "indexed": true,
          "internalType": "address",
          "name": "from",
          "type": "address"
        },
        {
          "indexed": true,
          "internalType": "address",
          "name": "to",
          "type": "address"
        },
        {
          "indexed": false,
          "internalType": "uint256[]",
          "name": "ids",
          "type": "uint256[]"
        },
        {
          "indexed": false,
          "internalType": "uint256[]",
          "name": "values",
          "type": "uint256[]"
        }
      ],
      "name": "TransferBatch",
      "type": "event"
    },
    {
      "anonymous": false,
      "inputs": [
        {
          "indexed": true,
          "internalType": "address",
          "name": "operator",
          "type": "address"
        },
        {
          "indexed": true,
          "internalType": "address",
          "name": "from",
          "type": "address"
        },
        {
          "indexed": true,
          "internalType": "address",
          "name": "to",
          "type": "address"
        },
        {
          "indexed": false,
          "internalType": "uint256",
          "name": "id",
          "type": "uint256"
        },
        {
          "indexed": false,
          "internalType": "uint256",
          "name": "value",
          "type": "uint256"
        }
      ],
      "name": "TransferSingle",
      "type": "event"
    },
    {
      "anonymous": false,
      "inputs": [
        {
          "indexed": false,
          "internalType": "string",
          "name": "value",
          "type": "string"
        },
        {
          "indexed": true,
          "internalType": "uint256",
          "name": "id",
          "type": "uint256"
        }
      ],
      "name": "URI",
      "type": "event"
    },
    {
      "inputs": [
        {
          "internalType": "address",
          "name": "",
          "type": "address"
        },
        {
          "internalType": "uint256",
          "name": "",
          "type": "uint256"
        }
      ],
      "name": "addressToCardInBattle",
      "outputs": [
        {
          "internalType": "uint256",
          "name": "",
          "type": "uint256"
        }
      ],
      "stateMutability": "view",
      "type": "function"
    },
    {
      "inputs": [
        {
          "internalType": "address",
          "name": "account",
          "type": "address"
        },
        {
          "internalType": "uint256",
          "name": "id",
          "type": "uint256"
        }
      ],
      "name": "balanceOf",
      "outputs": [
        {
          "internalType": "uint256",
          "name": "",
          "type": "uint256"
        }
      ],
      "stateMutability": "view",
      "type": "function"
    },
    {
      "inputs": [
        {
          "internalType": "address[]",
          "name": "accounts",
          "type": "address[]"
        },
        {
          "internalType": "uint256[]",
          "name": "ids",
          "type": "uint256[]"
        }
      ],
      "name": "balanceOfBatch",
      "outputs": [
        {
          "internalType": "uint256[]",
          "name": "",
          "type": "uint256[]"
        }
      ],
      "stateMutability": "view",
      "type": "function"
    },
    {
      "inputs": [
        {
          "internalType": "uint256",
          "name": "",
          "type": "uint256"
        }
      ],
      "name": "battles",
      "outputs": [
        {
          "internalType": "address",
          "name": "player1",
          "type": "address"
        },
        {
          "internalType": "address",
          "name": "player2",
          "type": "address"
        },
        {
          "internalType": "uint256",
          "name": "cardIdPlayer1",
          "type": "uint256"
        },
        {
          "internalType": "uint256",
          "name": "cardIdPlayer2",
          "type": "uint256"
        },
        {
          "internalType": "uint256",
          "name": "amountPlayer1",
          "type": "uint256"
        },
        {
          "internalType": "uint256",
          "name": "amountPlayer2",
          "type": "uint256"
        },
        {
          "internalType": "address",
          "name": "winner",
          "type": "address"
        },
        {
          "internalType": "address",
          "name": "loser",
          "type": "address"
        },
        {
          "internalType": "bool",
          "name": "draw",
          "type": "bool"
        },
        {
          "internalType": "string",
          "name": "status",
          "type": "string"
        }
      ],
      "stateMutability": "view",
      "type": "function"
    },
    {
      "inputs": [
        {
          "internalType": "address",
          "name": "_from",
          "type": "address"
        },
        {
          "internalType": "uint256",
          "name": "_id",
          "type": "uint256"
        },
        {
          "internalType": "uint256",
          "name": "_value",
          "type": "uint256"
        }
      ],
      "name": "burn",
      "outputs": [],
      "stateMutability": "nonpayable",
      "type": "function"
    },
    {
      "inputs": [
        {
          "internalType": "uint256",
          "name": "_battleId",
          "type": "uint256"
        }
      ],
      "name": "cancelBattle",
      "outputs": [],
      "stateMutability": "nonpayable",
      "type": "function"
    },
    {
      "inputs": [],
      "name": "cardIdMax",
      "outputs": [
        {
          "internalType": "uint256",
          "name": "",
          "type": "uint256"
        }
      ],
      "stateMutability": "view",
      "type": "function"
    },
    {
      "inputs": [
        {
          "internalType": "uint256",
          "name": "",
          "type": "uint256"
        },
        {
          "internalType": "address",
          "name": "",
          "type": "address"
        }
      ],
      "name": "cardIdToOwnerToAmount",
      "outputs": [
        {
          "internalType": "uint256",
          "name": "",
          "type": "uint256"
        }
      ],
      "stateMutability": "view",
      "type": "function"
    },
    {
      "inputs": [
        {
          "internalType": "uint256",
          "name": "",
          "type": "uint256"
        },
        {
          "internalType": "uint256",
          "name": "",
          "type": "uint256"
        }
      ],
      "name": "cardIdToOwners",
      "outputs": [
        {
          "internalType": "address",
          "name": "",
          "type": "address"
        }
      ],
      "stateMutability": "view",
      "type": "function"
    },
    {
      "inputs": [
        {
          "internalType": "uint256",
          "name": "_cardIdMax",
          "type": "uint256"
        }
      ],
      "name": "changeCardIdMax",
      "outputs": [],
      "stateMutability": "nonpayable",
      "type": "function"
    },
    {
      "inputs": [
        {
          "internalType": "uint256",
          "name": "_battleId",
          "type": "uint256"
        },
        {
          "internalType": "uint256[]",
          "name": "_stats",
          "type": "uint256[]"
        }
      ],
      "name": "confirmBattle",
      "outputs": [],
      "stateMutability": "nonpayable",
      "type": "function"
    },
    {
      "inputs": [
        {
          "internalType": "uint256",
          "name": "id",
          "type": "uint256"
        }
      ],
      "name": "exists",
      "outputs": [
        {
          "internalType": "bool",
          "name": "",
          "type": "bool"
        }
      ],
      "stateMutability": "view",
      "type": "function"
    },
    {
      "inputs": [
        {
          "internalType": "address",
          "name": "_from",
          "type": "address"
        }
      ],
      "name": "getAllBalance",
      "outputs": [
        {
          "internalType": "uint256[]",
          "name": "",
          "type": "uint256[]"
        }
      ],
      "stateMutability": "view",
      "type": "function"
    },
    {
      "inputs": [],
      "name": "getAllBattle",
      "outputs": [
        {
          "components": [
            {
              "internalType": "address",
              "name": "player1",
              "type": "address"
            },
            {
              "internalType": "address",
              "name": "player2",
              "type": "address"
            },
            {
              "internalType": "uint256",
              "name": "cardIdPlayer1",
              "type": "uint256"
            },
            {
              "internalType": "uint256",
              "name": "cardIdPlayer2",
              "type": "uint256"
            },
            {
              "internalType": "uint256",
              "name": "amountPlayer1",
              "type": "uint256"
            },
            {
              "internalType": "uint256",
              "name": "amountPlayer2",
              "type": "uint256"
            },
            {
              "internalType": "uint256[]",
              "name": "statsPlayer1",
              "type": "uint256[]"
            },
            {
              "internalType": "uint256[]",
              "name": "statsPlayer2",
              "type": "uint256[]"
            },
            {
              "internalType": "address",
              "name": "winner",
              "type": "address"
            },
            {
              "internalType": "address",
              "name": "loser",
              "type": "address"
            },
            {
              "internalType": "bool",
              "name": "draw",
              "type": "bool"
            },
            {
              "internalType": "string",
              "name": "status",
              "type": "string"
            }
          ],
          "internalType": "struct Battle.BattleData[]",
          "name": "",
          "type": "tuple[]"
        }
      ],
      "stateMutability": "view",
      "type": "function"
    },
    {
      "inputs": [],
      "name": "getAllBattleUser",
      "outputs": [
        {
          "components": [
            {
              "internalType": "address",
              "name": "player1",
              "type": "address"
            },
            {
              "internalType": "address",
              "name": "player2",
              "type": "address"
            },
            {
              "internalType": "uint256",
              "name": "cardIdPlayer1",
              "type": "uint256"
            },
            {
              "internalType": "uint256",
              "name": "cardIdPlayer2",
              "type": "uint256"
            },
            {
              "internalType": "uint256",
              "name": "amountPlayer1",
              "type": "uint256"
            },
            {
              "internalType": "uint256",
              "name": "amountPlayer2",
              "type": "uint256"
            },
            {
              "internalType": "uint256[]",
              "name": "statsPlayer1",
              "type": "uint256[]"
            },
            {
              "internalType": "uint256[]",
              "name": "statsPlayer2",
              "type": "uint256[]"
            },
            {
              "internalType": "address",
              "name": "winner",
              "type": "address"
            },
            {
              "internalType": "address",
              "name": "loser",
              "type": "address"
            },
            {
              "internalType": "bool",
              "name": "draw",
              "type": "bool"
            },
            {
              "internalType": "string",
              "name": "status",
              "type": "string"
            }
          ],
          "internalType": "struct Battle.BattleData[]",
          "name": "",
          "type": "tuple[]"
        }
      ],
      "stateMutability": "view",
      "type": "function"
    },
    {
      "inputs": [
        {
          "internalType": "uint256",
          "name": "_id",
          "type": "uint256"
        },
        {
          "internalType": "address",
          "name": "_from",
          "type": "address"
        }
      ],
      "name": "getBalanceOf",
      "outputs": [
        {
          "internalType": "uint256",
          "name": "",
          "type": "uint256"
        }
      ],
      "stateMutability": "view",
      "type": "function"
    },
    {
      "inputs": [
        {
          "internalType": "uint256",
          "name": "_battleId",
          "type": "uint256"
        }
      ],
      "name": "getBattle",
      "outputs": [
        {
          "components": [
            {
              "internalType": "address",
              "name": "player1",
              "type": "address"
            },
            {
              "internalType": "address",
              "name": "player2",
              "type": "address"
            },
            {
              "internalType": "uint256",
              "name": "cardIdPlayer1",
              "type": "uint256"
            },
            {
              "internalType": "uint256",
              "name": "cardIdPlayer2",
              "type": "uint256"
            },
            {
              "internalType": "uint256",
              "name": "amountPlayer1",
              "type": "uint256"
            },
            {
              "internalType": "uint256",
              "name": "amountPlayer2",
              "type": "uint256"
            },
            {
              "internalType": "uint256[]",
              "name": "statsPlayer1",
              "type": "uint256[]"
            },
            {
              "internalType": "uint256[]",
              "name": "statsPlayer2",
              "type": "uint256[]"
            },
            {
              "internalType": "address",
              "name": "winner",
              "type": "address"
            },
            {
              "internalType": "address",
              "name": "loser",
              "type": "address"
            },
            {
              "internalType": "bool",
              "name": "draw",
              "type": "bool"
            },
            {
              "internalType": "string",
              "name": "status",
              "type": "string"
            }
          ],
          "internalType": "struct Battle.BattleData",
          "name": "",
          "type": "tuple"
        }
      ],
      "stateMutability": "view",
      "type": "function"
    },
    {
      "inputs": [],
      "name": "getCardIdMax",
      "outputs": [
        {
          "internalType": "uint256",
          "name": "",
          "type": "uint256"
        }
      ],
      "stateMutability": "view",
      "type": "function"
    },
    {
      "inputs": [
        {
          "internalType": "uint256",
          "name": "_cardId",
          "type": "uint256"
        }
      ],
      "name": "initBattle",
      "outputs": [],
      "stateMutability": "payable",
      "type": "function"
    },
    {
      "inputs": [
        {
          "internalType": "address",
          "name": "account",
          "type": "address"
        },
        {
          "internalType": "address",
          "name": "operator",
          "type": "address"
        }
      ],
      "name": "isApprovedForAll",
      "outputs": [
        {
          "internalType": "bool",
          "name": "",
          "type": "bool"
        }
      ],
      "stateMutability": "view",
      "type": "function"
    },
    {
      "inputs": [
        {
          "internalType": "address",
          "name": "_account",
          "type": "address"
        },
        {
          "internalType": "uint256",
          "name": "_id",
          "type": "uint256"
        },
        {
          "internalType": "uint256",
          "name": "_amount",
          "type": "uint256"
        },
        {
          "internalType": "bytes",
          "name": "_data",
          "type": "bytes"
        }
      ],
      "name": "mint",
      "outputs": [],
      "stateMutability": "nonpayable",
      "type": "function"
    },
    {
      "inputs": [
        {
          "internalType": "address",
          "name": "_to",
          "type": "address"
        },
        {
          "internalType": "uint256[]",
          "name": "_ids",
          "type": "uint256[]"
        },
        {
          "internalType": "uint256[]",
          "name": "_amounts",
          "type": "uint256[]"
        },
        {
          "internalType": "bytes",
          "name": "_data",
          "type": "bytes"
        }
      ],
      "name": "mintBatch",
      "outputs": [],
      "stateMutability": "nonpayable",
      "type": "function"
    },
    {
      "inputs": [],
      "name": "nonce",
      "outputs": [
        {
          "internalType": "uint256",
          "name": "",
          "type": "uint256"
        }
      ],
      "stateMutability": "view",
      "type": "function"
    },
    {
      "inputs": [],
      "name": "openPack",
      "outputs": [],
      "stateMutability": "payable",
      "type": "function"
    },
    {
      "inputs": [],
      "name": "owner",
      "outputs": [
        {
          "internalType": "address",
          "name": "",
          "type": "address"
        }
      ],
      "stateMutability": "view",
      "type": "function"
    },
    {
      "inputs": [],
      "name": "renounceOwnership",
      "outputs": [],
      "stateMutability": "nonpayable",
      "type": "function"
    },
    {
      "inputs": [
        {
          "internalType": "address",
          "name": "from",
          "type": "address"
        },
        {
          "internalType": "address",
          "name": "to",
          "type": "address"
        },
        {
          "internalType": "uint256[]",
          "name": "ids",
          "type": "uint256[]"
        },
        {
          "internalType": "uint256[]",
          "name": "values",
          "type": "uint256[]"
        },
        {
          "internalType": "bytes",
          "name": "data",
          "type": "bytes"
        }
      ],
      "name": "safeBatchTransferFrom",
      "outputs": [],
      "stateMutability": "nonpayable",
      "type": "function"
    },
    {
      "inputs": [
        {
          "internalType": "address",
          "name": "from",
          "type": "address"
        },
        {
          "internalType": "address",
          "name": "to",
          "type": "address"
        },
        {
          "internalType": "uint256",
          "name": "id",
          "type": "uint256"
        },
        {
          "internalType": "uint256",
          "name": "value",
          "type": "uint256"
        },
        {
          "internalType": "bytes",
          "name": "data",
          "type": "bytes"
        }
      ],
      "name": "safeTransferFrom",
      "outputs": [],
      "stateMutability": "nonpayable",
      "type": "function"
    },
    {
      "inputs": [
        {
          "internalType": "uint256",
          "name": "_cardId",
          "type": "uint256"
        },
        {
          "internalType": "uint256",
          "name": "_battleId",
          "type": "uint256"
        },
        {
          "internalType": "uint256[]",
          "name": "_stats",
          "type": "uint256[]"
        }
      ],
      "name": "selectBattle",
      "outputs": [],
      "stateMutability": "payable",
      "type": "function"
    },
    {
      "inputs": [
        {
          "internalType": "address",
          "name": "operator",
          "type": "address"
        },
        {
          "internalType": "bool",
          "name": "approved",
          "type": "bool"
        }
      ],
      "name": "setApprovalForAll",
      "outputs": [],
      "stateMutability": "nonpayable",
      "type": "function"
    },
    {
      "inputs": [
        {
          "internalType": "string",
          "name": "_newuri",
          "type": "string"
        }
      ],
      "name": "setURI",
      "outputs": [],
      "stateMutability": "nonpayable",
      "type": "function"
    },
    {
      "inputs": [
        {
          "internalType": "bytes4",
          "name": "interfaceId",
          "type": "bytes4"
        }
      ],
      "name": "supportsInterface",
      "outputs": [
        {
          "internalType": "bool",
          "name": "",
          "type": "bool"
        }
      ],
      "stateMutability": "view",
      "type": "function"
    },
    {
      "inputs": [
        {
          "internalType": "uint256",
          "name": "_tokenId",
          "type": "uint256"
        }
      ],
      "name": "tokenURI",
      "outputs": [
        {
          "internalType": "string",
          "name": "",
          "type": "string"
        }
      ],
      "stateMutability": "pure",
      "type": "function"
    },
    {
      "inputs": [],
      "name": "totalSupply",
      "outputs": [
        {
          "internalType": "uint256",
          "name": "",
          "type": "uint256"
        }
      ],
      "stateMutability": "view",
      "type": "function"
    },
    {
      "inputs": [
        {
          "internalType": "uint256",
          "name": "id",
          "type": "uint256"
        }
      ],
      "name": "totalSupply",
      "outputs": [
        {
          "internalType": "uint256",
          "name": "",
          "type": "uint256"
        }
      ],
      "stateMutability": "view",
      "type": "function"
    },
    {
      "inputs": [
        {
          "internalType": "address",
          "name": "newOwner",
          "type": "address"
        }
      ],
      "name": "transferOwnership",
      "outputs": [],
      "stateMutability": "nonpayable",
      "type": "function"
    },
    {
      "inputs": [
        {
          "internalType": "uint256",
          "name": "",
          "type": "uint256"
        }
      ],
      "name": "uri",
      "outputs": [
        {
          "internalType": "string",
          "name": "",
          "type": "string"
        }
      ],
      "stateMutability": "view",
      "type": "function"
    }
  ],
  "bytecode": "0x6080604052600960065560006007553480156200001b57600080fd5b5033604051806060016040528060298152602001620060a860299139620000428162000084565b506001600160a01b0381166200007257604051631e4fbdf760e01b81526000600482015260240160405180910390fd5b6200007d8162000096565b5062000259565b60026200009282826200018d565b5050565b600580546001600160a01b038381166001600160a01b0319831681179093556040519116919082907f8be0079c531659141344cd1fd0a4f28419497f9722a3daafe3b4186f6b6457e090600090a35050565b634e487b7160e01b600052604160045260246000fd5b600181811c908216806200011357607f821691505b6020821081036200013457634e487b7160e01b600052602260045260246000fd5b50919050565b601f8211156200018857600081815260208120601f850160051c81016020861015620001635750805b601f850160051c820191505b8181101562000184578281556001016200016f565b5050505b505050565b81516001600160401b03811115620001a957620001a9620000e8565b620001c181620001ba8454620000fe565b846200013a565b602080601f831160018114620001f95760008415620001e05750858301515b600019600386901b1c1916600185901b17855562000184565b600085815260208120601f198616915b828110156200022a5788860151825594840194600190910190840162000209565b5085821015620002495787850151600019600388901b60f8161c191681555b5050505050600190811b01905550565b615e3f80620002696000396000f3fe6080604052600436106102685760003560e01c80636dd0ce7a11610153578063bd85b039116100cb578063efefb0dd1161007f578063f242432a11610064578063f242432a1461072a578063f2fde38b1461074a578063f5298aca1461076a57600080fd5b8063efefb0dd146106df578063f1632cd11461071757600080fd5b8063c87b56dd116100b0578063c87b56dd1461063e578063e985e9c51461065e578063e9994267146106a757600080fd5b8063bd85b039146105f1578063bfa0af6d1461061e57600080fd5b80638da7722a11610122578063a22cb46511610107578063a22cb465146105a6578063affed0e0146105c6578063b24a97c3146105dc57600080fd5b80638da7722a146105705780639347fb3d1461058657600080fd5b80636dd0ce7a146104f0578063715018a61461051d578063731133e9146105325780638da5cb5b1461055257600080fd5b806334303187116101e65780634e1273f4116101b55780634f558e791161019a5780634f558e7914610478578063606d2e96146104a757806365a41521146104dd57600080fd5b80634e1273f4146104295780634f1b92fb1461045657600080fd5b806334303187146103b45780633c4ea385146103ec5780634673f332146103f45780634c4c447e1461040957600080fd5b80630e89341c1161023d5780631f7fdffa116102225780631f7fdffa1461035457806327343190146103745780632eb2c2d61461039457600080fd5b80630e89341c1461031257806318160ddd1461033f57600080fd5b806266fd0d1461026d578062fdd58e1461028f57806301ffc9a7146102c257806302fe5305146102f2575b600080fd5b34801561027957600080fd5b5061028d610288366004615148565b61078a565b005b34801561029b57600080fd5b506102af6102aa366004615178565b6107cd565b6040519081526020015b60405180910390f35b3480156102ce57600080fd5b506102e26102dd3660046151b8565b6107f5565b60405190151581526020016102b9565b3480156102fe57600080fd5b5061028d61030d366004615274565b610890565b34801561031e57600080fd5b5061033261032d366004615148565b6108a4565b6040516102b9919061530d565b34801561034b57600080fd5b506004546102af565b34801561036057600080fd5b5061028d61036f3660046153cf565b610938565b34801561038057600080fd5b5061028d61038f366004615468565b610952565b3480156103a057600080fd5b5061028d6103af3660046154af565b610c0e565b3480156103c057600080fd5b506103d46103cf366004615559565b610c94565b6040516001600160a01b0390911681526020016102b9565b61028d610ccc565b34801561040057600080fd5b506006546102af565b34801561041557600080fd5b5061028d610424366004615148565b610cd6565b34801561043557600080fd5b5061044961044436600461557b565b610fba565b6040516102b9919061566c565b34801561046257600080fd5b5061046b61108f565b6040516102b99190615768565b34801561048457600080fd5b506102e2610493366004615148565b600090815260036020526040902054151590565b3480156104b357600080fd5b506104c76104c2366004615148565b61109e565b6040516102b99a999897969594939291906157ca565b61028d6104eb366004615829565b6111a2565b3480156104fc57600080fd5b5061051061050b366004615148565b611513565b6040516102b99190615879565b34801561052957600080fd5b5061028d6117f5565b34801561053e57600080fd5b5061028d61054d36600461588c565b611807565b34801561055e57600080fd5b506005546001600160a01b03166103d4565b34801561057c57600080fd5b506102af60065481565b34801561059257600080fd5b506104496105a13660046158e1565b61181b565b3480156105b257600080fd5b5061028d6105c13660046158fc565b6118d0565b3480156105d257600080fd5b506102af60075481565b3480156105e857600080fd5b5061046b6118db565b3480156105fd57600080fd5b506102af61060c366004615148565b60009081526003602052604090205490565b34801561062a57600080fd5b506102af610639366004615938565b611af4565b34801561064a57600080fd5b50610332610659366004615148565b611b07565b34801561066a57600080fd5b506102e2610679366004615964565b6001600160a01b03918216600090815260016020908152604080832093909416825291909152205460ff1690565b3480156106b357600080fd5b506102af6106c2366004615938565b600860209081526000928352604080842090915290825290205481565b3480156106eb57600080fd5b506102af6106fa366004615178565b600a60209081526000928352604080842090915290825290205481565b61028d610725366004615148565b611b38565b34801561073657600080fd5b5061028d61074536600461598e565b611c78565b34801561075657600080fd5b5061028d6107653660046158e1565b611cf6565b34801561077657600080fd5b5061028d6107853660046159f3565b611d4a565b610792611d55565b60068190556040518181527f2ca7491c41b198f60823c9da02ca440dca6bfb5d6cd4ae0df705cc35de252fb39060200160405180910390a150565b6000818152602081815260408083206001600160a01b03861684529091529020545b92915050565b60006001600160e01b031982167fd9b67a2600000000000000000000000000000000000000000000000000000000148061085857506001600160e01b031982167f0e89341c00000000000000000000000000000000000000000000000000000000145b806107ef57507f01ffc9a7000000000000000000000000000000000000000000000000000000006001600160e01b03198316146107ef565b610898611d55565b6108a181611d9b565b50565b6060600280546108b390615a26565b80601f01602080910402602001604051908101604052809291908181526020018280546108df90615a26565b801561092c5780601f106109015761010080835404028352916020019161092c565b820191906000526020600020905b81548152906001019060200180831161090f57829003601f168201915b50505050509050919050565b610940611d55565b61094c84848484611da7565b50505050565b6000821180156109645750600b548211155b6109b55760405162461bcd60e51b815260206004820152601960248201527f5468697320626174746c6520646f65736e27742065786973740000000000000060448201526064015b60405180910390fd5b33600b6109c3600185615a76565b815481106109d3576109d3615a89565b60009182526020909120600b90910201546001600160a01b031614610a3a5760405162461bcd60e51b815260206004820152601f60248201527f596f7520617265206e6f742070617274206f66207468697320626174746c650060448201526064016109ac565b6040516577616974503160d01b602082015260260160405160208183030381529060405280519060200120600b600184610a749190615a76565b81548110610a8457610a84615a89565b90600052602060002090600b0201600a01604051602001610aa59190615a9f565b6040516020818303038152906040528051906020012014610b2e5760405162461bcd60e51b815260206004820152602960248201527f5468697320626174746c65206973206e6f742077616974696e6720666f72206160448201527f20706c617965722031000000000000000000000000000000000000000000000060648201526084016109ac565b8051600314610b7f5760405162461bcd60e51b815260206004820152601860248201527f596f75206e65656420746f2073656e642033207374617473000000000000000060448201526064016109ac565b6000610b8b8383611ddf565b905080610c005760405162461bcd60e51b815260206004820152603360248201527f536f6d657468696e672077656e742077726f6e6720647572696e67207468652060448201527f626174746c6520636f6e6669726d6174696f6e0000000000000000000000000060648201526084016109ac565b610c0983612141565b505050565b336001600160a01b0386168114801590610c4e57506001600160a01b0380871660009081526001602090815260408083209385168352929052205460ff16155b15610c7f5760405163711bec9160e11b81526001600160a01b038083166004830152871660248201526044016109ac565b610c8c8686868686612692565b505050505050565b60096020528160005260406000208181548110610cb057600080fd5b6000918252602090912001546001600160a01b03169150829050565b610cd46126f9565b565b600081118015610ce85750600b548111155b610d345760405162461bcd60e51b815260206004820152601960248201527f5468697320626174746c6520646f65736e27742065786973740000000000000060448201526064016109ac565b33600b610d42600184615a76565b81548110610d5257610d52615a89565b60009182526020909120600b90910201546001600160a01b031614610db95760405162461bcd60e51b815260206004820152601f60248201527f596f7520617265206e6f742070617274206f66207468697320626174746c650060448201526064016109ac565b6040516577616974503160d01b602082015260260160405160208183030381529060405280519060200120600b600183610df39190615a76565b81548110610e0357610e03615a89565b90600052602060002090600b0201600a01604051602001610e249190615a9f565b604051602081830303815290604052805190602001201480610ec45750604051653bb0b4ba281960d11b602082015260260160405160208183030381529060405280519060200120600b600183610e7b9190615a76565b81548110610e8b57610e8b615a89565b90600052602060002090600b0201600a01604051602001610eac9190615a9f565b60405160208183030381529060405280519060200120145b610f365760405162461bcd60e51b815260206004820152603560248201527f43616e742063616e63656c206120626174746c652074686174206973206e6f7460448201527f2077616974696e6720666f72206120706c61796572000000000000000000000060648201526084016109ac565b6000610f41826127bc565b905080610fb65760405162461bcd60e51b815260206004820152603360248201527f536f6d657468696e672077656e742077726f6e6720647572696e67207468652060448201527f626174746c652063616e63656c6c6174696f6e0000000000000000000000000060648201526084016109ac565b5050565b60608151835114610feb5781518351604051635b05999160e01b8152600481019290925260248201526044016109ac565b6000835167ffffffffffffffff811115611007576110076151d5565b604051908082528060200260200182016040528015611030578160200160208202803683370190505b50905060005b84518110156110875760208082028601015161105a906020808402870101516107cd565b82828151811061106c5761106c615a89565b602090810291909101015261108081615b15565b9050611036565b509392505050565b6060611099612c5b565b905090565b600b81815481106110ae57600080fd5b60009182526020909120600b9091020180546001820154600283015460038401546004850154600586015460088701546009880154600a890180546001600160a01b03998a169b509789169996989597949693959283169492821693600160a01b90920460ff169261111f90615a26565b80601f016020809104026020016040519081016040528092919081815260200182805461114b90615a26565b80156111985780601f1061116d57610100808354040283529160200191611198565b820191906000526020600020905b81548152906001019060200180831161117b57829003601f168201915b505050505090508a565b600034116111f25760405162461bcd60e51b815260206004820152601660248201527f596f75206e65656420746f2073656e642065746865720000000000000000000060448201526064016109ac565b60008311801561120457506006548311155b61120d57600080fd5b336000818152600a60209081526040808320878452909152812054909161123490866107cd565b61123e9190615a76565b116112a15760405162461bcd60e51b815260206004820152602d60248201527f596f7520646f6e2774206861766520656e6f75677468206f662074686973206360448201526c61726420617661696c61626c6560981b60648201526084016109ac565b6000821180156112b35750600b548211155b6112ff5760405162461bcd60e51b815260206004820152601960248201527f5468697320626174746c6520646f65736e27742065786973740000000000000060448201526064016109ac565b604051653bb0b4ba281960d11b602082015260260160405160208183030381529060405280519060200120600b6001846113399190615a76565b8154811061134957611349615a89565b90600052602060002090600b0201600a0160405160200161136a9190615a9f565b60405160208183030381529060405280519060200120146113f35760405162461bcd60e51b815260206004820152602960248201527f5468697320626174746c65206973206e6f742077616974696e6720666f72206160448201527f20706c617965722032000000000000000000000000000000000000000000000060648201526084016109ac565b80516003146114445760405162461bcd60e51b815260206004820152601860248201527f596f75206e65656420746f2073656e642033207374617473000000000000000060448201526064016109ac565b6000611451848484612ff6565b9050806114c65760405162461bcd60e51b815260206004820152603060248201527f536f6d657468696e672077656e742077726f6e6720647572696e67207468652060448201527f626174746c652073656c656374696f6e0000000000000000000000000000000060648201526084016109ac565b8284336001600160a01b03167fc559b3ccc5ecb04f988f93dc34629f418006013c2e2d95352ea77e50c3f21f7684604051611505911515815260200190565b60405180910390a450505050565b61159d60405180610180016040528060006001600160a01b0316815260200160006001600160a01b0316815260200160008152602001600081526020016000815260200160008152602001606081526020016060815260200160006001600160a01b0316815260200160006001600160a01b03168152602001600015158152602001606081525090565b6000821180156115af5750600b548211155b6115fb5760405162461bcd60e51b815260206004820152601960248201527f5468697320626174746c6520646f65736e27742065786973740000000000000060448201526064016109ac565b600b611608600184615a76565b8154811061161857611618615a89565b60009182526020918290206040805161018081018252600b90930290910180546001600160a01b039081168452600182015416838501526002810154838301526003810154606084015260048101546080840152600581015460a08401526006810180548351818702810187019094528084529394919360c0860193928301828280156116c457602002820191906000526020600020905b8154815260200190600101908083116116b0575b505050505081526020016007820180548060200260200160405190810160405280929190818152602001828054801561171c57602002820191906000526020600020905b815481526020019060010190808311611708575b505050918352505060088201546001600160a01b03908116602083015260098301549081166040830152600160a01b900460ff1615156060820152600a8201805460809092019161176c90615a26565b80601f016020809104026020016040519081016040528092919081815260200182805461179890615a26565b80156117e55780601f106117ba576101008083540402835291602001916117e5565b820191906000526020600020905b8154815290600101906020018083116117c857829003601f168201915b5050505050815250509050919050565b6117fd611d55565b610cd460006133b0565b61180f611d55565b61094c84848484613402565b6060600060065467ffffffffffffffff81111561183a5761183a6151d5565b604051908082528060200260200182016040528015611863578160200160208202803683370190505b50905060015b60065481116118c957600061187e85836107cd565b11156118b75761188e84826107cd565b8261189a600184615a76565b815181106118aa576118aa615a89565b6020026020010181815250505b806118c181615b15565b915050611869565b5092915050565b610fb633838361345f565b6060600b805480602002602001604051908101604052809291908181526020016000905b82821015611aeb5760008481526020908190206040805161018081018252600b860290920180546001600160a01b039081168452600182015416838501526002810154838301526003810154606084015260048101546080840152600581015460a08401526006810180548351818702810187019094528084529394919360c0860193928301828280156119b257602002820191906000526020600020905b81548152602001906001019080831161199e575b5050505050815260200160078201805480602002602001604051908101604052809291908181526020018280548015611a0a57602002820191906000526020600020905b8154815260200190600101908083116119f6575b505050918352505060088201546001600160a01b03908116602083015260098301549081166040830152600160a01b900460ff1615156060820152600a82018054608090920191611a5a90615a26565b80601f0160208091040260200160405190810160405280929190818152602001828054611a8690615a26565b8015611ad35780601f10611aa857610100808354040283529160200191611ad3565b820191906000526020600020905b815481529060010190602001808311611ab657829003601f168201915b505050505081525050815260200190600101906118ff565b50505050905090565b6000611b0082846107cd565b9392505050565b6060611b128261350f565b604051602001611b229190615b2e565b6040516020818303038152906040529050919050565b60003411611b885760405162461bcd60e51b815260206004820152601660248201527f596f75206e65656420746f2073656e642065746865720000000000000000000060448201526064016109ac565b600081118015611b9a57506006548111155b611ba357600080fd5b336000818152600a602090815260408083208584529091528120549091611bca90846107cd565b611bd49190615a76565b11611c375760405162461bcd60e51b815260206004820152602d60248201527f596f7520646f6e2774206861766520656e6f75677468206f662074686973206360448201526c61726420617661696c61626c6560981b60648201526084016109ac565b6000611c42826135af565b6040519091508190839033907f7d449fa6e54154e0708080fd25570c187f5f5a38662c42a2324d966ec07b926f90600090a45050565b336001600160a01b0386168114801590611cb857506001600160a01b0380871660009081526001602090815260408083209385168352929052205460ff16155b15611ce95760405163711bec9160e11b81526001600160a01b038083166004830152871660248201526044016109ac565b610c8c8686868686613869565b611cfe611d55565b6001600160a01b038116611d41576040517f1e4fbdf7000000000000000000000000000000000000000000000000000000008152600060048201526024016109ac565b6108a1816133b0565b610c098383836138f7565b6005546001600160a01b03163314610cd4576040517f118cdaa70000000000000000000000000000000000000000000000000000000081523360048201526024016109ac565b6002610fb68282615bdf565b6001600160a01b038416611dd157604051632bfa23e760e11b8152600060048201526024016109ac565b61094c600085858585613902565b600080600b611def600186615a76565b81548110611dff57611dff615a89565b60009182526020918290206040805161018081018252600b90930290910180546001600160a01b039081168452600182015416838501526002810154838301526003810154606084015260048101546080840152600581015460a08401526006810180548351818702810187019094528084529394919360c086019392830182828015611eab57602002820191906000526020600020905b815481526020019060010190808311611e97575b5050505050815260200160078201805480602002602001604051908101604052809291908181526020018280548015611f0357602002820191906000526020600020905b815481526020019060010190808311611eef575b505050918352505060088201546001600160a01b03908116602083015260098301549081166040830152600160a01b900460ff1615156060820152600a82018054608090920191611f5390615a26565b80601f0160208091040260200160405190810160405280929190818152602001828054611f7f90615a26565b8015611fcc5780601f10611fa157610100808354040283529160200191611fcc565b820191906000526020600020905b815481529060010190602001808311611faf57829003601f168201915b5050509190925250505060c0810184905260408051808201909152600981526818dbdb999a5c9b595960ba1b6020820152610160820152905080600b612013600187615a76565b8154811061202357612023615a89565b60009182526020918290208351600b9092020180546001600160a01b039283166001600160a01b0319918216178255848401516001830180549190941691161790915560408301516002820155606083015160038201556080830151600482015560a0830151600582015560c0830151805191926120a9926006850192909101906150e8565b5060e082015180516120c59160078401916020909101906150e8565b506101008201516008820180546001600160a01b0319166001600160a01b03928316179055610120830151600983018054610140860151929093166001600160a81b031990931692909217600160a01b91151591909102179055610160820151600a8201906121349082615bdf565b5060019695505050505050565b6000811180156121535750600b548111155b61219f5760405162461bcd60e51b815260206004820152601960248201527f5468697320626174746c6520646f65736e27742065786973740000000000000060448201526064016109ac565b33600b6121ad600184615a76565b815481106121bd576121bd615a89565b60009182526020909120600b90910201546001600160a01b0316146122245760405162461bcd60e51b815260206004820152601f60248201527f596f7520617265206e6f742070617274206f66207468697320626174746c650060448201526064016109ac565b6040516818dbdb999a5c9b595960ba1b602082015260290160405160208183030381529060405280519060200120600b6001836122619190615a76565b8154811061227157612271615a89565b90600052602060002090600b0201600a016040516020016122929190615a9f565b60405160208183030381529060405280519060200120146122f55760405162461bcd60e51b815260206004820152601c60248201527f5468697320626174746c65206973206e6f7420636f6e6669726d65640000000060448201526064016109ac565b600061230082613955565b9050806123755760405162461bcd60e51b815260206004820152602660248201527f536f6d657468696e672077656e742077726f6e6720647572696e67207468652060448201527f626174746c65000000000000000000000000000000000000000000000000000060648201526084016109ac565b6000600b612384600185615a76565b8154811061239457612394615a89565b60009182526020918290206040805161018081018252600b90930290910180546001600160a01b039081168452600182015416838501526002810154838301526003810154606084015260048101546080840152600581015460a08401526006810180548351818702810187019094528084529394919360c08601939283018282801561244057602002820191906000526020600020905b81548152602001906001019080831161242c575b505050505081526020016007820180548060200260200160405190810160405280929190818152602001828054801561249857602002820191906000526020600020905b815481526020019060010190808311612484575b505050918352505060088201546001600160a01b03908116602083015260098301549081166040830152600160a01b900460ff1615156060820152600a820180546080909201916124e890615a26565b80601f016020809104026020016040519081016040528092919081815260200182805461251490615a26565b80156125615780601f1061253657610100808354040283529160200191612561565b820191906000526020600020905b81548152906001019060200180831161254457829003601f168201915b5050505050815250509050806101400151156125b857827f89aca0360a8e6579f9b4a53b0406d026b2f7a9e5b0bc133d2c1013f220d696f8836040516125ab911515815260200190565b60405180910390a2505050565b6101008101516001600160a01b03166126395760405162461bcd60e51b815260206004820152603f60248201527f536f6d657468696e672077656e742077726f6e6720647572696e67207468652060448201527f626174746c6520286e6f74206472617720616e64206e6f2077696e6e6572290060648201526084016109ac565b610100810151610120820151604080516001600160a01b0393841681529290911660208301528315159082015283907f73b75fe4a38b6c1172654d3174302c242d6b3d69c0d892d7f27a7934d6d9794a906060016125ab565b6001600160a01b0384166126bc57604051632bfa23e760e11b8152600060048201526024016109ac565b6001600160a01b0385166126e557604051626a0d4560e21b8152600060048201526024016109ac565b6126f28585858585613902565b5050505050565b3464e8d4a51000146127735760405162461bcd60e51b815260206004820152602d60248201527f596f75206e65656420746f2070617920302e303030303031206574686572207460448201527f6f206f70656e2061207061636b0000000000000000000000000000000000000060648201526084016109ac565b600061277d614214565b9050600061278a82614265565b905060006127966142aa565b905060006127a3826142fa565b905060006127b18483615c9f565b90506126f281614337565b600080600b6127cc600185615a76565b815481106127dc576127dc615a89565b60009182526020918290206040805161018081018252600b90930290910180546001600160a01b039081168452600182015416838501526002810154838301526003810154606084015260048101546080840152600581015460a08401526006810180548351818702810187019094528084529394919360c08601939283018282801561288857602002820191906000526020600020905b815481526020019060010190808311612874575b50505050508152602001600782018054806020026020016040519081016040528092919081815260200182805480156128e057602002820191906000526020600020905b8154815260200190600101908083116128cc575b505050918352505060088201546001600160a01b03908116602083015260098301549081166040830152600160a01b900460ff1615156060820152600a8201805460809092019161293090615a26565b80601f016020809104026020016040519081016040528092919081815260200182805461295c90615a26565b80156129a95780601f1061297e576101008083540402835291602001916129a9565b820191906000526020600020905b81548152906001019060200180831161298c57829003601f168201915b505050919092525050815160808301516040519394506001600160a01b039091169281156108fc0292506000818181858888f193505050501580156129f2573d6000803e3d6000fd5b5080516001600160a01b03166000908152600a60209081526040808320818501518452909152902054612a26906001614430565b81516001600160a01b039081166000908152600a6020908152604080832081870151845282528083209490945584015160a0850151935192169280156108fc02929091818181858888f19350505050158015612a86573d6000803e3d6000fd5b506020808201516001600160a01b03166000908152600a82526040808220606085015183529092522054612abb906001614430565b6020808301516001600160a01b03166000908152600a8252604080822060608601518352835290819020929092558151808301909252600882527f63616e63656c65640000000000000000000000000000000000000000000000009082015261016082015280600b612b2e600186615a76565b81548110612b3e57612b3e615a89565b60009182526020918290208351600b9092020180546001600160a01b039283166001600160a01b0319918216178255848401516001830180549190941691161790915560408301516002820155606083015160038201556080830151600482015560a0830151600582015560c083015180519192612bc4926006850192909101906150e8565b5060e08201518051612be09160078401916020909101906150e8565b506101008201516008820180546001600160a01b0319166001600160a01b03928316179055610120830151600983018054610140860151929093166001600160a81b031990931692909217600160a01b91151591909102179055610160820151600a820190612c4f9082615bdf565b50600195945050505050565b600b5460609060009067ffffffffffffffff811115612c7c57612c7c6151d5565b604051908082528060200260200182016040528015612d3757816020015b612d2460405180610180016040528060006001600160a01b0316815260200160006001600160a01b0316815260200160008152602001600081526020016000815260200160008152602001606081526020016060815260200160006001600160a01b0316815260200160006001600160a01b03168152602001600015158152602001606081525090565b815260200190600190039081612c9a5790505b5090506000805b600b54811015612fee57336001600160a01b0316600b8281548110612d6557612d65615a89565b60009182526020909120600b90910201546001600160a01b03161480612dc25750336001600160a01b0316600b8281548110612da357612da3615a89565b600091825260209091206001600b9092020101546001600160a01b0316145b15612fdc57600b8181548110612dda57612dda615a89565b60009182526020918290206040805161018081018252600b90930290910180546001600160a01b039081168452600182015416838501526002810154838301526003810154606084015260048101546080840152600581015460a08401526006810180548351818702810187019094528084529394919360c086019392830182828015612e8657602002820191906000526020600020905b815481526020019060010190808311612e72575b5050505050815260200160078201805480602002602001604051908101604052809291908181526020018280548015612ede57602002820191906000526020600020905b815481526020019060010190808311612eca575b505050918352505060088201546001600160a01b03908116602083015260098301549081166040830152600160a01b900460ff1615156060820152600a82018054608090920191612f2e90615a26565b80601f0160208091040260200160405190810160405280929190818152602001828054612f5a90615a26565b8015612fa75780601f10612f7c57610100808354040283529160200191612fa7565b820191906000526020600020905b815481529060010190602001808311612f8a57829003601f168201915b505050505081525050838381518110612fc257612fc2615a89565b60200260200101819052508180612fd890615b15565b9250505b80612fe681615b15565b915050612d3e565b509092915050565b336000908152600a6020908152604080832086845290915281205461301c90600161444c565b336000908152600a60209081526040808320888452909152812091909155600b613047600186615a76565b8154811061305757613057615a89565b60009182526020918290206040805161018081018252600b90930290910180546001600160a01b039081168452600182015416838501526002810154838301526003810154606084015260048101546080840152600581015460a08401526006810180548351818702810187019094528084529394919360c08601939283018282801561310357602002820191906000526020600020905b8154815260200190600101908083116130ef575b505050505081526020016007820180548060200260200160405190810160405280929190818152602001828054801561315b57602002820191906000526020600020905b815481526020019060010190808311613147575b505050918352505060088201546001600160a01b03908116602083015260098301549081166040830152600160a01b900460ff1615156060820152600a820180546080909201916131ab90615a26565b80601f01602080910402602001604051908101604052809291908181526020018280546131d790615a26565b80156132245780601f106131f957610100808354040283529160200191613224565b820191906000526020600020905b81548152906001019060200180831161320757829003601f168201915b50505091909252505033602080840191909152606083018890523460a084015260e0830186905260408051808201909152600681526577616974503160d01b9181019190915261016083015250905080600b613281600187615a76565b8154811061329157613291615a89565b60009182526020918290208351600b9092020180546001600160a01b039283166001600160a01b0319918216178255848401516001830180549190941691161790915560408301516002820155606083015160038201556080830151600482015560a0830151600582015560c083015180519192613317926006850192909101906150e8565b5060e082015180516133339160078401916020909101906150e8565b506101008201516008820180546001600160a01b0319166001600160a01b03928316179055610120830151600983018054610140860151929093166001600160a81b031990931692909217600160a01b91151591909102179055610160820151600a8201906133a29082615bdf565b506001979650505050505050565b600580546001600160a01b038381166001600160a01b0319831681179093556040519116919082907f8be0079c531659141344cd1fd0a4f28419497f9722a3daafe3b4186f6b6457e090600090a35050565b6001600160a01b03841661342c57604051632bfa23e760e11b8152600060048201526024016109ac565b60408051600180825260208201869052818301908152606082018590526080820190925290610c8c600087848487613902565b6001600160a01b0382166134a2576040517fced3e100000000000000000000000000000000000000000000000000000000008152600060048201526024016109ac565b6001600160a01b03838116600081815260016020908152604080832094871680845294825291829020805460ff191686151590811790915591519182527f17307eab39ab6107e8899845ad3d59bd9653f200f220920489ca2b5937696c31910160405180910390a3505050565b6060600061351c8361446b565b600101905060008167ffffffffffffffff81111561353c5761353c6151d5565b6040519080825280601f01601f191660200182016040528015613566576020820181803683370190505b5090508181016020015b600019017f3031323334353637383961626364656600000000000000000000000000000000600a86061a8153600a850494508461357057509392505050565b336000908152600a602090815260408083208484529091528120546135d590600161444c565b336000818152600a6020908152604080832087845282528083209490945583516101808101855292835282810182815283850187815260608501848152346080870190815260a0870186815288518781528087018a5260c0890190815289518881528088018b5260e08a01526101008901889052610120890188905261014089018890528951808b01909a5260068a52653bb0b4ba281960d11b8a880152610160890199909952600b805460018101825597819052885197027f0175b7a638427703f0dbe7bb9bbf987a2551717b34e79f33b5b1008d1fa01db9810180546001600160a01b03998a166001600160a01b031991821617825596517f0175b7a638427703f0dbe7bb9bbf987a2551717b34e79f33b5b1008d1fa01dba8301805491909a1697169690961790975592517f0175b7a638427703f0dbe7bb9bbf987a2551717b34e79f33b5b1008d1fa01dbb87015590517f0175b7a638427703f0dbe7bb9bbf987a2551717b34e79f33b5b1008d1fa01dbc860155517f0175b7a638427703f0dbe7bb9bbf987a2551717b34e79f33b5b1008d1fa01dbd850155517f0175b7a638427703f0dbe7bb9bbf987a2551717b34e79f33b5b1008d1fa01dbe840155935180519394859490936137d1937f0175b7a638427703f0dbe7bb9bbf987a2551717b34e79f33b5b1008d1fa01dbf9091019201906150e8565b5060e082015180516137ed9160078401916020909101906150e8565b506101008201516008820180546001600160a01b0319166001600160a01b03928316179055610120830151600983018054610140860151929093166001600160a81b031990931692909217600160a01b91151591909102179055610160820151600a82019061385c9082615bdf565b5050600b54949350505050565b6001600160a01b03841661389357604051632bfa23e760e11b8152600060048201526024016109ac565b6001600160a01b0385166138bc57604051626a0d4560e21b8152600060048201526024016109ac565b604080516001808252602082018690528183019081526060820185905260808201909252906138ee8787848487613902565b50505050505050565b610c0983838361454d565b61390e858585856145b5565b6001600160a01b038416156126f2578251339060010361394757602084810151908401516139408389898585896145c1565b5050610c8c565b610c8c8187878787876146e5565b600080600b613965600185615a76565b8154811061397557613975615a89565b60009182526020918290206040805161018081018252600b90930290910180546001600160a01b039081168452600182015416838501526002810154838301526003810154606084015260048101546080840152600581015460a08401526006810180548351818702810187019094528084529394919360c086019392830182828015613a2157602002820191906000526020600020905b815481526020019060010190808311613a0d575b5050505050815260200160078201805480602002602001604051908101604052809291908181526020018280548015613a7957602002820191906000526020600020905b815481526020019060010190808311613a65575b505050918352505060088201546001600160a01b03908116602083015260098301549081166040830152600160a01b900460ff1615156060820152600a82018054608090920191613ac990615a26565b80601f0160208091040260200160405190810160405280929190818152602001828054613af590615a26565b8015613b425780601f10613b1757610100808354040283529160200191613b42565b820191906000526020600020905b815481529060010190602001808311613b2557829003601f168201915b5050509190925250505060c081015160e082015160408301516060840151608085015160a086015195965093949293919290919060008080805b6003811015613c2b57888181518110613b9757613b97615a89565b60200260200101518a8281518110613bb157613bb1615a89565b60200260200101511115613bd15783613bc981615b15565b945050613c19565b888181518110613be357613be3615a89565b60200260200101518a8281518110613bfd57613bfd615a89565b60200260200101511015613c195782613c1581615b15565b9350505b80613c2381615b15565b915050613b7c565b5081831115613c5a575088516001600160a01b039081166101008b015260208a0151166101208a015285613f8b565b81831015613c88575060208901516001600160a01b039081166101008b01528951166101208a015284613f8b565b60006101008b018190526101208b0181905260016101408c0152604080518082018252600481527f647261770000000000000000000000000000000000000000000000000000000060208201526101608d01528b5190516001600160a01b03909116916108fc881502918891818181858888f19350505050158015613d11573d6000803e3d6000fd5b5089602001516001600160a01b03166108fc859081150290604051600060405180830381858888f19350505050158015613d4f573d6000803e3d6000fd5b5089600b613d5e60018f615a76565b81548110613d6e57613d6e615a89565b60009182526020918290208351600b9092020180546001600160a01b039283166001600160a01b0319918216178255848401516001830180549190941691161790915560408301516002820155606083015160038201556080830151600482015560a0830151600582015560c083015180519192613df4926006850192909101906150e8565b5060e08201518051613e109160078401916020909101906150e8565b506101008201516008820180546001600160a01b0319166001600160a01b03928316179055610120830151600983018054610140860151929093166001600160a81b031990931692909217600160a01b91151591909102179055610160820151600a820190613e7f9082615bdf565b50508a516001600160a01b03166000908152600a60209081526040808320818f01518452909152902054613eb591506001614430565b600a60008c600001516001600160a01b03166001600160a01b0316815260200190815260200160002060008c60400151815260200190815260200160002081905550613f496001600a60008d602001516001600160a01b03166001600160a01b0316815260200190815260200160002060008d6060015181526020019081526020016000205461443090919063ffffffff16565b6020808c01516001600160a01b03166000908152600a825260408082206060909e015182529c9091529a909a20999099555060019a9950505050505050505050565b60408051808201909152600481527f646f6e650000000000000000000000000000000000000000000000000000000060208201526101608b015289600b613fd360018f615a76565b81548110613fe357613fe3615a89565b60009182526020918290208351600b9092020180546001600160a01b039283166001600160a01b0319918216178255848401516001830180549190941691161790915560408301516002820155606083015160038201556080830151600482015560a0830151600582015560c083015180519192614069926006850192909101906150e8565b5060e082015180516140859160078401916020909101906150e8565b506101008201516008820180546001600160a01b0319166001600160a01b03928316179055610120830151600983018054610140860151929093166001600160a81b031990931692909217600160a01b91151591909102179055610160820151600a8201906140f49082615bdf565b50508a516001600160a01b03166000908152600a60209081526040808320818f0151845290915290205461412a91506001614430565b600a60008c600001516001600160a01b03166001600160a01b0316815260200190815260200160002060008c604001518152602001908152602001600020819055506141be6001600a60008d602001516001600160a01b03166001600160a01b0316815260200190815260200160002060008d6060015181526020019081526020016000205461443090919063ffffffff16565b6020808c01516001600160a01b03166000908152600a8252604080822060608f01518352909252908120919091556141f6868661444c565b90506142038d82846147ce565b9d9c50505050505050505050505050565b604080514260208201526bffffffffffffffffffffffff193360601b169181019190915244605482015260009081906074015b60408051601f19818403018152919052805160209091012092915050565b60006014614274606484615cc8565b101561428257506002919050565b603261428f606484615cc8565b101561429d57506001919050565b506000919050565b919050565b60078054600091826142bb83615b15565b9091555050600754604080514260208201526bffffffffffffffffffffffff193360601b16918101919091526054810191909152600090607401614247565b60006002600360065461430d9190615cdc565b6143179084615cc8565b614322906001615c9f565b61432d906003615cf0565b6107ef9190615a76565b6143533382600160405180602001604052806000815250613402565b600081815260086020908152604080832033845290915290205461437890600161444c565b60008281526008602090815260408083203384529091528120919091555b6000828152600960205260409020548110156143ff5760008281526009602052604090208054339190839081106143cf576143cf615a89565b6000918252602090912001546001600160a01b0316036143ed575050565b806143f781615b15565b915050614396565b5060009081526009602090815260408220805460018101825590835291200180546001600160a01b03191633179055565b60008282111561444257614442615d07565b611b008284615a76565b6000806144598385615c9f565b905083811015611b0057611b00615d07565b6000807a184f03e93ff9f4daa797ed6e38ed64bf6a1f01000000000000000083106144b4577a184f03e93ff9f4daa797ed6e38ed64bf6a1f010000000000000000830492506040015b6d04ee2d6d415b85acef810000000083106144e0576d04ee2d6d415b85acef8100000000830492506020015b662386f26fc1000083106144fe57662386f26fc10000830492506010015b6305f5e1008310614516576305f5e100830492506008015b612710831061452a57612710830492506004015b6064831061453c576064830492506002015b600a83106107ef5760010192915050565b6001600160a01b03831661457657604051626a0d4560e21b8152600060048201526024016109ac565b604080516001808252602082018590528183019081526060820184905260a082019092526000608082018181529192916126f291879185908590613902565b61094c84848484614d0b565b6001600160a01b0384163b15610c8c5760405163f23a6e6160e01b81526001600160a01b0385169063f23a6e61906146059089908990889088908890600401615d1d565b6020604051808303816000875af1925050508015614640575060408051601f3d908101601f1916820190925261463d91810190615d60565b60015b6146a9573d80801561466e576040519150601f19603f3d011682016040523d82523d6000602084013e614673565b606091505b5080516000036146a157604051632bfa23e760e11b81526001600160a01b03861660048201526024016109ac565b805181602001fd5b6001600160e01b0319811663f23a6e6160e01b146138ee57604051632bfa23e760e11b81526001600160a01b03861660048201526024016109ac565b6001600160a01b0384163b15610c8c5760405163bc197c8160e01b81526001600160a01b0385169063bc197c81906147299089908990889088908890600401615d7d565b6020604051808303816000875af1925050508015614764575060408051601f3d908101601f1916820190925261476191810190615d60565b60015b614792573d80801561466e576040519150601f19603f3d011682016040523d82523d6000602084013e614673565b6001600160e01b0319811663bc197c8160e01b146138ee57604051632bfa23e760e11b81526001600160a01b03861660048201526024016109ac565b600080600b6147de600187615a76565b815481106147ee576147ee615a89565b60009182526020918290206040805161018081018252600b90930290910180546001600160a01b039081168452600182015416838501526002810154838301526003810154606084015260048101546080840152600581015460a08401526006810180548351818702810187019094528084529394919360c08601939283018282801561489a57602002820191906000526020600020905b815481526020019060010190808311614886575b50505050508152602001600782018054806020026020016040519081016040528092919081815260200182805480156148f257602002820191906000526020600020905b8154815260200190600101908083116148de575b505050918352505060088201546001600160a01b03908116602083015260098301549081166040830152600160a01b900460ff1615156060820152600a8201805460809092019161494290615a26565b80601f016020809104026020016040519081016040528092919081815260200182805461496e90615a26565b80156149bb5780601f10614990576101008083540402835291602001916149bb565b820191906000526020600020905b81548152906001019060200180831161499e57829003601f168201915b505050505081525050905060006149e760646149e1600a88614e6590919063ffffffff16565b90614e9d565b90506000805b600086815260096020526040902054811015614a7757600086815260086020908152604080832060099092528220805483919085908110614a3057614a30615a89565b60009182526020808320909101546001600160a01b031683528201929092526040019020549050614a61838261444c565b9250508080614a6f90615b15565b9150506149ed565b508015614b80576000614a8a8383614e9d565b905060005b600087815260096020526040902054811015614b7d57600087815260086020908152604080832060099092528220805483919085908110614ad257614ad2615a89565b60009182526020808320909101546001600160a01b031683528201929092526040018120549150614b038483614e65565b60008a815260096020526040902080549192509084908110614b2757614b27615a89565b60009182526020822001546040516001600160a01b039091169183156108fc02918491818181858888f19350505050158015614b67573d6000803e3d6000fd5b5050508080614b7590615b15565b915050614a8f565b50505b6000614b8c8784614430565b6101008501516040519192506001600160a01b03169082156108fc029083906000818181858888f19350505050158015614bca573d6000803e3d6000fd5b5083600b614bd960018b615a76565b81548110614be957614be9615a89565b60009182526020918290208351600b9092020180546001600160a01b039283166001600160a01b0319918216178255848401516001830180549190941691161790915560408301516002820155606083015160038201556080830151600482015560a0830151600582015560c083015180519192614c6f926006850192909101906150e8565b5060e08201518051614c8b9160078401916020909101906150e8565b506101008201516008820180546001600160a01b0319166001600160a01b03928316179055610120830151600983018054610140860151929093166001600160a81b031990931692909217600160a01b91151591909102179055610160820151600a820190614cfa9082615bdf565b5060019a9950505050505050505050565b614d1784848484614eb2565b6001600160a01b038416614dca576000805b8351811015614db0576000838281518110614d4657614d46615a89565b602002602001015190508060036000878581518110614d6757614d67615a89565b602002602001015181526020019081526020016000206000828254614d8c9190615c9f565b90915550614d9c90508184615c9f565b92505080614da990615b15565b9050614d29565b508060046000828254614dc39190615c9f565b9091555050505b6001600160a01b03831661094c576000805b8351811015614e54576000838281518110614df957614df9615a89565b602002602001015190508060036000878581518110614e1a57614e1a615a89565b602002602001015181526020019081526020016000206000828254039250508190555080830192505080614e4d90615b15565b9050614ddc565b506004805491909103905550505050565b600082600003614e77575060006107ef565b6000614e838385615cf0565b905082614e908583615cdc565b14611b0057611b00615d07565b600080614eaa8385615cdc565b949350505050565b8051825114614ee15781518151604051635b05999160e01b8152600481019290925260248201526044016109ac565b3360005b8351811015615009576020818102858101820151908501909101516001600160a01b03881615614fb1576000828152602081815260408083206001600160a01b038c16845290915290205481811015614f8a576040517f03dee4c50000000000000000000000000000000000000000000000000000000081526001600160a01b038a1660048201526024810182905260448101839052606481018490526084016109ac565b6000838152602081815260408083206001600160a01b038d16845290915290209082900390555b6001600160a01b03871615614ff6576000828152602081815260408083206001600160a01b038b16845290915281208054839290614ff0908490615c9f565b90915550505b50508061500290615b15565b9050614ee5565b50825160010361508a5760208301516000906020840151909150856001600160a01b0316876001600160a01b0316846001600160a01b03167fc3d58168c5ae7397731d063d5bbf3d657854427343f4c083240f7aacaa2d0f62858560405161507b929190918252602082015260400190565b60405180910390a450506126f2565b836001600160a01b0316856001600160a01b0316826001600160a01b03167f4a39dc06d4c0dbc64b70af90fd698a233a518aa5d07e595d983b8c0526c8f7fb86866040516150d9929190615ddb565b60405180910390a45050505050565b828054828255906000526020600020908101928215615123579160200282015b82811115615123578251825591602001919060010190615108565b5061512f929150615133565b5090565b5b8082111561512f5760008155600101615134565b60006020828403121561515a57600080fd5b5035919050565b80356001600160a01b03811681146142a557600080fd5b6000806040838503121561518b57600080fd5b61519483615161565b946020939093013593505050565b6001600160e01b0319811681146108a157600080fd5b6000602082840312156151ca57600080fd5b8135611b00816151a2565b634e487b7160e01b600052604160045260246000fd5b604051601f8201601f1916810167ffffffffffffffff81118282101715615214576152146151d5565b604052919050565b600067ffffffffffffffff831115615236576152366151d5565b615249601f8401601f19166020016151eb565b905082815283838301111561525d57600080fd5b828260208301376000602084830101529392505050565b60006020828403121561528657600080fd5b813567ffffffffffffffff81111561529d57600080fd5b8201601f810184136152ae57600080fd5b614eaa8482356020840161521c565b60005b838110156152d85781810151838201526020016152c0565b50506000910152565b600081518084526152f98160208601602086016152bd565b601f01601f19169290920160200192915050565b602081526000611b0060208301846152e1565b600067ffffffffffffffff82111561533a5761533a6151d5565b5060051b60200190565b600082601f83011261535557600080fd5b8135602061536a61536583615320565b6151eb565b82815260059290921b8401810191818101908684111561538957600080fd5b8286015b848110156153a4578035835291830191830161538d565b509695505050505050565b600082601f8301126153c057600080fd5b611b008383356020850161521c565b600080600080608085870312156153e557600080fd5b6153ee85615161565b9350602085013567ffffffffffffffff8082111561540b57600080fd5b61541788838901615344565b9450604087013591508082111561542d57600080fd5b61543988838901615344565b9350606087013591508082111561544f57600080fd5b5061545c878288016153af565b91505092959194509250565b6000806040838503121561547b57600080fd5b82359150602083013567ffffffffffffffff81111561549957600080fd5b6154a585828601615344565b9150509250929050565b600080600080600060a086880312156154c757600080fd5b6154d086615161565b94506154de60208701615161565b9350604086013567ffffffffffffffff808211156154fb57600080fd5b61550789838a01615344565b9450606088013591508082111561551d57600080fd5b61552989838a01615344565b9350608088013591508082111561553f57600080fd5b5061554c888289016153af565b9150509295509295909350565b6000806040838503121561556c57600080fd5b50508035926020909101359150565b6000806040838503121561558e57600080fd5b823567ffffffffffffffff808211156155a657600080fd5b818501915085601f8301126155ba57600080fd5b813560206155ca61536583615320565b82815260059290921b840181019181810190898411156155e957600080fd5b948201945b8386101561560e576155ff86615161565b825294820194908201906155ee565b9650508601359250508082111561562457600080fd5b506154a585828601615344565b600081518084526020808501945080840160005b8381101561566157815187529582019590820190600101615645565b509495945050505050565b602081526000611b006020830184615631565b80516001600160a01b03168252600061018060208301516156ab60208601826001600160a01b03169052565b5060408301516040850152606083015160608501526080830151608085015260a083015160a085015260c08301518160c08601526156eb82860182615631565b91505060e083015184820360e08601526157058282615631565b91505061010080840151615723828701826001600160a01b03169052565b5050610120838101516001600160a01b03169085015261014080840151151590850152610160808401518583038287015261575e83826152e1565b9695505050505050565b6000602080830181845280855180835260408601915060408160051b870101925083870160005b828110156157bd57603f198886030184526157ab85835161567f565b9450928501929085019060010161578f565b5092979650505050505050565b60006101406001600160a01b03808e168452808d1660208501528b60408501528a60608501528960808501528860a085015280881660c085015280871660e08501525084151561010084015280610120840152614203818401856152e1565b60008060006060848603121561583e57600080fd5b8335925060208401359150604084013567ffffffffffffffff81111561586357600080fd5b61586f86828701615344565b9150509250925092565b602081526000611b00602083018461567f565b600080600080608085870312156158a257600080fd5b6158ab85615161565b93506020850135925060408501359150606085013567ffffffffffffffff8111156158d557600080fd5b61545c878288016153af565b6000602082840312156158f357600080fd5b611b0082615161565b6000806040838503121561590f57600080fd5b61591883615161565b91506020830135801515811461592d57600080fd5b809150509250929050565b6000806040838503121561594b57600080fd5b8235915061595b60208401615161565b90509250929050565b6000806040838503121561597757600080fd5b61598083615161565b915061595b60208401615161565b600080600080600060a086880312156159a657600080fd5b6159af86615161565b94506159bd60208701615161565b93506040860135925060608601359150608086013567ffffffffffffffff8111156159e757600080fd5b61554c888289016153af565b600080600060608486031215615a0857600080fd5b615a1184615161565b95602085013595506040909401359392505050565b600181811c90821680615a3a57607f821691505b602082108103615a5a57634e487b7160e01b600052602260045260246000fd5b50919050565b634e487b7160e01b600052601160045260246000fd5b818103818111156107ef576107ef615a60565b634e487b7160e01b600052603260045260246000fd5b6000808354615aad81615a26565b60018281168015615ac55760018114615ada57615b09565b60ff1984168752821515830287019450615b09565b8760005260208060002060005b85811015615b005781548a820152908401908201615ae7565b50505082870194505b50929695505050505050565b600060018201615b2757615b27615a60565b5060010190565b7f687474703a2f2f35312e33382e3139302e3133343a313135362f6170692f636181527f7264732f00000000000000000000000000000000000000000000000000000000602082015260008251615b8c8160248501602087016152bd565b9190910160240192915050565b601f821115610c0957600081815260208120601f850160051c81016020861015615bc05750805b601f850160051c820191505b81811015610c8c57828155600101615bcc565b815167ffffffffffffffff811115615bf957615bf96151d5565b615c0d81615c078454615a26565b84615b99565b602080601f831160018114615c425760008415615c2a5750858301515b600019600386901b1c1916600185901b178555610c8c565b600085815260208120601f198616915b82811015615c7157888601518255948401946001909101908401615c52565b5085821015615c8f5787850151600019600388901b60f8161c191681555b5050505050600190811b01905550565b808201808211156107ef576107ef615a60565b634e487b7160e01b600052601260045260246000fd5b600082615cd757615cd7615cb2565b500690565b600082615ceb57615ceb615cb2565b500490565b80820281158282048414176107ef576107ef615a60565b634e487b7160e01b600052600160045260246000fd5b60006001600160a01b03808816835280871660208401525084604083015283606083015260a06080830152615d5560a08301846152e1565b979650505050505050565b600060208284031215615d7257600080fd5b8151611b00816151a2565b60006001600160a01b03808816835280871660208401525060a06040830152615da960a0830186615631565b8281036060840152615dbb8186615631565b90508281036080840152615dcf81856152e1565b98975050505050505050565b604081526000615dee6040830185615631565b8281036020840152615e008185615631565b9594505050505056fea26469706673582212205a3dcc4676e21fe992e433a856f1d968ef721e66990a978986f828a569f8011964736f6c63430008140033687474703a2f2f35312e33382e3139302e3133343a313135352f63617264732f7b69647d2e6a736f6e",
  "linkReferences": {},
  "deployedLinkReferences": {}
}